S01B00006275696C642F72656C656173652F7A69676265652E73333714
S214004000081000205D810000F1C80000E7200300D2
S214004010E7200300F9C8000001C90000E7200300FC
S214004020E7200300E7200300E7200300E720030063
S21400403005C900006C680400E7200300E7200300C1
S214004040E7200300E7200300E7200300757C00005C
S214004050E7200300E7200300E7200300E720030033
S214004060E7200300E72003004DCE0000E720030012
S214004070E7200300E7200300E7200300E720030013
S214004080E7200300E7200300E7200300E720030003
S214004090E7200300E7200300E7200300E7200300F3
S2140040A0E72003002585000009850000E7200300BF
S2140040B0E7200300E7200300E72003008137020023
S2140040C0917F03008D7F0300E52E0200A77F03008B
S2140040D0957F030041370200997F0300751B02009D
S2140040E0C1370200E7200300E7200300E7200300B3
S2140040F0E7200300E7200300E7200300E720030093
S214004100E7200300E7200300E7200300E720030082
S214004110E7200300E7200300E7200300E720030072
S214004120E7200300E7200300E7200300E720030062
S208004130E72003007C
S214004134F0B5114A114C124E00F00105E3695F0711
S21400414413D40DB9334213D103EA00078F4207D1C3
S2140041540B4A1A40002A14BF6FF001000020F0BD7D
S214004164013AEBD16FF00200F9E74FF0FF30F6E7C3
S2140041746FF00100F3E700BF80969800000003503C
S214004184020001000B4B70B5D96911F480310DD1D2
S21400419401244FF48072084E084DF46020462C64C7
S2140041A41A61FFF7C5FF3464EC6070BD6FF0010060
S2140041B4FBE700BF0000035000100350002003502C
S2140041C438B541F6713301220C4C0021E569E363EE
S2140041D40B4B05F48035DA600223606121202361ED
S2140041E4FFF7A6FF10B92120FFF7A2FF0122054B17
S2140041F4DA600DB10023E36338BD00BF000003504E
S214004204001003500020035070B5134C6061E3693E
S2140042145B071ED40E4656F8043B8D18A361AE42C7
S2140042240BD10423002121202361FFF781FF58B915
S214004234BDE870402120FFF77BBF08210846FFF742
S21400424477FF10B10423236170BD56F8043BA361C5
S214004254E5E74FF0FF30F7E7000003502DE9F84399
S214004264154641F67132164B8946DF69DA63012238
S214004274064603F58053DFF8508007F48037DA608B
S21400428455B9284601220F4BDA601FB10022A3F568
S2140042940053DA63BDE8F88306F5005404EA08041C
S2140042A4A41BAC4228BF2C46494622463046FFF79C
S2140042B4ABFF0028E6D12644A1442D1BE0E700BF4F
S2100042C4000003500020035000E0FFFF45
S2140042D02DE9F04F4FF0FD0BC9B09A460DF11B09C2
S2140042E09DF8503108AFCDF80C90CDF808B0019786
S2140042F0059303890446009383790E4690464188C9
S2140043008288407812F0E2FC054650B10090A388FF
S214004310002062883A4913F01DF8284649B0BDE8E7
S214004320F08F99F8000031F085F938B12846A38857
S2140043306288344913F00EF88D25EEE75A46394662
S21400434099F8000031F01EF98346002851D0529BA0
S2140043501BB1BDF84C3198424BD8002399F8009019
S2140043600793A9F14102012A5FFA8BF123D8384658
S2140043700139254ADFF898C05FFA81FE734513DBE2
S214004380059B04210792C3B907AF18221F489FED6B
S2140043901A7B02FB060420460A460830394684ED9E
S2140043A0027B17F02BFD11E010F8011F013351407E
S2140043B00CFB01F2E2E7059B33B123464A4638463A
S2140043C0009610F005FCA8E70829DED9B8F1000F22
S2140043D001D088F80090BAF1000F01D0AAF800B01A
S2140043E0529B002B99D05A46184608A917F006FD8E
S2140043F093E7012591E700BF0000000000000000E1
S21400440079110400AE110400C59D1C8180100020A7
S21400441093010001000000002DE9F04F93B0CDE9B4
S2140044200A32DDE91C530E9353EC102BCDE908013C
S214004430104619468DED060B1E9E16F03DFF80B108
S214004440DDE906014FF0FF32C54B16F05DFF40B9BF
S214004450DDE906014FF0FF326FF4801316F036FFE9
S21400446070B1DDE908019DED060B0E9B1E96CDE9A9
S2140044701C53DDE90A3213B0BDE8F04F00F088B9EE
S2140044800022DDE90601002316F020FF002800F0D8
S2140044903381DDE906A303F1004BCBF30A5016F493
S2140044A08063A0F2FF3008BF06250F9316F032FC9B
S2140044B09BA3D3E9002316F097FC9BA3D3E9002324
S2140044C016F0DCFACBF31304894644F07F5180469D
S2140044D00022A44B504641F4401116F0CDFA94A3A6
S2140044E0D3E9002316F080FC02460B4640464946B8
S2140044F016F0C4FA16F012FF044616F00BFC8EA354
S214004500D3E900238046894616F06EFC0022964BBF
S21400451016F0B4FA16F002FF89A3D3E90023074683
S2140045204946404616F060FC80463846894616F0F6
S214004530F1FB85A3D3E9002316F056FC02460B4692
S2140045404046494616F098FA02460B46CDE90C233B
S21400455016F04AFCDDE90C238046894610461946CB
S21400456016F08CFA0022CDE91001804B40464946F1
S21400457016F064FD00227E4B16F080FA02460B46CB
S2140045804046494616F05AFD00227A4B16F076FA57
S21400459002460B464046494616F050FDDDE90C2320
S2140045A08046894600204FF0804116F065FA0246A4
S2140045B00B464046494616F061FA02460B46DDE9D0
S2140045C0100116F03BFD07F2FF3700226A4B16F08B
S2140045D055FA00223B0516F007FC52465B4680461D
S2140045E0894616F091FE002840F08980CDE90C89B6
S2140045F004F16303C62B8CBF0527042731051BD5A2
S21400460053A3D3E900235046594616F073FE0028FC
S2140046107FD051A3D3E900235046594616F056FEE4
S214004620002876D00027A542C6BF2C1B04F1FF3514
S21400463000253C4646F480660E9B9F422CBF4FF0FA
S2140046400008A3EB070816F0020903D0002F18BFD6
S2140046504FF000083CB1DDE90C235046594616F0F1
S214004660EDFC82468B46DDE906010022002316F0AB
S2140046702DFE10B10BF100439B46DDE9080126F440
S2140046800063CDE90183DDE90A324BEC10AB0095FF
S21400469000F07EF802465FB3DDE9091316F0200F3E
S2140046A000F10105089E0CBF65204520B047DDE9F6
S2140046B008010523002205930A23002CCDE90232C7
S2140046C007F1FF374FEAD473B8BF64422A46019316
S2140046D004970A9B009432F0C9FD0246B9F1000F18
S2140046E006D00B9BC41A0B9B1A190E9BA34245D8E7
S2140046F0104613B0BDE8F08FDDE906ABCDE600222C
S214004700404649461A4B16F099FC013CCDE90C018F
S2140047106EE7002D90D00F9B002B8DD0013D8BE7D0
S214004720FB799F501344D33FB3C8608B288AC63F9B
S21400473061436F63A787D23F71A379094F930A40FD
S2140047401655B5BBB16B0240EF39FAFE422EE63F76
S2140047502D431CEBE2361A3F0000000080842E41F9
S214004760FFFFEF7F0000F83F0000E03F00002C4016
S21400477000002440000018400000F03F2020DDE943
S2140047800913089DA8470134ADE700BF00000000EC
S2140047902DE9F04F5BEC10AB97B0CDE90501DDE9F4
S2140047A02058CDE90723504652465B465946229F7D
S2140047B016F082FD70B90323CDE902870193AA4B58
S2140047C00093DDE90501DDE9072332F081FC17B02F
S2140047D0BDE8F08F4FF0FF326FF480135046594615
S2140047E016F074FD28B10423CDE9028701939F4B90
S2140047F0E6E74FF0FF32504659469D4B16F084FDD3
S21400480068B19C4A07F00403002B08BF03229A4BAA
S2140048101CBF13460422CDE902870192D0E750461A
S2140048208DA3D3E90023594616F06EFD38B98CA344
S214004830D3E900235046594616F048FD68B1DDE935
S2140048400723DDE905014BEC10ABCDE92187209568
S21400485017B0BDE8F04FFFF7DFBD0022002350463B
S214004860594616F033FD002800F091805B4652460C
S2140048700020002116F000F9012382468B4609939A
S21400488017F4806400F08580092D40F285800024AE
S21400489030210EABA5F109020134202C03F8011BD0
S2140048A0A5EB040901D09442F6D15946504616F0BD
S2140048B035FD724B054603EBC90393ED007B8DED8A
S2140048C00A7B16F027FA02460B465046594616F063
S2140048D0D3F8DDE90A2316F087FA02460B46CDE93F
S2140048E00C2316F043FD064616F004FA02460B4665
S2140048F0DDE90C0116F0C0F802460B46CDE90C23A4
S21400490000225F4B16F000FD002848D001363046E6
S21400491016F0F0F902460B46DDE90A0116F0E0FC57
S21400492008B100260135B9F1000F45D1284616F02A
S214004930F1F902460B465046594616F09DF80022FD
S2140049404F4B16F0C3FC10B9E90700D501350A2114
S2140049500EAB1A19202C0AD095FBF1F001FB10556E
S214004960303502F8015B013405460028F2D107F025
S2140049700302012A55D1B8F1000F52D0099A12B994
S21400498017F00C0F01D008F1FF38302240E00990F4
S21400499076E74FF0060988E7A946002485E7002257
S2140049A0DDE90C01364B16F091FC0028BBD10EB1A8
S2140049B0F007B8D50136B6E70A210EAB1A19202C37
S2140049C00DD0B6FBF1F001FB1063092E03F13003A6
S2140049D009F1FF3904F1010402F8013B11D8302136
S2140049E0A1440EAA202CB2D04C4504F101030AD1F2
S2140049F004F158020DEB02042E2204F8202C1C466B
S214004A00A5E70646DBE7A1541C46EBE71A5501343A
S214004A10444506D2202CF9D1CDE9028701940EAB8D
S214004A20CEE6202CF8D0099B3BB12D2204F158038A
S214004A306B4403F8202C0134EEE77A0704D504F122
S214004A4058032B226B44F4E73B07E5D504F15803E3
S214004A5020226B44EDE700BF0000000065CDCD418D
S214004A600000000065CDCDC1302E0400342E0400B9
S214004A70FFFFEF7F272E04002C2E0400A0770400F3
S214004A800000E03F0000000038B5124B04461D68E9
S214004A902A6B1AB10023C2E9044338BD182017F068
S214004AA023FA0246286378B10B480C4B0C49C2E93E
S214004AB000030B2301209160002193810023C2E9AB
S214004AC00401C2E9044338BD064B4621064816F0E9
S214004AD0D5FE00BFA46700200E33CDAB34126DE6C2
S214004AE0ECDE05003C900400549004001C4B10B50E
S214004AF01C68226B8AB113691A4954691A4803FB69
S214004B0001F100FB0411A3FB0030013341EB00016F
S214004B1021F00040C2E9043110BD182017F0E4F976
S214004B200246206388B1114C114B0E481149C2E968
S214004B3000430B239160014693810F4B9FED067B4C
S214004B4082ED047BC2E9043110BD0C4B52210C48A7
S214004B5016F094FEAFF30080010000000000000095
S214004B60A46700202DF451582D7F954C0E33CDAB05
S214004B7034126DE6ECDE05002E7F954C3C9004006A
S214004B80549004000000000070B58EB02C22002166
S214004B9003A816F0A3FF64234FF002320893CDE972
S214004BA005230B2301218DF834305B4B8DF8101054
S214004BB01D880D4040F0A980084636F0C5FB0A2245
S214004BC0564B574C1A704FF42873ADF812304FF00E
S214004BD0FF332360534B54491B8820460B82534BAC
S214004BE0534A1B68CD828B61524B0D621B884B82E9
S214004BF0514B1B68CB611EF059FE20B14FF41B7160
S214004C004E4837F03CFC0521206832F022FD20B1EA
S214004C1040F27D21494837F032FC206815F0E8FE66
S214004C20474B2068196832F0D7FD0C2536F0F4FFA4
S214004C306843099036F0F0FF68430DEB05010790D6
S214004C40206819F087F820B140F295213B4837F0EC
S214004C5016FC256821F062F800220146284632F04C
S214004C6033FE20B140F29721344837F008FC40F27A
S214004C700353344D344E2B80052396F90000AB7059
S214004C807F2801D11EF008FF3378EB7036F0C4FFA2
S214004C9000EB80008000A88036F0BEFF0023C00036
S214004CA04FF0FF31E880AB604FF0FF3018A3D3E938
S214004CB0002336F09BFC2549206832F0BEFD2068B4
S214004CC002A933F0DAF920B14FF434711B4837F0FB
S214004CD0D6FB042220680DEB020132F052FD0428B8
S214004CE004D040F2D721154837F0C9FB01A90120AE
S214004CF032F053F907F040FE01201FF051FB2EF072
S214004D0060F81FF077FB1EF05FFE0EB070BD00BFB0
S214004D100A0020FF420300005C5A00208A6100203F
S214004D20805400200E92040048680020149204006C
S214004D3071B303000C92040010920400F96604009C
S214004D4084650020745400201E6B0020E5B3030029
S214004D500348044B834202D0034B03B11847704705
S214004D604C6B00204C6B002000000000064B0749EF
S214004D70C91A891048BF0131491003D0044B0BB142
S214004D8001481847704700BF4C6B00204C6B002052
S214004D900000000010B5064C237843B9FFF7D8FF93
S214004DA0044B13B10448AFF300800123237010BDF9
S214004DB0B01500200000000094B5040008B5044BB0
S214004DC01BB104490448AFF30080BDE80840CDE7B6
S214004DD000000000B415002094B50400A3F5803A46
S214004DE0704700BF154B002B08BF114B9D46FFF7C1
S214004DF0F5FF00218B460F461148124A121A16F08C
S214004E006DFE0C4B002B00D098470B4B002B00D0B0
S214004E1098470020002104000D000B4817F0C6F943
S214004E2016F02CFE2000290001F0CEFB17F0ACF99E
S214004E30000008000000000000000000081000202D
S214004E4008100020E0610020F1C4010007B5012130
S214004E5020200DF1070201F03DF858B10223012190
S214004E6020200DF107028DF8073001F043F803B05B
S214004E705DF804FB9DF807100229F8D002220948C5
S214004E8015F0EEFC022301210DF1070220208DF81B
S214004E90073001F02FF82CF0ACFD4FF4FA6000F06C
S214004EA063FEE4E7A8C8030038B502F075F901F020
S214004EB075FA012819D001F071FA022815D0114CA4
S214004EC0238843B9FFF712FE322390FBF3F202FB6E
S214004ED013000A3020802388013B9BB2238023B92D
S214004EE0094815F0BDFC01F07FFA084D2B783BB958
S214004EF001F054FA0128044602D12CF0F0FD2C7083
S214004F0038BD00BFC4550020D0C803003A5B00205F
S214004F1010B5044600882CF03FFDA37884F84400C2
S214004F201A1A53425341E37000232371064B04F1CF
S214004F301C00C4E9073401F023F822462088034900
S214004F40BDE8104000F060BF1B170300E516030025
S214004F5070B5C37804460D461646002B46D1D1B12F
S214004F602A4815F07DFC0123E370E36CA6600BB1C4
S214004F70E06D9847E368F61A63699E4233D2217E55
S214004F8023480131C9B2217615F06AFCA36D13B12E
S214004F90217EE06D9847E5702CF041FD0646002D19
S214004FA032D023796BB9A368228AC31A9A4208D8EA
S214004FB001231848237115F053FC236D0BB1E06DE7
S214004FC09847657905BBA368F61A42F20F739E42AE
S214004FD01AD9114815F044FC012363712846BDE830
S214004FE070402CF05ABC01232376D4E70029D2D196
S214004FF00A4815F035FC636DE660E570A580002B69
S214005000C9D0E06D9847C6E770BD00BFFEC8030074
S2140050100FC903003DC9030053C903002AC9030092
S21400502070B51E46838804460D46C18002810BB1CA
S214005030868070BD817800882CF09AFB0123E3708F
S214005040064BA680C4E903340C34204600F098FFD3
S21400505029462046BDE870402CF0D8BC7B170300DC
S21400506010B501790446B1FA81F1008849092CF09F
S214005070F6FB21796088B1FA81F149092CF0EFFB43
S214005080034B1A68A24204BF00221A6010BD00BF7C
S214005090CC15002070B543790446A3B100880E4EA7
S2140050A004F10805336813B10C4B1B786BB12179FA
S2140050B02CF0D5FB64210A4B3460A3602846BDE87B
S2140050C070402CF0A3BC4088E9E7064815F0C8FB02
S2140050D0054B3221A360F1E7CC1500203B5B002096
S2140050E0615000006FC903009550000010B50446DB
S2140050F0E0B10F4815F0B4FB01236371A37953B9EF
S214005100217920882CF0ABFB236B7BB1606B0121EF
S214005110BDE8104018472046FFF7A2FF04F108003C
S2140051202CF079FC2046FFF7B5FFEDE710BD00BF79
S214005130A5C9030010B50446F8B1104815F090FB59
S21400514000236371A3796BB921792088B1FA81F1C4
S21400515049092CF084FB236B7BB1606B0021BDE812
S214005160104018472046FFF77BFF04F108002CF09C
S21400517052FC2046FFF78EFFEDE710BDB0C90300D6
S21400518010B5044668B1074815F06AFB63792046F7
S2140051901BB1BDE81040FFF7CDBFBDE81040FFF7DC
S2140051A0A5BF10BDBCC903008221022008B5054A70
S2140051B000F0A0FE014620B1BDE80840024815F008
S2140051C04FBB08BDC6550020CBC9030010B50C4C1C
S2140051D082212246022000F07DFE80B13323224643
S2140051E022F8023B074B03F1300153F8040B8B42C5
S2140051F042F8040BF9D119889B781180937010BD82
S214005200C6550020F0670400034B1B781BB18B4289
S21400521001D82CF0EEBB7047C46A002010B50446D7
S21400522001460E4815F01CFB012C11D10C4B0D4805
S2140052301A884FF6FF739A421EBF0022094B5A7413
S2140052402CF0F3FA02F0C4F9BDE8104001F0D0BF2C
S2140052500448BDE810402CF0EABA00BFE4C90300D9
S214005260786A00201065002070B500241A4D1B4E89
S2140052703378A3421BDC0024194D1A4E3378A34220
S2140052801BDC0024184D194E3378A3421BDC01F0BA
S21400529085F8012816481CD12CF0C7FA02F098F9B8
S2140052A001F0A6FFBDE87040124801F097B8284606
S2140052B0FFF72EFE01346035DAE728462CF09BFA1D
S2140052C001343435DAE728462CF0CEFA0134383586
S2140052D0DAE72CF0ACFAE5E7C8210020415B0020B5
S2140052E0E8250020425B0020981F0020405B00203D
S2140052F0106500201D5200002DE9F04F87B0FFF723
S21400530065FFB94B05A805932CF0D2FA054616F0B2
S214005310D9FAB64CC2B21F2A627004D9B44815F046
S2140053209FFA00F015FC2946A01C16F067FD05A89C
S2140053302CF0BEFA054616F0C5FAC2B21F2A84F84B
S214005340212001D9AB48EAE7294604F1220016F0ED
S21400535055FD05A82CF0ACFA322604460027257821
S214005360002D40F09F80A44CFFF77EFF2378DFF8E7
S214005370C8A2DFF8C882A14F00939AF8003098F8C8
S214005380002039789E4815F06BFA3A7898F80010A5
S2140053909AF8000053180344DFF894B220782C469D
S2140053A003445846DBB2AA4200F3E482012B38BF1E
S2140053B00123944E02933246002335464FF4827101
S2140053C04FF6FF7402980133984213705180948010
S2140053D002F10C02F6DC8C4B8A498448AB6001F083
S2140053E079F9E879AB68DFF8449200EB400003EB0C
S2140053F0800000F0B9FDEB79B9F800200133A24235
S214005400EB7103D07F49814801F068FA4FF6FF73CD
S214005410B9F800207B49D21A18BF01227C4801F057
S21400542027FE4FF00009784C3A784A4500F3CA82C6
S21400543000264FF00C09774ADFF8C8B198F800004C
S2140054403978B04200F3D28246180C21002501FBC1
S21400545006B19AF800009423A8426F4A00F3E4824B
S2140054600C253E7898F8003000274FF070081E4450
S214005470064405FB06B5DFF8C8A15F4B1B78BB42A8
S21400548000F3E58202995F4800F08CFE059B5649C2
S2140054901A468B4240F0EE82604807B0BDE8F04FF7
S2140054A015F0DEB9532D0FD163784C2B40F04881B0
S2140054B0A378502B40F044810122594B1A7005A85E
S2140054C02CF0F6F904464AE7442D13D16378303BB6
S2140054D0092BF4D8601C2CF0F8F9524B524A197874
S2140054E0002386B2994202F16002E8DD22F8466C9B
S2140054F00133F7E7422D0BD16378542B54D1A01C0F
S21400550000F0D0FC494B188018462CF0C8F8D6E7B7
S214005510582D33D8412DD2D9433D152DCFD801A3D0
S21400552053F825F0E3580000BF540000BF540000B5
S214005530BF540000BF540000BF5400009356000044
S214005540BF540000BF540000455600008F550000B1
S214005550BF540000BF540000BF540000BF540000FA
S214005560C557000041570000BF540000BF5400005C
S214005570BF540000BF5400003B580000692D9ED168
S214005580601C2CF0A2F980B22CF02EFA97E71B4B89
S214005590012019780023264A994202F1BC028EDDCA
S2140055A002F8BA0C0133F7E7601C00F07BFC0546F6
S2140055B0E01C2CF002FA0121024628462CF0B9F92C
S2140055C060211848184C03785943621865524FF406
S2140055D0FA6111824FF4487151611649568311657C
S2140055E0013303706BE700BFC85500202464002019
S2140055F003CA03001ACA03003C5B00203F5B00207E
S2140056002ACA03009816002010170020481600200B
S214005610D01500209C1B0020E01900207ACA030049
S2140056203B5B0020415B0020C8210020786A0020F8
S2140056309C1C00209B1803003D5B00203E5B002066
S21400564090180020601C00F02DFC00224FF034085B
S2140056508146CC4F11462CF06CF93878CA4D08FBC1
S21400566000F325F80390EA18E3781046693B18BF64
S214005670012393702CF0BFF80021C44A3B78516098
S214005680012103FB08550B443B7015600F4611744F
S21400569015E7601C00F006FC0022114681462CF03F
S2140056A048F93422B74DDFF8E082287802FB00F391
S2140056B028F8039008EB0301E3780846693B18BF17
S2140056C001238B702CF097F8B14A00231046916B9B
S2140056D031BB00EB831034232A7802FB03838363F9
S2140056E0AC4A00231046D2F8A410F9B9BC2202FB3B
S2140056F0030034232A7802FB0383C0F8A4305FB982
S214005700A24A3B46114652F8040BA8B93422287820
S21400571000FB028241F823202B7801332B70CEE663
S2140057200133042B02F14002D1D1D9E70133042B17
S21400573002F1BC02D7D1E2E70133042BE3D1EBE759
S214005740601C00F0AFFB8046E01C2CF036F901210F
S214005750024640462CF0EDF860218F488F4D0278C7
S214005760DFF854C251436B1825F801804FF4487196
S214005770198259618A495E839965E178BC24642957
S21400578004BF012199709CF80030DFF808E25C4302
S2140057900EEB04010EF804304FF400744C80032422
S2140057A00C718C7102EB420405EB44153224013374
S2140057B0DBB201324B718D6081F8A04002708CF82C
S2140057C000307CE6601C00F06DFB00224FF0380ACB
S2140057D08146DFF8DC8111462CF0ABF898F80030F3
S2140057E0704D0AFB03F325F803904FF00109EA1801
S2140057F082F80490E37873B1E01C00F053FB0022BB
S214005800044611462CF095F898F800300AFB03532E
S2140058105C8083F8069064485D4A03789901535487
S21400582098F8001002EB8314C1EBC10205EBC20529
S2140058304A1C656388F80020D2E6601C00F032FB44
S2140058408046E01C00F02EFB0546601D2CF0B5F8E7
S21400585004460246012140462CF06BF822462846B4
S21400586001212CF066F860204FF4487CDFF828E130
S2140058704A4A9EF8003000FB03F422F80480DFF862
S21400588020811119A1F810C0C1F814C04E83C1F8C8
S2140058905880591CC9B248431418A4F810C0C4F85C
S2140058A014C06683C4F85880942415523F4D981C43
S2140058B08EF800002878DFF804C1444303EB430366
S2140058C001EB41010CEB040E02EB431302EB411219
S2140058D00CF80400CEF80430CEF80820013028700A
S2140058E0EDE5601C00F0DEFA8046E01C00F0DAFA17
S2140058F000220546114640462CF01BF800223824AC
S214005900114628462CF015F82948264A03784FF009
S214005910000E04FB03FC22F80C804FF0010802EB9B
S2140059200C0181F806E081F8048003EB0801C9B297
S2140059304C4302EB040C15539C1C047070241D4D44
S2140059408CF806E028788CF804804443DFF870C0B2
S214005950C3EBC303C1EBC1010CEB040E02EBC303A4
S21400596002EBC1020CF80400CEF80430CEF8082092
S2140059704044B4E7467901358E4284BF04714471D1
S214005980BC3010E5425B0020E825002010650020B2
S2140059909C1B00209C1C0020415B0020C82100208E
S2140059A009520000981F00203E5B00203D5B00204F
S2140059B0405B00203C5B00203F5B0020E01900209D
S2140059C090180020B9F1000F06D016F8052C02EB4F
S2140059D0420204EB8204B4603146584601F026FFCA
S2140059E009F101090BF1BC0B0C361DE571180AD044
S2140059F0481E09FB00B0C07900EB400004EB8004B1
S214005A0009FB01B08460104609FB0151039201F0C6
S214005A10ABFC39781C48314409FB015101F012FAFD
S214005A20039A0136403209E5F54218BF11F8050C15
S214005A3003911EBF00EB400004EB80048C6003FB68
S214005A40052001F00FF9039901350C3101E5F74205
S214005A5018BF15F8053C29461CBF03EB430304EBAF
S214005A60830408FB07A018BFAC6000F0D1FF013725
S214005A700C3502E513F8011D00297FF408AD3B2123
S214005A8002F8011C03E500BF8C1F002007B50121AA
S214005A9021200DF1070200F01DFA18B99DF8072025
S214005AA0024B1A7003B05DF804FB00BFC46A002006
S214005AB007B5064B8DF80700187001210DF1070297
S214005AC0212000F017FA03B05DF804FBC46A00203A
S214005AD007B5022101200DF1060200F0FBF938B9E6
S214005AE0044814F0BDFEBDF8060003B05DF804FBE4
S214005AF00020FAE797CA030007B50221ADF80600B2
S214005B000DF10602012000F0F5F9014610B1034838
S214005B1014F0A6FE03B05DF804FB00BFB8CA03008D
S214005B2010B5FFF7D5FF04460146074814F098FE67
S214005B300121064814F094FE24B9BDE81040012067
S214005B40FFF7DABF10BD00BFE8CA0300FACA0300B9
S214005B5008B5044814F084FE00F0DCF92BF049FF89
S214005B602BF043FF10CB030038B50446084D094B15
S214005B7028462B6000F004FA002C18BF2146284661
S214005B80BDE8384008BF4FF496712BF03FBF00BF0A
S214005B90EC260020E91803002DE9F043384D91B0BB
S214005BA008AC0746894690460FCD0FC495E80F000F
S214005BB0002684E80F0001250323324C3248CDE945
S214005BC00366CDE905668DF80E300796029536F029
S214005BD0FFFB2E4836F0FCFB32462D4920468DF85A
S214005BE0176004F065FF334632462A498DF81900DF
S214005BF0009020468DF82390CDF82C808DF82160FB
S214005C0004F070FF0A9020468DF8097004F0D2FE6A
S214005C10204608AA05A904F08BFF02AA204603A97D
S214005C202CF0D6FF4FF400721B4B5A62194BE560FE
S214005C30626A920510D46BB94FF40072164B114885
S214005C405A6204F0B7FE114836F0C5FB002011B0CA
S214005C50BDE8F083013BEBE7002BEDD0094908A82F
S214005C602CF0E9FF4FF400720B4B06485A6204F022
S214005C70A1FE064836F0AFFBBDF82000E7E700BF00
S214005C80246804000040005ACC6A0400C86A040075
S214005C9080841E0040420F000060005A0122034B21
S214005CA01870034B1980034B1A707047445B002032
S214005CB0806A0020435B0020F8B5454B1B780BB983
S214005CC00020F8BD434B1B78012B03D1BDE8F840FC
S214005CD02BF00DBE404B1C884FF6FF739C42EFD056
S214005CE03E4836F075FB0023260AE4B21A462146E3
S214005CF0304604F01FFE012E354604F0010335D071
S214005D0015D9B51E012DDBD8002B0BBF4FF48075BF
S214005D104FF080754FF470614FF070610BBF012734
S214005D204FF480370F204FF470202D4B11E0002BDE
S214005D300BBF4FF480754FF080754FF470614FF0D5
S214005D4070610BBF01274FF480370F204FF470208F
S214005D50244B1A6802401CD0BA421AD01A680A406D
S214005D6032D11A6822EA01022A4316E0002B0BBF42
S214005D704FF480754FF080754FF470614FF070618E
S214005D800BBF01274FF480370F204FF47020164BBF
S214005D90DFE71A6822EA00023A431A602BF0A7FDF2
S214005DA0054600288CD0083644EA06102A46032109
S214005DB0C0B2FFF7F1FE40F6FF73684300F2FF70D3
S214005DC0B0FBF3F080B27CE795427FF479AFC8E78A
S214005DD0435B0020445B0020806A0020CC6A0400FD
S214005DE028C3035020C3035024C3035010B5044CEB
S214005DF0237823B9034836F0EBFA0123237010BD4D
S214005E00465B0020CC6A04002DE9F0431F4C85B0A9
S214005E10074688469146FFF7E9FF23781BB902F04C
S214005E2039FA012323707BBAADF80C3030220023F8
S214005E30174E02FB03F4315DA51901BB0123335550
S214005E404FF0FF3304F1100012493044AB606F800E
S214005E50C5F80480C5F80C9009F0D2FC04F10801DE
S214005E60042231440C4B009503A802F0E9FAA96815
S214005E7002460A4814F0F4FC05B0BDE8F08301338E
S214005E80102BD6D1064814F0EBFCF5E7455B002056
S214005E901427002013190300251903001DCB030047
S214005EA04BCB030080B10278A2F14103032B0BD841
S214005EB040783038C0B2082806D8054B134413F88B
S214005EC0413C40EA032070474FF6FF70704700BF22
S214005ED04468040008B50B4642B101460448006811
S214005EE003F0F2FBBDE808402BF078BD022008BDA9
S214005EF07C65002008B50B4642B1014604480068A0
S214005F0003F06AFDBDE808402BF068BD022008BD1E
S214005F107C650020F0B50026124F8DB0FF2300935D
S214005F200A223346386802A92CF0EEFBC0B102AB59
S214005F301D4603EB800404E055F8043BB34228BF3B
S214005F405E1CAC423868E9D9296803F0CBFE00280D
S214005F50F2D02D28F0D00DB0BDE8F0402BF03EBDBD
S214005F600DB0F0BD7C65002028B1034B0360034BE9
S214005F7043600023836070471900000324650020F7
S214005F80FF2307B50021044A0093083009F0BCFB44
S214005F9003B05DF804FB00BF071A03000B46044974
S214005FA0024608680349097808B12BF053BD7047CC
S214005FB0242A0020485B0020F7B50C4618B135218E
S214005FC0194836F05CFA246823685E795F883046A4
S214005FD03946FFF7E3FFF0B18568E5B1A089227D79
S214005FE03946904291BF0020801AA36880B294BFC1
S214005FF003469B18E27C00903046A84701380328E9
S21400600003D8DFE800F0080F0B0D0024204630F020
S21400601079F8204600E0812003B0F0BD8024F5E743
S2140060209324F3E78724F1E773CB0300F8B515460E
S2140060300D4A044610680D4A0B46117850B12246A8
S2140060402BF008FD034628B100210C27C678B14284
S21400605001DB0020F8BD07FB01F45A681019125B3B
S214006060AA42F7D00131F2E7242A0020485B00203C
S21400607008B5034B1B6803B19847002008BD00BF56
S214006080202A002008B532B15388062B03D1039A84
S214006090024814F0E5FB002008BD00BFCACB030091
S2140060A02DE9F04F384C85B02368EBB136F0E0F9B7
S2140060B02368C01AB0F57A7F16D9002333482360C8
S2140060C014F0CEFB0124324FDFF8D080DFF8D0B0DA
S2140060D057F8045F5FFA84F94DB921462D4814F04D
S2140060E0BFFB01340A2CF3D105B0BDE8F08F12F0E7
S2140060F003F910234FF0040A00268DF80A306B6B64
S2140061000A225B7906218DF80B3002AB0093CDF89E
S21400611004A043460820ADF8086010F0A1FF4846EA
S214006120012111F019F8314630462FF079FE6B6BDD
S21400613021465A79184814F093FB12F0DDF84FF612
S2140061400273ADF80C3030238DF80E30EB780A224F
S2140061508DF80F3003AB009306214346CDF804A01C
S214006160082010F07DFF4846012110F0F5FF31466B
S21400617030462FF055FE21465846EA7814F070FB5C
S21400618064202DF0DBFBACE70833002007CC0300CF
S2140061906C33002031CC03005ECC0300E0ED03003E
S2140061A07DCC0300514B2DE9F74F1860504B044649
S2140061B0197000230D46C21D19460C209D4208DCAE
S2140061C020290CDD20224B4803B0BDE8F04F14F028
S2140061D047BB00FB03F6965D01333144EEE700262D
S2140061E0454F33010021F85C013610F05DFB0C2EA4
S2140061F0F7D10C2D28BF0C254FF0000901953E4E17
S214006200DFF800A13D4DDFF80081019B4B4502DC25
S21400621003B0BDE8F08F23784FF0000B337063882F
S2140062207380A388B380A379C6F80880B371E37936
S214006230C8F8005088F804304FF00003A768A8F8A4
S2140062400630E3795B450ADC012116F8100B10F0E6
S2140062502BFB08F1080809F101090C34D5E74FF0CB
S214006260000338886B812880FB784FF0000C2B8168
S214006270BA78C5F804A0002A00920CBF80224022FB
S2140062802A7379680AF10C02634513DC03EB4303B7
S2140062900AEB830ABB6843B1009A4FF6FF71B2FA65
S2140062A082F2174B52092FF0BDFE14350BF1010B8D
S2140062B00C37C6E7B1F800E00CF1010C22F80CEC44
S2140062C091F802E00C3202F816EC91F804E00C317A
S2140062D002F815EC11F809ECBEF1010F14BF4FF0EF
S2140062E0100E4FF0110E02F814ECCDE7242A002011
S2140062F0485B00209BCC0300604100202830002033
S214006300B95F0000282A0020A8320020014B186040
S214006310704700BF182A0020014B1860704700BF66
S214006320202A002070B51688044632460D46FFF730
S2140063307DFE38B933462A462146094814F090FABD
S214006340862070BD0279BDF814309A4205D881685F
S214006350049815F015FC0020F3E78920F1E700BF4C
S214006360CFCC030070B5128805460E46FFF75EFEDA
S214006370044670B102790499806815F001FC064B5A
S2140063801B680BB9002070BD314628462288984706
S214006390F8E78620F7E700BF182A002008B50FF0B8
S2140063A01FFB022806D0012806D0044B18784000B0
S2140063B0C0B208BD0120FCE70220FAE7475B0020D8
S2140063C0054B10B51C682CB1FFF7E8FF2346BDE867
S2140063D01040184710BD00BF142A0020014B18605B
S2140063E0704700BF142A002070B536F041F80B4DF8
S2140063F004462B788BB90A4E336823B147F23052E5
S214006400C31A934209D9074814F02AFA01233460C4
S2140064102B70BDE870400BF043BB70BD475B00209F
S2140064201C2A002008CD030010B5044611482CF0A5
S21400643049FC152C11D100220F4B4FF47A710F48EE
S2140064401A7014F00DFA30F0BDF936F011F80C4B56
S2140064501860BDE81040FFF7B3BF162CF9D1FFF760
S2140064609DFF0028F5D1074814F0FAF9FFF7BCFFA6
S214006470EFE700BF0080015A475B00202FCD0300E6
S214006480083300205FCD03000022024B1A70FFF78E
S21400649097BF00BF475B002037B50446002832D0C0
S2140064A00FF09EFA022830D1608930F08DF9E0793D
S2140064B0237A003818BF0120012B637A08BF40F00A
S2140064C008000BB140F0100063890BB140F00400E7
S2140064D0257CA188A2790DB1E36873B90C4B10F046
S2140064E0BFFD2178084610F037FE2FF096FC0028F6
S2140064F014BF0320002003B030BDCDE90035054BA6
S21400650010F0AEFDEDE70220F5E70120F3E700BF4F
S214006510C61D0400E0ED030008B504F0A9FC03075F
S214006520014604D50A48BDE8084014F099B90806A3
S21400653001D50848F7E74A0601D50748F3E7CB0731
S21400654001D50648EFE70648BDE8084014F088B9CC
S2140065508ACD0300B7CD0300E3CD030009CE0300C8
S2140065602ECE03001FB500230F22CDF80130CDF844
S2140065700930CDF805300123694606488DF800300D
S2140065808DF809208DF803302CF0ADFB05B05DF8D2
S21400659004FB00BF0080015A08B50DF0DFFB014682
S2140065A060B1074814F05CF906482CF08BFB0DF040
S2140065B079FFBDE8084003482CF084BB08BD00BF47
S2140065C04FCE03000080015A10B52DF0FAFDFFF7FC
S2140065D0A3FF4FF4FA7006F0DDFB03F027FC01463C
S2140065E060B1124814F03CF911482CF06BFB114BCB
S2140065F018682CF09BF80E482CF064FB2BF042F841
S214006600FFF7CAFFFFF7AEFF642009F0C1FD4FF4A5
S2140066107A7009F0ADFD064C2DF0D5FDFEF744FC72
S21400662020462CF04FFB34F0E5F8F5E77CCE03006F
S2140066300080015A7C650020034B044A5B7C0121E4
S21400664003201370FFF756BC10650020495B00203E
S21400665010B50446FFF7F0FFB4F57F4F0BD10024CA
S2140066600F4B1A8813449C70FEF79EFD2046BDE82B
S2140066701040FFF779BA4FF601739C4204D1BDE88B
S214006680104008482BF0B9B84FF602739C4205D16B
S214006690BDE81040044B1878FFF70ABA10BD00BFDB
S2140066A0C655002010650020C46A002010B5074CAF
S2140066B0012122460320FFF70DFC28B92378044A5F
S2140066C0003B18BF0123537410BD00BF495B002078
S2140066D010650020F8B5574B574C1A884FF6FF73D5
S2140066E09A4218BF03234FF0080218BF2370534B7B
S2140066F032251A7030229A705A7134229A713122D9
S214006700DA7137225D70DD7036251A724FF400128A
S2140067101D714B4D4264C5644A4D012205654A4DC4
S21400672086188565494DC667C565494D494E456617
S214006730494D80F848208566484D80F85420056706
S214006740474D80F860204567202580F8785080F80F
S214006750845000F12105C0F88850424D80F86C2026
S214006760C0F88C50C0F8806080F89020C0F8944044
S214006770C0F8B8303C4B3D4CC0F8BC300223C0F8E3
S21400678098403B4C80F8C030C0F8A4400F24394BEA
S21400679080F8A840C0F8C430374B384CC0F8C83032
S2140067A08223C0F8AC40364C80F8CC30C0F8B040FD
S2140067B00924344B344DC0F8D030344B80F8B44004
S2140067C0C0F8D4302C7C324B80F89C20C0F8A00057
S2140067D080F8D820C0F8DC3044B12E4B80F8E42096
S2140067E0C0F8E03005F11103C0F8E8304FF0000CB7
S2140067F0CA798E6802EB42039F00443006EB83039F
S21400680026F807C0586001200D349870DC70131805
S214006810CB71FFF73BF9FFF749FFFFF7BFFD0128F4
S21400682006D12B7C23B1BDE8F84017482AF0E5BF17
S214006830F8BD00BF786A0020C56A00204A5B0020C9
S2140068405D680400010020005C680400020020006F
S2140068505B68040005004200030020005A6804003C
S2140068600400420007003000FDFF21001200100166
S214006870004042005868040000FF440148680400D5
S21400688006004200C65500201065002002FF2001C9
S214006890C46A002001FF100113B504460D482AF013
S2140068A009FF6422C0F30F43637083B2B3FBF2F3B5
S2140068B0A0782370202201212BF0EEF8A078212268
S2140068C001212BF0E9F80449201D02B0BDE8104074
S2140068D02BF09CB8786A0020E09304000B7870B523
S2140068E083704CF61E0303804FF02013C36201230F
S2140068F080F8303080F83C30C3180364124B0446EE
S21400690043640223114A80F84830114B8263C36403
S2140069104063CA798D6802EB420305EB830004F1FD
S2140069202C0646600B4E45F8236000238360531CFC
S214006930CB71094B201DC4E90134FFF721FB20462B
S214006940BDE87040FFF7A8BFFDFF21002100200032
S2140069505E6804000100010399680000437B044A56
S2140069600121137000781130C0B2FFF7C3BA00BF20
S214006970545B002038B504460078054D11302A4691
S2140069800121C0B2FFF7A6FA08B92B78637338BDA9
S214006990545B0020024B53F820002BF02EB900BFAA
S2140069A00C330020012908B506D0022907D049B9C2
S2140069B02BF01AF9002008BD2BF019F9FAE72BF096
S2140069C019F9F7E7024813F04BFF0120F3E700BF81
S2140069D0A8CE030010B4054C114654F820001A4601
S2140069E0BDF804305DF8044BFFF7DCBF0C33002025
S2140069F0002310B5044683810364A0F84430483071
S214006A00FFF7BEFA014BC4E9123410BDE11B0300C8
S214006A1038B504460B781A4A43700D4642F82300F0
S214006A20FFF7E6FF2046FFF7A5FF4FF4401323616C
S214006A300123144A2375A261134A84F82030E261C8
S214006A40124A84F82C306262114A84F83830A26206
S214006A5004F10C0222630F4A04F10D036263E36340
S214006A60EA79A86802EB420300EB830110344C601D
S214006A70094C40F82340094B8B60531CEB7138BD22
S214006A800C330020535B002008002000C66A00205C
S214006A9000FF300001FF100102010104D56900006B
S214006AA010B47024427B0D48013A012904FB020011
S214006AB006D0022908D059B95DF8044B2BF094B8DB
S214006AC05DF8044B2BF093B85DF8044B2BF092B8AE
S214006AD003485DF8044B13F0C3BE00BF90180020B7
S214006AE0C4CE0300B0F85C302DE9F0418B4204467A
S214006AF00E4638D0437B077C8BB31C4A12789A42EA
S214006B002DD370251A4A013B05FB032390F80F800E
S214006B101B7B42462BF07FF8B845054601D1FF287F
S214006B201FD13A463146204694F890302BF073F841
S214006B302F460546552212216078A4F85C602AF09C
S214006B40ABFFFF2F03D039462046FFF7A9FFFF2DE6
S214006B5009D029462046BDE8F0412BF09CB8FF2519
S214006B60DFE70746E6E7BDE8F08100BF3C5B0020B4
S214006B709018002041688268C978D27849B112B16D
S214006B800321FFF7AFBF837B002B0CBF012102213F
S214006B90F7E72AB1837B002B0CBF02210121F0E727
S214006BA0014813F05DBE00BFD5CE0300037BD3B112
S214006BB04368DA7812B18268D278A2B91B7933B109
S214006BC0837B002B0CBF04210521FFF78BBF836856
S214006BD01B792BB1837B002B0CBF05210421F4E726
S214006BE0014813F03DBE704707CF0300084A437BB9
S214006BF005211370837B5370C37B9370037CD37023
S214006C00037B137100780E30C0B2FFF773B900BF74
S214006C10555B002038B5044600780C4D0E302A46E9
S214006C200521C0B2FFF756F920B1BDE83840084844
S214006C3013F016BE2B7863736B78A373AB78E3738D
S214006C40EB7823742B79237338BD00BF555B002087
S214006C5043CF0300024B53F820002BF066B800BF6A
S214006C6034330020F8B504460B78424A43700D468C
S214006C7042F82300404E2BF076F8FFF7CBFF626811
S214006C80A3683E483E49D6641165D4655065C3E99D
S214006C901410DE64DC654FF09873022663610123EE
S214006CA004F10C01E16137491032216204F10D0153
S214006CB0A16235492376E16204F10E01616333492E
S214006CC084F82430A16304F10F012164304984F86C
S214006CD03030616404F11001E1642E4984F83C30E0
S214006CE084F84830216584F85460A265E879A9687C
S214006CF000EB400201EB820704F1140CC7F804C055
S214006D004FF4817C244F41F82270C218D2B202EBB5
S214006D10420241F822C001EB820700227A601F4A35
S214006D2084F8703022661E4A84F88830A2661D4AAF
S214006D301D4BE2661D4AC4F88C3062671C4A8319F4
S214006D40A26704F15C02C4F88020DBB2194A03EBA8
S214006D504303C4F8842084F8646084F87C6001EB04
S214006D60830260345460144A033041F82320E871EB
S214006D70F8BD00BF34330020756B0000ED1C030027
S214006D80AD6B00000100200102001001030030017D
S214006D90040030010500210101FC01064A00210023
S214006DA06068040051001000626804006368040014
S214006DB0550021006F0018001200010470B50D4642
S214006DC00646144613460A4601461A4813F048FD7E
S214006DD025B92046BDE87040FFF73ABC072D05D11F
S214006DE021463046BDE8704000F0E4BC4FF6014353
S214006DF09D4205D121463046BDE87040FFF72ABFC8
S214006E00062D05D121463046BDE8704000F066BA32
S214006E10B5F5817F05D121463046BDE87040FFF7C5
S214006E20B9BD202D04D12046BDE8704000F0ECB876
S214006E3070BD00BF72CF03000148FFF767BA00BFFE
S214006E40BD6D00004FF4C01330B50360012303711D
S214006E50074B8C688360CA7902EB420304EB830518
S214006E606860044844F82300531CCB7130BD00BF53
S214006E7064680400040001010368064A0C211360DC
S214006E804368536003891381438922205381FFF7A7
S214006E9031B800BF5C33002010B50368044686B0E6
S214006EA0FBB1114813F0DCFCA37B104A8DF80430CC
S214006EB04FF48273ADF806300123CDE90223002398
S214006EC001A804938DF81430FFF7E6FA204661898E
S214006ED02AF059FF2046FA2150F8143B59432AF06D
S214006EE095FD06B010BD00BFA5CF03002000000131
S214006EF010B5064C236843B1054813F0B1FC206872
S214006F00BDE8104041892AF03EBF10BD683300201E
S214006F10C6CF030070B5364910460C68BDF8102081
S214006F20002C5ED003285CD8DFE800F0021E274560
S214006F30002B5AD0022A58D91D78B3F80160291EB2
S214006F4018BF012132462B4813F08AFC2DB131467A
S214006F5020462AF018FF002070BDE573FA2063680B
S214006F6058432AF0C4FDF6E7234813F079FCE37B88
S214006F70002B38D00023E373F0E7002B35D0032A2C
S214006F8033D91D681D48294613F06AFC1C4B2A1F7E
S214006F909A4201D90220DFE723680BB19D42F9D857
S214006FA023899D42F6D3E37B6560B3B9FA20684334
S214006FB02AF09DFD11E0002BCED0012ACCD91D88E9
S214006FC01048294613F04CFC002DE3D063689D4220
S214006FD0E0D8E37B2581002BE8D12046FFF74CFF65
S214006FE0B9E70120B8E70420B6E70320B4E700BFFE
S214006FF068330020E9CF030020D003003FD0030011
S214007000FCFF6D006AD0030038B5154B1C6834B31E
S214007010F0B92168134813F023FC23683BB162687B
S214007020934204D2104813F01BFC6368236004F1FB
S214007030140528462AF0EFFC236823B1FA212846D7
S21400704059432AF0E3FC2046BDE83840FFF714BF5A
S214007050032804D16189054813F002FCF3E738BD24
S2140070606833002095D00300C3D00300F8D0030097
S21400707070B53E4B0D46044609781860002A6FD15D
S21400708001231A46A1730021E1730121A1814FF467
S2140070906151C4E900132823354E22810C21324663
S2140070A022206381FEF716FF60B9D6E900230AB1F5
S2140070B09A4207D3318999429FBFC4E90023738956
S2140070C0218163812B4B2C4AE363042384F84030F0
S2140070D084F84C30E3182365284BA26463650223CA
S2140070E004F10802E265264A84F85830226604F164
S2140070F00A02A266234A84F8643084F8703004F1E9
S2140071000C03E26663676464EA79A86802EB4203EC
S21400711000EB830104F13C064E601B4E40F82360F2
S214007120FA261A4B1A488B60531CEB71FFF7F4F8DB
S214007130208904F1140570432AF0D9FC61892046A1
S2140071402AF021FE134B2846C4E90534FEF718FF43
S214007150216849B128467143BDE870402AF056BC04
S2140071604FF4F07302228DE770BD00BF6833002035
S2140071705C330020000023010100230002002100F0
S21400718003002101FDFF210020000105156F00000E
S214007190F16E0000996E0000134B10B51C680CB31E
S2140071A0E37BEBB12AF03BFC2369C01A002809DB1D
S2140071B00E4813F055FB0023FA20E3736368584328
S2140071C02AF095FCE37B5BB12489FA235C432AF022
S2140071D099FCA04206D02046BDE810402AF087BCA5
S2140071E06468F2E710BD00BF6833002025D10300B5
S2140071F038B50024044D55F8040B08B12AF0D6FD26
S21400720001340A2CF7D138BD6C330020042908B5A8
S2140072100AD172B16BB113781BB92AF0F2FD0020C7
S21400722008BD2AF0E4FDFAE7034813F019FB012035
S214007230F6E70320F4E700BF5FD1030010B4054C67
S214007240114654F820001A46BDF804305DF8044B89
S214007250FFF7DCBF6C3300200229024608B50ED0CB
S21400726004D839B910462AF0CCFD06E04029F9D0FA
S214007270412907D110462AF0BAFD002008BD2AF0A1
S214007280CAFDFAE7024813F0EBFA0120F6E700BF62
S2140072907FD1030010B4054C114654F820001A465E
S2140072A0BDF804305DF8044BFFF7D6BF6C33002002
S2140072B0426B094B52791A7082785A70C2789A706B
S2140072C0826B12B190F83C20DA7000780421093005
S2140072D0014AC0B2FEF70EBE5A5B0020024B53F8BE
S2140072E020002AF0B4BD00BF6C33002038B5044639
S2140072F00078084D09302A460421C0B2FEF7EAFDA0
S21400730030B96B78A370AB78E370EB7884F83C30D8
S21400731038BD00BF5A5B002038B504460078114DD2
S21400732009302A460421C0B2FEF7D4FDC8B9A378B6
S2140073302A78022B0CD004D863B920462AF061FDC7
S21400734001E0FF2B0AD02046BDE838402AF02EBDCB
S214007350002AF2D120462AF04AFDF4E7002AF9D1A5
S214007360EBE738BD5A5B0020F8B504460B78284A90
S2140073700D4642F823004370FFF7B8FF636B254ABB
S2140073805C631A632046FFF7C7FF20462AF00EFD0F
S2140073904FF4801363600123626BA66B0532E260D4
S2140073A01D4A23722261A21C2375A26166B11B4A84
S2140073B084F82030E261E21C6262194A84F82C30BC
S2140073C004F13C03A26223630627EA79A96802EB6C
S2140073D04203002E21F8237001EB83000CBF02232A
S2140073E00423C370012383700E4B04348360531C44
S2140073F04460DBB20C4C03EB430341F8234001EB43
S214007400830000234360094B02328360EA71F8BDB3
S2140074106C3300202B1E03000340300101FF3001B7
S21400742002FF100195720000080001003D72000086
S21400743028B1034B1B78834234BF002001207047DD
S2140074403E5B002008B5427901461046FFF7F0FF84
S214007450A8B1CB780A48013A042B00EB82100ED86C
S214007460012B08D81BB9BDE808402AF0C0BCBDE80F
S21400747008402AF0C6BCBDE808402AF0CCBC08BDCF
S2140074809C1B002008B5427901461046FFF7D0FF46
S214007490A8B1CB780A48013A042B00EB82100ED82C
S2140074A0012B08D81BB9BDE808402AF0AABCBDE8E5
S2140074B008402AF09CBCBDE808402AF0ACBC08BDD9
S2140074C09C1B002010B586B00446FEF767FF012817
S2140074D030D1E278042A2DD8DFE802F013323403E4
S2140074E0030061790846FFF7A3FF58B31648032A3E
S2140074F000EB811050F80C3C58791DD1003818BFAD
S214007500012063784FF480728DF804304FF4827354
S214007510ADF806300623ADF8083001238DF80B30A1
S21400752000238DF80A0001A8CDE903238DF8143056
S214007530FEF7B2FF06B010BDB0FA80F04009E0E7F3
S2140075400020DEE70220DCE79C1B002010B586B09A
S2140075500446FEF723FF012830D1E278042A2DD80E
S214007560DFE802F013133203030061790846FFF7E1
S2140075705FFF48B31548032A00EB811050F80C3C17
S2140075805B791DD11A1E18BF012263788DF80A2078
S2140075908DF804304FF48273ADF806300623ADF84C
S2140075A0083001234FF480728DF80B30002301A8B9
S2140075B0CDE903238DF81430FEF76EFF06B010BD3C
S2140075C0B3FA83F25209E0E70222DEE79C1B0020B2
S2140075D0F8B534F04DFF00250646194C194F3B7898
S2140075E0AB4200DCF8BDD4F8A42042B123791BB12D
S2140075F06079FFF71DFF10B910462AF0EFF894F8EF
S214007600B8309BB1D4F8B430F31A132B0ED95522E8
S214007610122160782AF040FAB4F86C30032B08D1B7
S2140076202046FFF74FFF002384F8B8300135BC34FE
S214007630D5E7042BF7D12046FFF788FFF3E700BF16
S2140076409C1C00203F5B002010B586B00446FEF769
S214007650A5FE012812D16378094A8DF804304FF44C
S2140076608273ADF806304FF48073CDE90223002311
S21400767001A804938DF81430FEF70EFF06B010BD77
S2140076800800070110B586B00446FEF787FE0128FD
S21400769020D16278104B8DF804204FF4827294F853
S2140076A0A01094F8A10059701870ADF80620049345
S2140076B04FF480720223094901A88DF81430CDE9F1
S2140076C00212FEF7E9FE94F8A130013B18BF012331
S2140076D084F8A13006B010BD5E5B002008000501EE
S2140076E010B58378044603B30379022B0AD1427996
S2140076F01046FFF79DFE28B10C48013A00EB8210B9
S2140077002AF089FBA379022B02D12046FFF7DAFE86
S2140077102046FFF7B7FF02236078A4F86C305522A6
S214007720BDE8104012212AF0B7B910BD9C1B0020FE
S2140077304388094A082113808388538083681B8AFC
S214007740938090F8A03093718379D37100780430D9
S214007750C0B2FEF7CFBB00BF4856002038B50D4676
S21400776004460178114813F07BF84FF602739D42E9
S2140077700ED10F4B1B782BB963712046BDE83840FD
S214007780FFF7D6BF62790AB19342F6D20123F3E738
S214007790B5F57F4FF1D120462AF0DBFBA378022B0C
S2140077A00CBF01220022A3689A70E6E79BD1030073
S2140077B03E5B0020024B53F82000FFF7CFBF00BF10
S2140077C09433002038B504460078144D04302A4619
S2140077D00821C0B2FEF77EFB20B1BDE83840104855
S2140077E013F03EB82B8863806B88E978A380AA885C
S2140077F0A3681A82AB7984F8A030EB79A371094BA1
S2140078001B780BB9637138BD09B19942FBD906489C
S21400781013F026F823780133F4E700BF485600201B
S214007820B5D103003E5B0020DED10300F8B5044668
S2140078300B78524A0D4642F823004370FFF7C2FF0A
S214007840A3684F4ADC65DA644E4A02265A654E4AF9
S214007850A11C1A654FF44012E26001226161E162E8
S2140078604A49103321632365211D494BA1634948CA
S2140078704949636504F1A003A061E163E365E01C88
S214007880611D464B20626164454846492366A31D38
S21400789022742277606284F8282084F8342084F8E2
S2140078A0402084F84C6084F8582084F86420A16452
S2140078B0A366E979AB6801EB410003EB800704F1AE
S2140078C00C0CC7F804C0384F04F1A80C43F820701D
S2140078D04FF48010C4F8A800344884F8AC20C4F8EC
S2140078E0B0008818C0B200EB400003EB8007C7F872
S2140078F004C04FF0060C2E4F43F820708819C0B213
S21400790000EB400043F820C003EB800700207860BF
S214007910284F84F880202767274F84F89820A76789
S214007920264F274AE767274F84F8746084F88C60F0
S214007930C4F89C2004F16C06CA1CC4F88470C4F811
S2140079409060214F214ED2B202EB4202C4F89460FE
S214007950C4F8887003EB82067034746008261C4CEA
S21400796043F822400A1DD2B202EB420203EB820425
S214007970053143F822606060E971F8BD9433002059
S2140079809F1E0300F31E0300E176000001FF300196
S21400799004FF20011000300102FF200105FF300126
S2140079A000FF300103FF210107000108605B002093
S2140079B0060001014A00210066680400510010001C
S2140079C06868040069680400550021006F0018000C
S2140079D01200010400239B6AB3F5804F03D2196896
S2140079E0064A914203D00023037083607047012249
S2140079F002709A689B694260F7E700BF07B0CD5EE9
S214007A00024B034A1A602BF050BF00BF0000002054
S214007A1002020FF073B53F4B04461A781AB10222E1
S214007A201A7002B070BDCDE900220028F9D00126F8
S214007A301E7034F02FFC384D384B186018F098FF45
S214007A402B785BB902F0F2F940B935480823354A7D
S214007A503549006801F038FE00B92E70334B5A687D
S214007A60E260334A9A601A6E22605A6E6260D3F8F9
S214007A707021A2601B6E5C042CD52E4AD368D807F2
S214007A80FCD42D4B1A68531C29D04FF48013934016
S214007A902A4A13660423294C4FF0804223664FF48B
S214007AA080632366102323664FF4005368462366DC
S214007AB001A9226663662AF064FA009B2366019B8E
S214007AC063662B78002BACD0164B1A6822665B6870
S214007AD06366A6E71A4AD368D907FCD4D1E7194BE0
S214007AE01B78002BD6D1184B5A68144B12B94FF49A
S214007AF080121A66154A526812B94FF400121A66B6
S214007B00134B5B68002BC5D14FF480020B4B1A66F3
S214007B10C0E700BF625B0020635B0020CC33002020
S214007B207C650020D03300200071080000800044EF
S214007B3055CEAC000000044048650020009000448C
S214007B4000000450615B00200080055000C0055016
S214007B500000065038B5224D04462B78012B02D083
S214007B6001232B7038BD0028FCD02AF02FFA0130F4
S214007B7009D02AF02BFA40F20113984203D0194A92
S214007B80D368DB07FCD42268174B1A6662685A660D
S214007B90A268C3F87021E268D40744BF00229A6046
S214007BA0124B1A68013213D1114A127882B9114960
S214007BB04968C80748BF1A600F4A5268D10744BFD1
S214007BC001221A600D4A5268D20744BF02221A6088
S214007BD018F0D6FE0A4B186834F057FB0023C0E7AF
S214007BE0625B0020000004400080004448650020DE
S214007BF0615B00200080055000C005500000065064
S214007C00CC33002070B50024A36AB3F5804F23D28E
S214007C101A68134B9A421FD1124E337813F0FD05A3
S214007C2018D14FF480341048FFF7F4FE032004F018
S214007C304FFC0E4B0320DC6004F02EFC0C4B1C614A
S214007C40AB6ADB69984704460748FFF783FF0CB921
S214007C5001233370204670BD4FF48174FAE700BFED
S214007C6007B0CD5E615B0020BC33002000A000445E
S214007C700090004413B5204B1B7803B9FEE70023A1
S214007C801E4CCDE900336A4608231D49206801F0E2
S214007C901BFDF8B91B4AD2F84031D2F840211F2B01
S214007CA04FF0010311D9203A9340019A1A430192EA
S214007CB008236A461249206801F08EFE124B134ACA
S214007CC01A602BF0F2FD02B010BD9340009A1A43E2
S214007CD00092EDE72D28F1D10A4AD2F84031D2F8C9
S214007CE040211F2B4FF0010385BF203A934093405D
S214007CF0019398BF0093DBE7625B00207C65002061
S214007D000071080000800044000000200B020FF005
S214007D1038B50025AB6A0446B3F5804F10D21B6B0E
S214007D20B3F5804F0CD20748FFF774FEAB6A2046C7
S214007D301B6B5B689847BDE838400248FFF70ABFF0
S214007D4038BD00BFD833002013B50024A36A0190C5
S214007D50B3F5804F13D21B6BB3F5804F0FD2094893
S214007D60FFF758FEA36A01211B6B01A89B69984781
S214007D7004460448FFF7EEFE204602B010BD4FF45E
S214007D808174F9E7D833002070B50026B36A04463C
S214007D90B3F5804F0D4612D21B6BB3F5804F0ED253
S214007DA00848FFF737FEB36A20461B6B29469B69D7
S214007DB0984704460348FFF7CDFE204670BD4FF4B3
S214007DC08174FAE7D833002070B50026B36A0446FB
S214007DD0B3F5804F0D4612D21B6BB3F5804F0ED213
S214007DE00848FFF717FEB36A20461B6B2946DB6977
S214007DF0984704460348FFF7ADFE204670BD4FF493
S214007E008174FAE7D8330020F8B50027BB6A044629
S214007E10B3F5804F0D46164611D21B6B7BB1094851
S214007E20FFF7F8FDBB6A20461B6B324629465B6AA5
S214007E30984704460348FFF78DFE2046F8BD4FF4EA
S214007E400174FAE7D833002070B50026B36A0446FA
S214007E50B3F5804F0D4612D21B6BB3F5804F0ED292
S214007E600848FFF7D7FDB36A20461B6B29469B6A76
S214007E70984704460348FFF76DFE204670BD4FF452
S214007E800174FAE7D8330020F0B50027BB6A044631
S214007E90B3F5804F0D461646ADF5337D20D21B6BED
S214007EA0B3F5804F1CD21048FFF7B4FDBB6A2046DE
S214007EB01B6B40F2C1225B6A01A99847044630B1A9
S214007EC00948FFF747FE20460DF5337DF0BD836A6F
S214007ED032461B6B2946DB6A01A898470446EFE743
S214007EE04FF40174EFE700BFD833002010B500242C
S214007EF0A36AB3F5804F10D21B6BB3F5804F0CD23C
S214007F000748FFF787FDA36A1B6B1B6B9847044661
S214007F100348FFF71FFE204610BD0124FBE700BF05
S214007F20D8330020F0B58FB0044601A80E4615469B
S214007F30FFF7EEFE9DF80C30012B12D1B5F5402F61
S214007F4027D8B4F5402F24D86319B3F5402F20D88E
S214007F5021462A46304613F051FF002420460FB033
S214007F60F0BD0027BB6AB3F5804F15D21B6BB3F587
S214007F70804F11D20A48FFF74DFDBB6A2A461B6B9D
S214007F80314620465B6B984704460548FFF7E2FDFE
S214007F90E4E740F20244E1E740F20114DEE700BF06
S214007FA0D8330020F0B58FB0044601A80E4615461B
S214007FB0FFF7AEFE9DF80C30012B1FD1B5F5402F14
S214007FC006D8B4F5402F03D86319B3F5402F13D95C
S214007FD040F2024420460FB0F0BDE258013225D1EF
S214007FE004339D42F9D82A46314620462AF01EF828
S214007FF00028EDD00024EDE70023F2E70027BB6A57
S214008000B3F5804F15D21B6BB3F5804F11D20A48DB
S214008010FFF700FDBB6A2A461B6B314620469B6B6A
S214008020984704460448FFF795FDD3E740F203441B
S214008030D0E740F20114CDE7D833002070B58EB0FB
S214008040044601A80D46FFF763FE9DF80C30012B91
S21400805022D144EA0503C3F30C03002B33D1B5F554
S214008060402F04D940F2024420460EB070BDB4F54D
S214008070402FF7D82544B5F5402FF3D8204604F511
S214008080005429F0CCFFAC4202D00028F6D1E9E734
S2140080900028E7D00024E7E70026B36AB3F5804F50
S2140080A014D21B6BB3F5804F10D20A48FFF7B2FC10
S2140080B0B36A29461B6B2046DB6B98470446054887
S2140080C0FFF748FDD0E740F20444CDE740F2011444
S2140080D0CAE700BFD8330020BFF34F8F0549064BD1
S2140080E0CA6802F4E0621343CB60BFF34F8F00BF51
S2140080F0FDE700BF00ED00E00400FA0570B5D0B162
S214008100C9B10E4E431E013913F8014F2046325DA9
S21400811002F00302012A11F8012F08BF04F1200023
S214008120B55C05F00305012D08BF2032801A01D189
S214008130002CE9D170BD0120FCE700BFFD900400D3
S2140081400348044A0449121A921029F0CDBF00BF12
S21400815034410000D04200007C62002008B5154B78
S21400816083F30A8800F030F8FFF7EAFF124B134952
S2140081708B4212D30020124B12498B4218D3FCF7C5
S21400818031FE186850F82240586840F82240013204
S21400819098688242F5D30C33EAE70022F8E71C68B9
S2140081A044F8220001325C68A242F8D30833E4E7C0
S2140081B00022F8E7080000209CB50400A8B50400DB
S2140081C0A8B50400A8B50400124B134A70B59A600F
S2140081D0D3F88820114D42F47002C3F888206FF05F
S2140081E0010205F50054226641F2FF726266022221
S2140081F0C3F8D020BFF34F8FBFF36F8F4FF44036D6
S214008200032004F065F90320E66004F045F92E61CA
S21400821070BD00BF00ED00E000400000008000449C
S214008220014B1860704700BF50650020054B186072
S214008230054B1B6F03F00703032B01D132F070B917
S214008240704700BF58650020008000502DE9F041BF
S21400825004464FF001080C250D4E0CB9BDE8F08120
S21400826094FAA4F0B0FA80F00F2808FA00F2C8BF1B
S214008270103824EA0204CABF05FB006205FB006250
S214008280B4325768002FE8D09168C0B2B847E4E728
S214008290E833002008B50C4834F09AF8192004F0AA
S2140082A009F928B1192004F013F9192004F0F4F89C
S2140082B01A2004F0FFF828B11A2004F009F91A2051
S2140082C004F0EAF8002008BDCC6A04002DE9F0416D
S2140082D00E461746054618B30F2923D80378DBB198
S2140082E0013BDBB2022B19D8104AD35C6A78D34024
S2140082F0DB0717D50E4BD3F81043ACB933F0CAFFE3
S21400830080463A462846314602F042FE404633F062
S214008310BCFF2046BDE8F0817F23E7E70023E5E7C2
S2140083202224F6E72124F4E70224F2E7BC680400DE
S21400833000C0035010B5044610B30378E3B1013B08
S214008340DBB2022B1AD8104AD35C6278D340DB0724
S21400835018D533F09FFF0122617823788A403021B8
S2140083604B4341F2100103F1A04303F570335A501A
S21400837033F08BFF002010BD7F23E6E70023E4E701
S2140083802220F8E72120F6E7BC68040010B5044672
S21400839010B30378E3B1013BDBB2022B1AD8104AC4
S2140083A0D35C6278D340DB0718D533F073FF012225
S2140083B0617823788A4030214B4342F2100103F162
S2140083C0A04303F570335A5033F05FFF002010BD12
S2140083D07F23E6E70023E4E72220F8E72120F6E7FC
S2140083E0BC68040038B50D46044618B311B30378CC
S2140083F0E3B1013BDBB2022B1AD8104AD35C627899
S214008400D340DB0718D533F045FF3022237853439B
S21400841003F1A04303F570335B696278D34003F041
S21400842001032B7033F031FF002038BD7F23E6E7D1
S2140084300023E4E72220F8E72120F6E7BC680400E2
S2140084402DE9F0410D4616469846044600284FD0C2
S21400845000294DD00178002940D04B1EDBB2022BFC
S2140084603ED8254AD25C6378DA40D20701D4FF2989
S21400847040D1022E01D9042E3CD133F00BFF2378D5
S2140084800746FF2B05D032462046296802F0C6FD77
S21400849028602B68013309D12378FF2B06D1174BB0
S2140084A06078D3F824142AF070FC286029684B1CE6
S2140084B018D00C23124A03FB0122069BC2F8048044
S2140084C093602378FF2B04D001230E4A8B40C2F81A
S2140084D02434384633F0D9FE002007E07F22C2E776
S2140084E00022C0E7384633F0D0FE2D20BDE8F081EC
S2140084F02220FBE72120F9E7BC68040000C00350F7
S214008500E833002000D0035008B502F037FD044BD6
S21400851000F05530C3F82004BDE80840FFF796BECB
S21400852000E0035008B502F029FD044B00F0AA3025
S214008530C3F82004BDE80840FFF788BE00E00350FB
S2140085402DE9F04F144605460E469B46C36B87B092
S21400855001225B6902A960689847EB6B01225B69A0
S21400856003A93046984702A82AF0DEF9074648B124
S2140085700023A37563754FF0FF33A360002007B098
S214008580BDE8F08F03A82AF0DCF90123A375237E4B
S21400859004EBC303DE611F846368B3420ED1206020
S2140085A003A82AF0F0F94FF0FF332075A360237D6F
S2140085B0043B022B26D80023A375DFE723681A1A8C
S2140085C053425341A37503A82AF0DDF9237D834265
S2140085D018BFA77503A82AF0B8F9074602A82AF01C
S2140085E0B4F9874218BF002303A818BFA3752AF062
S2140085F0B4F9074602A82AF0B0F987421CBF002348
S214008600A375D4E703A82AF0A0F980B1EB6B022289
S21400861030465B6904A9984704A82AF0A5F90346E2
S214008620207D032839D8DFE800F03838040903A88D
S214008630F3E7CC22237E04EBC3031A8401F06EFC1E
S214008640109B187003A8277E2AF073F904EBC7075F
S21400865087F82200237E03A804EBC303B3F8209018
S21400866093F822702AF071F9804603A82AF075F96B
S2140086708246B8F1000F15D0EB6B022230465B69DC
S21400868004A9984704A82AF034F96075637D6BB98D
S2140086900023A3754FF0000838E0227E04EBC202E8
S2140086A01384CBE703A82AF00FF9EEE794F81680B8
S2140086B0B8F1000FEED0B9F1000F09D1DFB10123F8
S2140086C0E375637E002B4FD1012F42D1677614E00D
S2140086D06B6C06EB0A015A4286EA010010421CBF88
S2140086E00022A2755A1E0A409B1A9945D0D8A37D2F
S2140086F0002BE3D1CEE7E37D43B94FF000084B46AD
S21400870052463146284629F039FEA060A27D12B1B5
S21400871023694B4423611A49237E097899422AD952
S21400872001332376BBF1000F27D032B3E37D23B3AA
S214008730B8F1000F21D1032F1FD0A1684B1C1CD00D
S214008740109B2246009328460123FFF7F9FEA075EA
S21400875013E095F8343063B9EB6A0133CFD1032FB9
S214008760CDD10123A376C8E7012FCFD0032FC4D1E4
S214008770F7E79846C3E70023A375A07DFFE600BF92
S214008780E06804002DE9F04F0E46984600238BB0B3
S21400879004464FF0FF31104617468DF8133001F0AF
S2140087A0A7FBB6F5801F20D2314605AA04F10800C3
S2140087B02AF00CF8451C014603D1237CBBB92D20BA
S2140087C010E0384601F094FB0122394620460DF1B0
S2140087D0130329F025FE0028EFD09DF8133088F803
S2140087E0003000200BB0BDE8F08FB01CE5D1E56A84
S2140087F0691C36D12046616A29F006FD0546B31C81
S21400880018BF0123DFF8CC900193636A626C029371
S214008810236805A902FB053AE36B05225B6950460F
S214008820984705A82AF01BF92AF03EF950462AF088
S21400883046F94FF0000B824601464B1C05D0636C90
S21400884081EA0A025B42134211D02946204629F0EB
S214008850DBFC029BAB422CD0BBF1000F2CD10546B3
S214008860D3E72368ED1A636CB5FBF3F5C7E7484614
S21400887001F03EFB0DF1130349462046019A29F00C
S214008880CFFD034690B1B21C03D0D9F80020B24207
S2140088900CD19DF8132003930D4B88F80020494611
S2140088A01A68384613F0AAFA039B9B46D9F80810B4
S2140088B0C3E7BBF1000F82D0B6F5801F91D23146D8
S2140088C098F800307A6804F1080001F03FFA88E76B
S2140088D0DC680400C43B00202DE9F341044617463B
S2140088E098460E46184D816AE36A8B4201D04B1CAF
S2140088F002D102B0BDE8F081284601F0F9FA012263
S214008900294620460DF1070329F08AFD38B1434673
S214008910294620469DF80720B8470028E9D0A968D0
S2140089204A1C04D16968204629F0FBFC0146012E4A
S214008930DAD16B6881EA0302636C5B421A4218BFA5
S2140089404FF0FF31D0E700BF983B00202DE9F04FF5
S2140089504FF0FF334FF6FF720025044600F108067D
S214008960C0E909238BB0C3620562056330468846BA
S21400897029F0FDFE204629F017FC60BB2046414644
S21400898029F092FC204629F00FFC60BB5E200BB05D
S214008990BDE8F08F2368E26B606C576900FB05301A
S2140089A0052205A9B84705A82AF059F80128074660
S2140089B00CD12946204629F048FC012F024600D15A
S2140089C001322946204629F00EFC03E02AF071F811
S2140089D00028EED10135E3699D42DBD3204629F01D
S2140089E0E3FB0028CAD000254FF0FF394FF6FF738F
S2140089F0CA46A846C4E90853E36998450AD3A5EBD6
S214008A000905012D2CD84FF6FF72636A93423CD1BC
S214008A106720BCE72368E26B606C576900FB083090
S214008A20052205A9B84705A82AF019F8834605A81F
S214008A3029F0ECFF074658462AF036F868B1574545
S214008A4038BFC4F82480B94528BFB946BD4238BFF0
S214008A503D46BA46236A0133236208F10108CBE794
S214008A604FF6FF7300256362E3699D42CBD2676CC5
S214008A702068E36B052207FB05005B6905A998479C
S214008A8005A829F0C3FF0135EEE7E26B676C2068A6
S214008A90694607FB030055690522A847684629F082
S214008AA0B5FF626A2368606C4B4D00FB02302AF00B
S214008AB006F84FF0FF33A062E3622A466FF001012A
S214008AC0204605ABFFF75EFE002846D1AD68294676
S214008AD02046E56229F044FB206320B92046E16A7F
S214008AE029F01FFCE0622946204629F01AFC0546BC
S214008AF0A36A9D4233D1204629F005FB0027804615
S214008B00B946E36999453CD3B84559D92046616AC8
S214008B1029F07AFB0026054604F1400AB74212D82F
S214008B20626C2368694602FB0539E36B05225B69C4
S214008B3048469847684629F069FF53460246494624
S214008B40E06B29F0BEFF2946204629F05DFB013682
S214008B50B0450546E2D1642019E7A56AB7E729467D
S214008B60204629F0FDFA236B294603440746236373
S214008B70204629F0D6FB0546002FB9D1C4E90B07DD
S214008B80B6E7636C2568052203FB0955E36B05A968
S214008B905B692846984705A829F061FF29F084FFFD
S214008BA058B1284629F08BFF0146204629F0D8FA0E
S214008BB0636C143B984208BF013709F10109A0E72E
S214008BC0304629F0D4FD002320461946034AFFF715
S214008BD083FE0020DBE600BFF03B00200F240300EE
S214008BE02DE9F041036B9046826B07689A4288BF76
S214008BF08363426C436A90B002FB0377C36B0E46F6
S214008C00052201A95B6904463846984701A829F061
S214008C1026FF01280146307057D0656CE26B23684A
S214008C20606AD2F814C005FB0030052206A9E047AA
S214008C3006A829F014FF01284FF0000523D0D4E938
S214008C400A3201219342CDE90B458DF834800E950A
S214008C508DF83C102AD11946204629F062FB236B7A
S214008C60626C14339B1AE06223630C9B53B99DF825
S214008C703C303BB1626A616C2368E06B01FB0231F9
S214008C8029F0A5FE0C9DE36B05225B6901A9384619
S214008C90984701A829F0E3FE30702846236BA26BA4
S214008CA09A4288BFA36310B0BDE8F081237C33B935
S214008CB01C490BAA04F1080001F096F8D5E72046F7
S214008CC0194A0BABFFF708FECFE7237C23BB2246EF
S214008CD0164904F1080001F087F8616A204629F079
S214008CE0B4FA616A421C204629F07DFA054620B98E
S214008CF0236B626C1344143B23632046A16A29F05D
S214008D0010FB2368A062C01A636CB0FBF3F06062CD
S214008D10204629F049FBB6E700232046044AFFF721
S214008D20DBFDDAE78594000001940000A924030027
S214008D304524030073B50D46D11E4A421C461B7ED1
S214008D404A419A4226D129682368994222D3636809
S214008D5099421FD8114E0DF107033246FFF712FD58
S214008D60C0B972686B689A4214D19DF80730DA1E53
S214008D7053425341227E93420CD1636901336361AF
S214008D80D4E90323934205D22968A26842F8231047
S214008D9001332361012002B070BD00BFF03B00200C
S214008DA02DE9F04F9B4689B09DF848309046514AD1
S214008DB00193136907465B450D46C0F09580D9467A
S214008DC053680093B9F1000F7BD0FB6B01225B69FF
S214008DD005A90098984705A829F0B3FD454B1B68E0
S214008DE0984240F0848005A829F0B7FD042806467E
S214008DF015D105A829F0B8FD009B04461E44019B2A
S214008E00002B3ED1804512D91C46A8EB00083846F8
S214008E10009929F086FAA9EB04090090D2E7FB6BCB
S214008E2002225B69009806A9984706A8E2E7A0EB2D
S214008E3008045C4528BF5C46032C4644ABEB040B99
S214008E401DD9FB6B294630465B69A208984724F07B
S214008E50030304F0030A1E441D44DDF80480BAF13F
S214008E60000FD4D0FB6B012206A930465B699847F9
S214008E705246284606A912F0C1FF5544C7E7A24647
S214008E80EBE7824600F0030302932B180393064495
S214008E90039BA6EB0A00A3EB0A05029B9A4514D196
S214008EA0BAF1000FB3D0FB6B012206A95B699847A5
S214008EB05246284606A913F07FF90028DDD04FF069
S214008EC03609484609B0BDE8F08FFB6B012206A9BB
S214008ED05B6998470422284606A913F06DF9002816
S214008EE0EDD1AAF1040AD3E74FF06309E9E74FF0A2
S214008EF06F09E6E71C3C00202DE9F0410F461646B8
S214008F009846044688B060B390F83450FDB101210D
S214008F1029F03FF900210E9BCDE90511CDE9023776
S214008F209DF83C30CDF804808DF81C30237C0496E8
S214008F308BB90D4901AA04F1080000F055FFDDE9E0
S214008F400553E06B002E08BF1D4629F0BBFA2846E5
S214008F5008B0BDE8F0812046044A01ABFFF7BCFC30
S214008F60EDE70546F3E700BF73240300358D0000E8
S214008F707FB590F84260044601920DF10B030A4655
S214008F803046114929F0A6FA012E0546E36B17D1A3
S214008F9032465B6903A998479DF80B10039B019A1C
S214008FA059B19BB243EA0243012228460393E36B7E
S214008FB003A99B69984704B070BD62F30F03F3E7FB
S214008FC001229B6901A9F5E71C3C00202DE9F04F22
S214008FD099B00E460D920A69416C0B931439D31D55
S214008FE0B3FBF1F3013302EBC302036B0446934277
S214008FF0C0F001820023DFF804940893E36A484631
S2140090001946059300F074FFD6E9033707930B9BC8
S214009010022B4DD1CC2F40F0D7810D9B3BB1314672
S214009020204629F0ADFA656C1490012044E001203A
S214009030079B656C1B68149300F0010000280CBFAA
S21400904004230823782F0E9349D8059A6B1E1340E5
S214009050ED1A3B1D9D423CD2002F3DD0082D3ED838
S2140090600023042506934FF0040A336806990B98EC
S214009070C9F80030C9F8107029F089FC4FEA9A0345
S2140090800F93059B89F814000393002309930C9310
S21400909004930A93616C039B4A1E1A408B1A27B3EB
S2140090A05544AB4223D8236B5B1A134423632FE14A
S2140090B0782F656CB9D8F07D0D9B002BBCD0E36B88
S2140090C001225B69706816A9984716A829F03DFC2E
S2140090D0B4E700250695C6E704250697C3E70123EF
S2140090E000254FF0080A0693BFE75345DBD3A3EBF2
S2140090F00A029742039BB84628BF904697425344BD
S21400910028D90122D9F8101089F817208F4226D1C5
S2140091100399C9F80410049299F817200AB399F82D
S21400912018100398CA1C09EBC2025060049801315B
S214009130A2F80880907289F81810B8F1000F07D0CE
S2140091400B9A022A40F08180099A72B10122099294
S2140091509B46ABE0049A002A18BF0322DBE70222F4
S214009160D9E7039AC9F80420E7E70C9A4244032A91
S214009170EED9E26B1846956914A901220993A8470F
S214009180099B05460028E1D03D2D40F01E8104F1E4
S214009190080303932368059A606CA2EB030ABAFBE4
S2140091A0F0FA00FB0A3029F08AFCE16A8046204685
S2140091B029F0B7F8A26A824200F00F81626CD9F8F3
S2140091C00830511E0B40216B2768891A0B44236315
S2140091D0089BE062DF1BB7FBF2F7BA4540F0FA8067
S2140091E0059BB3EB080A12D0E36B4FEA9A0241469E
S2140091F09B6998478346E36A059A5344E362236B68
S21400920003989B1A4344236329F0B1FADA4623688D
S214009210616CE06B01FB073129F0C6FB204628F0A5
S214009220C3FF204629F0C0F82063BAF1000F00F013
S214009230D4803269616CD31D1439B3FBF1F301336A
S21400924002EBC3029042A5D2BFE00D9A002A77D166
S214009250B8F1030F4FEA98026ED9E16B18468D6994
S21400926007991093A847109B0546C0B918F0030548
S21400927015D0079A28F0030B02EB0B019B444FF026
S214009280FF3215A815922A46109312F0B7FDE26B2E
S2140092905846956915A90122A8470546109B9B4686
S2140092A0079A42440792002D40F08B80049B16A834
S2140092B00193069B009399F814204346316800F00A
S2140092C0CDFDE36B0F9A9B69039816A99847039AFE
S2140092D0051E089B18BF1346089343465246204671
S2140092E0039929F04BF8236B08F10302A3EB0A035A
S2140092F022F003029B1AC9F808002363002D7FF4AE
S21400930043AF0C9BA7EB080743440C93CDF80CB077
S2140093102046039929F005F800250390002F7FF4D6
S214009320B9AE364A3168936804F10800E3625268C1
S2140093300B9B00F00BFD49E09B46454607999EE7D0
S2140093409B4606F120021092F27D7068A2B10022C0
S21400935096F818C00A99D5B2AC4511D9109D02F1FD
S214009360010E35F832508D4228D90E9806EBC2020F
S2140093700144D069084403E00E9A0A990A4410444E
S214009380E26B15A9556901221193A847159A0A9B05
S2140093901392E26B043395695846012213A90A9387
S2140093A0A847119B054603EB0802A2EB0B02042A12
S2140093B07FF679AF28B90BF1040BC5E77246491B57
S2140093C0C9E7CDF820B088E770252F46384619B093
S2140093D0BDE8F08F4FF0000A19E73269616CD31DC3
S2140093E01439B3FBF1F3013302EBC302236B934250
S2140093F0BFF404AEE9E71C27E8E700BFC43B002043
S214009400032A2DE9F34106460D4617461C4606D1AB
S214009410237A012B23D0012002B0BDE8F081DFF8CB
S2140094206080096842460DF10703FFF7ABF96060FC
S2140094300028EDD19DF80720237A032AE8D0D8F833
S21400944004106A689142E3D1012B2969D4F80CC054
S21400945007D172690CEB0103934202D92074207C79
S214009460DAE708316144E1603B460122294630468E
S214009470FFF7ACFD60600028CAD00020CCE700BF34
S214009480F03B00202DE9F341089C032A1746266886
S21400949006D1237A012B24D0012002B0BDE8F0814A
S2140094A0DFF89080304642460DF10703FFF76AF971
S2140094B060600028EDD12568D8F80400A96AD5F8C0
S2140094C044C04840CCF100031840227AE1D1012A7A
S2140094D009D1E268D8F8103013447269934202D971
S2140094E02074207CD9E72868EB6A1B1A081AB3FB9D
S2140094F0FCF3B0FBFCF083420BD1706CF36A421EA7
S2140095001340326B121A13442846336328F009FFBF
S214009510E862D8F81020E36808321344E3600122BA
S2140095203B4604492068FFF751FD60600028B0D034
S2140095300020B2E7F03B00202DE9F0410025604B0B
S2140095400E46D3F8008004461D6018B9212528462B
S214009550BDE8F08190F8347007B30A6803689A4251
S21400956040F0A3804A6843689A4240F09E808A682A
S21400957083689A4240F09980CA68C3689A4240F06D
S21400958094800A6943699A4240F08F808A69C36B67
S2140095909A4240F08A804B698361D8E76822394650
S2140095A0856B12F09BFAD6E90212336804F10800C4
S2140095B023607368A5636360336963617369A3613D
S2140095C029F0E7F8B36904F14000E3639B68984725
S2140095D020B9676C17B16368B3FBF7F794F84330AC
S2140095E0E761002BB2D00023656C2366002D64D0A3
S2140095F0002F62D02368B3FBF5F205FB1233002B75
S21400960055D16668B6FBF5F305FB1363002B4ED108
S214009610204628F095FDA369043303449E4248D3B0
S21400962040F634726369CC3B934244D8B5F5805F0C
S21400963043D30321204628F0ACFDD4E90001E36BB8
S2140096401B6898470546E36B0220DB689847CDB950
S21400965041462046FFF77AF96428054604D141467C
S2140096602046FFF773F90546666C5DB9236A204607
S214009670143E5E4328F064FDA369043303449E420F
S21400968038BF5A25002D0CBF0123002384F8343040
S21400969007D1D4E900010B4A13680133136029F09F
S2140096A012F9E06B28F00EFF51E75D254FE75925CC
S2140096B04DE75A254BE75F2549E75B2547E700BF9F
S2140096C054350020503500202DE9FF410C46164643
S2140096D01F46054680B390F834307BB3B1F5801F43
S2140096E02ED2DFF86080012128F053FD2146424645
S2140096F028460DF10F03FFF745F8044670B99DF8AC
S2140097000F30012B11D1D8F81030BB4212D10246CF
S214009710009031462846FFF743FB0446E86B28F0E6
S214009720D1FE204604B0BDE8F081022B14BF2D24E4
S2140097306024F3E76324F1E72124F2E71124F0E73D
S2140097402924EEE71C3C00202DE9F04385B00C46AA
S21400975017461E460546DDF8308098B390F834303C
S21400976093B3B1F5801F31D2DFF86490012128F061
S21400977010FD21464A4628460DF10F03FFF702F872
S214009780044688B99DF80F30012B14D1D9F8102063
S21400979006EB08039A4213D30090434632463946F6
S2140097A02846FFF7FDFA0446E86B28F08BFE2046B5
S2140097B005B0BDE8F083022B14BF2D246024F3E728
S2140097C06324F1E72124F2E71124F0E72924EEE7E9
S2140097D01C3C002073B50C461646054630B390F880
S2140097E034302BB3B1F5801F24D2012128F0D1FCF0
S2140097F021462846104A0DF10703FEF7C3FF04462C
S21400980080B99DF80730032B0CD0022B0CD12846CC
S214009810094928F0B5FE3060E86B28F053FE204674
S21400982002B070BD2D24F7E76124F5E72124F6E7A2
S2140098301124F4E72924F2E71C3C00202DE9F3412B
S2140098401E4600230C4617460546336050B390F874
S21400985034304BB3B1F5801F28D2DFF85480012195
S21400986028F097FC2146424628460DF10703FEF7EE
S21400987089FF0446A0B99DF80730032B10D0022BB1
S21400988003BF01233B600423D8F8103018BF3860AC
S2140098903360E86B28F016FE204602B0BDE8F08183
S2140098A02D24F6E72124F7E71124F5E72924F3E72A
S2140098B01C3C002073B50446056B28F041FC636E23
