S01B00006275696C642F72656C656173652F7A69676265652E73333714
S21400600008100020419B000061E30000AB6B03001A
S214006010AB6B030069E3000071E30000AB6B0300A9
S214006020AB6B0300AB6B0300AB6B0300AB6B030007
S21400603075E30000D8AE0400AB6B0300AB6B030047
S214006040AB6B0300AB6B0300AB6B03001196000059
S214006050AB6B0300AB6B0300AB6B0300AB6B0300D7
S214006060AB6B0300AB6B0300AB6B0300AB6B0300C7
S21400607019E90000AB6B0300AB6B0300AB6B0300CE
S214006080AB6B0300AB6B0300AB6B0300AB6B0300A7
S214006090AB6B0300AB6B0300AB6B0300AB6B030097
S2140060A0AB6B03000D9F0000ED9E0000AB6B030082
S2140060B0AB6B0300F1270200AB6B03005532020006
S2140060C0ABC40300A7C40300312A0200C1C4030006
S2140060D0AFC4030025320200B3C4030095320200A9
S2140060E001390200FD15020001330200AB6B03000C
S2140060F0AB6B0300AB6B0300AB6B0300AB6B030037
S214006100AB6B0300AB6B0300AB6B0300AB6B030026
S214006110AB6B0300AB6B0300AB6B0300AB6B030016
S214006120AB6B0300AB6B0300AB6B0300AB6B030006
S214006130AB6B0300AB6B0300AB6B0300AB6B0300F6
S21400614082B030BF074BD3F8F030DB0704D500230E
S2140061500193019B052B01DD02B07047019B0133C3
S214006160F6E700BF00ED00E0F0B5114A114C124E04
S21400617000F00105E3695F0713D40DB9334213D16C
S21400618003EA00078F4207D10B4A1A40002A14BFC1
S2140061906FF001000020F0BD013AEBD16FF0020075
S2140061A0F9E74FF0FF30F6E76FF00100F3E700BFC6
S2140061B08096980000000350020001000B4B70B55B
S2140061C0D96911F480310DD101244FF48072084E44
S2140061D0084DF46020462C641A61FFF7C5FF34644E
S2140061E0EC6070BD6FF00100FBE700BF00000350DD
S2140061F000100350002003504FF4003238B50F4B08
S2140062000F4C9A6641F671330122E569E3630D4B44
S2140062100021DA60022360612120236105F48035C5
S214006220FFF7A2FF10B92120FFF79EFF0122064BC1
S214006230DA600DB10023E36338BD00BF0090005064
S21400624000000350001003500020035070B5134C9C
S2140062506061E3695B071ED40E4656F8043B8D1852
S214006260A361AE420BD10423002121202361FFF756
S2140062707BFF58B9BDE870402120FFF775BF0821A5
S2140062800846FFF771FF10B10423236170BD56F86E
S214006290043BA361E5E74FF0FF30F7E7000003504B
S2140062A02DE9F84315464FF40032184B89469A6696
S2140062B041F6713203F51C33DF69DA6301220646C4
S2140062C003F58053DFF84C8007F48037DA6055B961
S2140062D0284601220E4BDA601FB10022A3F50053B8
S2140062E0DA63BDE8F88306F5005404EA0804A41B44
S2140062F0AC4228BF2C46494622463046FFF7A6FF4A
S2140063000028E6D12644A1442D1BE0E7009000506B
S20C0063100020035000E0FFFF2F
S2140063182DE9F04F4FF0FD0BC9B09A460DF11B0959
S2140063289DF8503108AFCDF80C90CDF808B001971D
S214006338059303890446009383790E469046418860
S2140063488288407811F094FF054650B10090A388E3
S214006358002062883A4912F0CFFA284649B0BDE8CC
S214006368F08F99F8000033F076FB38B12846A388FA
S2140063786288344912F0C0FA8D25EEE75A46394647
S21400638899F8000033F00FFB8346002851D0529B43
S2140063981BB1BDF84C3198424BD8002399F80090B1
S2140063A80793A9F14102012A5FFA8BF123D83846F0
S2140063B80139254ADFF898C05FFA81FE734513DB7A
S2140063C8059B04210792C3B907AF18221F489FED03
S2140063D81A7B02FB060420460A460830394684ED36
S2140063E8027B17F00BF911E010F8011F013351403A
S2140063F80CFB01F2E2E7059B33B123464A463846D2
S21400640800960FF05DFEA8E70829DED9B8F1000F60
S21400641801D088F80090BAF1000F01D0AAF800B0B1
S214006428529B002B99D05A46184608A917F0E6F84A
S21400643893E7012591E700BF000000000000000078
S214006448CF58040004590400C59D1C818010002004
S21400645893010001000000002DE9F04F93B0CDE94C
S2140064680A32DDE91C530E9353EC102BCDE90801D4
S214006478104619468DED060B1E9E16F049FB80B198
S214006488DDE906014FF0FF32C54B16F069FB40B94F
S214006498DDE906014FF0FF326FF4801316F042FB79
S2140064A870B1DDE908019DED060B0E9B1E96CDE941
S2140064B81C53DDE90A3213B0BDE8F04F00F088B986
S2140064C80022DDE90601002316F02CFB002800F068
S2140064D83381DDE906A303F1004BCBF30A5016F42B
S2140064E88063A0F2FF3008BF06250F9316F03EF82B
S2140064F89BA3D3E9002316F0A3F89BA3D3E90023B4
S21400650815F0E8FECBF31304894644F07F51804625
S2140065180022A44B504641F4401115F0D9FE94A32E
S214006528D3E9002316F08CF802460B464046494647
S21400653815F0D0FE16F01EFB044616F017F88EA3CC
S214006548D3E900238046894616F07AF80022964B4F
S21400655815F0C0FE16F00EFB89A3D3E90023074604
S2140065684946404616F06CF880463846894615F087
S214006578FDFF85A3D3E9002316F062F802460B4612
S2140065884046494615F0A4FE02460B46CDE90C23C4
S21400659816F056F8DDE90C2380468946104619465B
S2140065A815F098FE0022CDE91001804B404649467A
S2140065B816F070F900227E4B15F08CFE02460B464C
S2140065C84046494616F066F900227A4B15F082FED8
S2140065D802460B464046494616F05CF9DDE90C23B0
S2140065E88046894600204FF0804115F071FE02462D
S2140065F80B464046494615F06DFE02460B46DDE959
S214006608100116F047F907F2FF3700226A4B15F01B
S21400661861FE00223B0516F013F852465B4680469C
S214006628894616F09DFA002840F08980CDE90C8945
S21400663804F16303C62B8CBF0527042731051BD539
S21400664853A3D3E900235046594616F07FFA00288C
S2140066587FD051A3D3E900235046594616F062FA74
S214006668002876D00027A542C6BF2C1B04F1FF35AC
S21400667800253C4646F480660E9B9F422CBF4FF092
S2140066880008A3EB070816F0020903D0002F18BF6E
S2140066984FF000083CB1DDE90C235046594616F089
S2140066A8F9F882468B46DDE906010022002316F03B
S2140066B839FA10B10BF100439B46DDE9080126F4D0
S2140066C80063CDE90183DDE90A324BEC10AB009597
S2140066D800F07EF802465FB3DDE9091316F0200FD6
S2140066E800F10105089E0CBF65204520B047DDE98E
S2140066F808010523002205930A23002CCDE902325F
S21400670807F1FF374FEAD473B8BF64422A460193AD
S21400671804970A9B009435F00CF90246B9F1000F6D
S21400672806D00B9BC41A0B9B1A190E9BA34245D87E
S214006738104613B0BDE8F08FDDE906ABCDE60022C3
S214006748404649461A4B16F0A5F8013CCDE90C011F
S2140067586EE7002D90D00F9B002B8DD0013D8BE768
S214006768FB799F501344D33FB3C8608B288AC63F33
S21400677861436F63A787D23F71A379094F930A4095
S2140067881655B5BBB16B0240EF39FAFE422EE63F0E
S2140067982D431CEBE2361A3F0000000080842E4191
S2140067A8FFFFEF7F0000F83F0000E03F00002C40AE
S2140067B800002440000018400000F03F2020DDE9DB
S2140067C80913089DA8470134ADE700BF0000000084
S2140067D82DE9F04F5BEC10AB97B0CDE90501DDE98C
S2140067E82058CDE90723504652465B465946229F15
S2140067F816F08EF970B90323CDE902870193AA4BE8
S2140068080093DDE90501DDE9072334F0C4FF17B07E
S214006818BDE8F08F4FF0FF326FF4801350465946AC
S21400682816F080F928B10423CDE9028701939F4B1F
S214006838E6E74FF0FF32504659469D4B16F090F962
S21400684868B19C4A07F00403002B08BF03229A4B42
S2140068581CBF13460422CDE902870192D0E75046B2
S2140068688DA3D3E90023594616F07AF938B98CA3D4
S214006878D3E900235046594616F054F968B1DDE9C5
S2140068880723DDE905014BEC10ABCDE92187209500
S21400689817B0BDE8F04FFFF7DFBD002200235046D3
S2140068A8594616F03FF9002800F091805B4652469C
S2140068B80020002115F00CFD012382468B46099323
S2140068C817F4806400F08580092D40F28580002446
S2140068D830210EABA5F109020134202C03F8011B68
S2140068E8A5EB040901D09442F6D15946504616F055
S2140068F841F9724B054603EBC90393ED007B8DED1A
S2140069080A7B15F033FE02460B465046594615F0EC
S214006918DFFCDDE90A2315F093FE02460B46CDE9B7
S2140069280C2316F04FF9064615F010FE02460B46E5
S214006938DDE90C0115F0CCFC02460B46CDE90C232C
S21400694800225F4B16F00CF9002848D00136304676
S21400695815F0FCFD02460B46DDE90A0116F0ECF8D8
S21400696808B100260135B9F1000F45D1284615F0C3
S214006978FDFD02460B465046594615F0A9FC002276
S2140069884F4B16F0CFF810B9E90700D501350A21A4
S2140069980EAB1A19202C0AD095FBF1F001FB105506
S2140069A8303502F8015B013405460028F2D107F0BD
S2140069B80302012A55D1B8F1000F52D0099A12B92C
S2140069C817F00C0F01D008F1FF38302240E009908C
S2140069D876E74FF0060988E7A946002485E70022EF
S2140069E8DDE90C01364B16F09DF80028BBD10EB138
S2140069F8F007B8D50136B6E70A210EAB1A19202CCF
S214006A080DD0B6FBF1F001FB1063092E03F130033D
S214006A1809F1FF3904F1010402F8013B11D83021CD
S214006A28A1440EAA202CB2D04C4504F101030AD189
S214006A3804F158020DEB02042E2204F8202C1C4602
S214006A48A5E70646DBE7A1541C46EBE71A550134D2
S214006A58444506D2202CF9D1CDE9028701940EAB25
S214006A68CEE6202CF8D0099B3BB12D2204F1580322
S214006A786B4403F8202C0134EEE77A0704D504F1BA
S214006A8858032B226B44F4E73B07E5D504F158037B
S214006A9820226B44EDE700BF0000000065CDCD4125
S214006AA80000000065CDCDC152760400567604007D
S214006AB8FFFFEF7F497604004E760400D0BD040041
S214006AC80000E03F0000000070B58EB02C220021C8
S214006AD803A816F003FC64234FF002320893CDE9AE
S214006AE805230B2301218DF834305B4B8DF81010ED
S214006AF81D880D4040F0A980084639F0FFF90A22A3
S214006B08564B574C1A704FF42873ADF812304FF0A6
S214006B18FF332360534B54491B8820460B82534B44
S214006B28534A1B68CD828B61524B0D621B884B8281
S214006B38514B1B68CB611CF0ABFC20B14FF41B71AA
S214006B484E483AF0AEFA0521206835F050FD20B1DF
S214006B5840F27D2149483AF0A4FA206815F074FB03
S214006B68474B2068196835F0BCF80C2539F02EFE1E
S214006B786843099039F02AFE68430DEB0501079033
S214006B88206817F047F820B140F295213B483AF0C4
S214006B9888FA25681FF018FA00220146284635F0BC
S214006BA818F920B140F2972134483AF07AFA40F2C0
S214006BB80353344D344E2B80052396F90000AB70F2
S214006BC87F2801D11CF04CFF3378EB7039F0FEFDBE
S214006BD800EB80008000A88039F0F8FD0023C00094
S214006BE84FF0FF31E880AB604FF0FF3018A3D3E9D1
S214006BF8002339F0D5FA2549206835F0A3F820682F
S214006C0802A935F09BFD20B14FF434711B483AF0C9
S214006C1848FA042220680DEB020135F037F80428FC
S214006C2804D040F2D72115483AF03BFA01A90120D2
S214006C3834F002FC07F0D4FB01201DF0A3FB30F073
S214006C489EFD1DF0C9FB1CF0A3FE0EB070BD00BF74
S214006C580A0020FF42030000E65B00204463002091
S214006C6818540020F4D60400446A0020FCD6040019
S214006C782DFF0300F2D60400F8D6040081AD040008
S214006C888C6700200C540020606D0020A1FF0300D4
S214006C980348044B834202D0034B03B1184770479E
S214006CA8946D0020946D002000000000064B0749F4
S214006CB8C91A891048BF0131491003D0044B0BB1DB
S214006CC801481847704700BF946D0020946D002057
S214006CD80000000010B5064C237843B9FFF7D8FF2C
S214006CE8044B13B10448AFF300800123237010BD92
S214006CF870160020000000003412050008B5044B8A
S214006D081BB104490448AFF30080BDE80840CDE74E
S214006D18000000007416002034120500A3F5803A1F
S214006D28704700BF154B002B08BF114B9D46FFF759
S214006D38F5FF00218B460F461148124A121A16F024
S214006D48CDFA0C4B002B00D098470B4B002B00D0ED
S214006D5898470020002104000D000B4816F004FE9A
S214006D6816F094FA200029002FF05CFC16F0EAFDD5
S214006D7800000800000000000000000008100020C6
S214006D8808100020A8630020D9D9010007B5012102
S214006D9820200DF1070201F029F850B1012120202A
S214006DA80DF107028DF8071001F030F803B05DF812
S214006DB804FB9DF807100129F8D00122084815F0B1
S214006DC86FF901210DF1070220208DF8071001F058
S214006DD81DF82FF0BAFB4FF4FA6000F04FFEE5E717
S214006DE81015040038B501F0CFF9012805D001F0D8
S214006DF8CBF9022801D001F0EDF9064D2B783BB906
S214006E0801F0C2F90128044602D12FF002FC2C70CA
S214006E1838BD00BFD25C002010B5044600882FF0AD
S214006E2867FBA37884F84400834202BF0123E3701B
S214006E382371074B04F11C00C4E9073401F02CF851
S214006E48224620880349BDE8104000F069BF00BF0D
S214006E588F6203005962030070B5C37804460D4676
S214006E681646002B34D1D1B1214815F019F9012363
S214006E78E370E36CA6600BB1E06D9847E368F61A1A
S214006E8863699E4221D2217E1A480131C9B2217611
S214006E9815F006F9A36D13B1217EE06D9847E570ED
S214006EA82FF06BFB15B3237903BBA268238A801ADD
S214006EB883421BD801231048237115F0F1F8236D7F
S214006EC8A3B1E06DBDE87040184701232376E6E7D6
S214006ED80029E4D1094815F0E3F8636DE660E5702B
S214006EE82571002BDBD0E06D9847D8E770BD00BF52
S214006EF838150400491504007715040064150400C5
S214006F0870B51E46838804460D46C18002810BB1C3
S214006F18868070BD817800882FF0D6F90123E3704B
S214006F28064BA680C4E903340C34204600F0B4FFB0
S214006F3829462046BDE870402FF016BBDB620300EA
S214006F4810B501790446B1FA81F1008849092FF095
S214006F5832FA21796088B1FA81F149092FF02BFAC3
S214006F68034B1A68A24204BF00221A6010BD00BF75
S214006F788C16002070B543790446A3B100880E4EDF
S214006F8804F10805336813B10C4B1B786BB12179F3
S214006F982FF011FA64210A4B3460A3602846BDE836
S214006FA870402FF0E1BA4088E9E7064815F078F80F
S214006FB8054B3221A360F1E78C160020D35C002035
S214006FC8496F00008D1504007D6F000010B504465B
S214006FD8E0B10F4815F064F801236371A37953B93B
S214006FE8217920882FF0E7F9236B7BB1606B0121AC
S214006FF8BDE8104018472046FFF7A2FF04F1080036
S2140070082FF0B7FA2046FFF7B5FFEDE710BD00BF33
S214007018C315040010B50446F8B1104815F040F83A
S21400702800236371A3796BB921792088B1FA81F1BD
S21400703849092FF0C0F9236B7BB1606B0021BDE8CE
S214007048104018472046FFF77BFF04F108002FF092
S21400705890FA2046FFF78EFFEDE710BDCE15040028
S21400706810B5044668B1074815F01AF86379204643
S2140070781BB1BDE81040FFF7CDBFBDE81040FFF7D5
S214007088A5BF10BDDA15040010B50E4C0E482146F3
S21400709815F006F882210D4815F002F88221022024
S2140070A8A21E00F0B3FE014630B134F8022C0848A0
S2140070B8BDE8104014F0F4BF0648BDE8104014F0D0
S2140070C8EFBF00BF6A550020E91504000416040047
S2140070D80F1604005316040038B5114C82212246B8
S2140070E8022000F083FEA51C014688B122880D48C0
S2140070F814F0D6FF2A460C4B03F12C0153F8040B68
S2140071088B4242F8040BF9D11B7813702C2323808A
S21400711835F8021C054A0648BDE8384014F0C0BFDA
S214007128685500205E160400DE1604006A55002026
S214007138BC160400034B1B781BB18B4201D82FF0FA
S21400714804BA7047026D002010B5044601460E4882
S21400715814F0A6FF012C11D10C4B0D481A884FF6D7
S214007168FF739A421EBF0022094B5A742FF009F982
S21400717801F00AFEBDE8104001F0DCBC0448BDE89A
S21400718810402FF000B900BF0B170400B46C0020A5
S2140071981867002070B500241A4D1B4E3378A3429A
S2140071A81BDC0024194D1A4E3378A3421BDC00243E
S2140071B8184D194E3378A3421BDC00F0E5FF012872
S2140071C816481CD12FF0DDF801F0DEFD01F0B2FC08
S2140071D8BDE87040124800F0F7BF2846FFF71CFECF
S2140071E801346035DAE728462FF0B1F80134343533
S2140071F8DAE728462FF0E4F801343835DAE72FF0D6
S214007208C2F8E5E7F0210020D95C0020102600200F
S214007218DA5C0020C01F0020D85C00201867002019
S214007228517100002DE9F04F87B0FFF755FFB34BBB
S21400723805A805932FF0E8F8054615F04BFFB04C67
S214007248C2B21F2A627004D9AE4814F029FF00F0B3
S21400725809FC2946A01C16F0D1F905A82FF0D4F889
S214007268054615F037FFC2B21F2A84F8212001D937
S214007278A548EAE7294604F1220016F0BFF905A852
S2140072882FF0C2F83226044600272578002D40F055
S21400729892809E4CFFF77EFF2378DFF8ACA2DFF8DB
S2140072A8AC829B4E00939AF8003098F8002031780C
S2140072B8984814F0F5FE327898F800109AF800000E
S2140072C853180344944F20782C4603443846DBB2C0
S2140072D8AA4200F3D782012B38BF0123DFF840B259
S2140072E802935A4600235D464FF482714FF6FF74A8
S2140072F802980133834213705180948002F10C0285
S214007308F6DB864B86497E48AB6001F049F8E8799B
S214007318AB6800EB400003EB800000F0B1FDEB79B2
S2140073280133EB717F4B1B88A34203D07C497E4810
S21400733801F03AF94FF00009784C32784A4500F3E4
S214007348CB8200274FF00C09784ADFF8D4B198F8BA
S21400735800003178B84200F3D48247180C21002583
S21400736801FB07B19AF800009423A842704A00F37C
S214007378E6820C2598F8003000274FF0700836781B
S214007388DFF8CCA11E44064405FB06B55F4B1B7808
S214007398BB4200F3E7820299614800F0FFFD059BB7
S2140073A856491A468B4240F0F082624807B0BDE85C
S2140073B8F04F14F075BE532D0FD163784C2B40F068
S2140073C84781A378502B40F0438101225A4B1A700C
S2140073D805A82FF019F8044657E7442D13D163780B
S2140073E8303B092BF4D8601C2FF01BF8534B544A3B
S2140073F81978002386B2994202F16002E8DD22F885
S214007408466C0133F7E7422D0BD16378542B55D1E0
S214007418A01C00F0D3FC434B188018462EF0F5FE4F
S214007428D6E7582D34D8412DD2D9433D152DCFD87F
S21400743801A353F825F000BFFB770000D9730000BE
S214007448D9730000D9730000D9730000D9730000FF
S214007458AB750000D9730000D97300005D75000095
S214007468AB740000D9730000D9730000D97300000C
S214007478D9730000DD76000059760000D973000045
S214007488D9730000D9730000D97300005377000041
S214007498692D9DD1601C2EF0C4FF80B22FF050F8E5
S2140074A896E71B4B0120197800231B4A994202F1E4
S2140074B8B4028DDD02F8B20C0133F7E7601C00F069
S2140074C87DFC0546E01C2FF024F8012102462846DC
S2140074D82EF0DBFF60211948194C037859436218CF
S2140074E865524FF4FA6111824FF44871516115499B
S2140074F856831165013303706AE700BF6A5500209A
S2140075082C6600202A17040041170400D45C0020CB
S214007518D75C002051170400E41C002058170020F0
S214007528E0160020B46C002090160020E41B002013
S214007538281A0020A1170400D35C0020D95C00207C
S214007548F0210020FB630300D55C0020D65C0020F9
S214007558D8180020601C00F031FC00224FF03408D8
S2140075688146CD4F11462EF090FF3878CB4D08FB5C
S21400757800F325F80390EA18E3781046693B18BF2D
S214007588012393702EF0E3FE0021C54A3B78516034
S214007598012103FB08550B443B7015600F46117418
S2140075A816E7601C00F00AFC0022114681462EF001
S2140075B86CFF3422B84DDFF8E482287802FB00F32B
S2140075C828F8039008EB0301E3780846693B18BFE0
S2140075D801238B702EF0BBFEB24A00231046916B37
S2140075E831BB00EB831034232A7802FB03838363C2
S2140075F8AD4A00231046D2F8A410F9B9B42202FB0B
S214007608030034232A7802FB0383C0F8A4305FB94A
S214007618A34A3B46114652F8040BA8B934222878E8
S21400762800FB028241F823202B7801332B70CFE62B
S2140076380133042B02F14002D1D1D9E70133042BE0
S21400764802F1B402D7D1E2E70133042BE3D1EBE72A
S214007658601C00F0B3FB8046E01C2EF05AFF0121A8
S214007668024640462EF011FF60219048904D027861
S214007678DFF858C251436B1825F801804FF448715B
S214007688198259618B495E839965E178B424642927
S21400769804BF012199709CF80030DFF80CE25C43C7
S2140076A80EEB04010EF804304FF400744C800324EB
S2140076B80C718C7102EB420405EB4415322401333D
S2140076C8DBB201324B718D6081F8A04002708CF8F5
S2140076D800307DE6601C00F071FB00224FF0380A8F
S2140076E88146DFF8E08111462EF0CFFE98F800308C
S2140076F8714D0AFB03F325F803904FF00109EA18C9
S21400770882F80490E37873B1E01C00F057FB00227F
S214007718044611462EF0B9FE98F800300AFB0353CB
S2140077285C8083F8069065485E4A0378990153544E
S21400773898F8001002EB8314C1EBC10205EBC205F2
S2140077484A1C656388F80020D4E6601C00F036FB07
S2140077588046E01C00F032FB0546601D2EF0D9FE80
S21400776804460246012140462EF08FFE2246284651
S21400777801212EF08AFE60204FF4487CDFF82CE1C9
S2140077884B4A9EF8003000FB03F422F80480DFF82A
S21400779824811119A1F810C0C1F814C04E83C1F88D
S2140077A85880591CC9B248431418A4F810C0C4F825
S2140077B814C06683C4F8588094241552404D981C0B
S2140077C88EF800002878DFF808C1444303EB43032B
S2140077D801EB41010CEB040E02EB431302EB4112E2
S2140077E80CF80400CEF80430CEF8082001302870D3
S2140077F8EEE5601C00F0E2FA8046E01C00F0DEFAD7
S21400780800220546114640462EF03FFE0022382448
S214007818114628462EF039FE2A48274A03784FF0A4
S214007828000E04FB03FC22F80C804FF0010802EB64
S2140078380C0181F806E081F8048003EB0801C9B260
S2140078484C4302EB040C15539C1C047070241E4D0C
S2140078588CF806E028788CF804804443DFF874C077
S214007868C3EBC303C1EBC1010CEB040E02EBC3036D
S21400787802EBC1020CF80400CEF80430CEF808205B
S2140078884044B4E790F805C001358C4584BF0471C0
S2140078984471B4301CE500BFDA5C002010260020D6
S2140078A818670020E41B0020E41C0020D95C002098
S2140078B8F02100203D710000C01F0020D65C00208B
S2140078C8D55C0020D85C0020D45C0020D75C002063
S2140078D8281A0020D8180020B9F1000F07D01BF886
S2140078E8052C02EB420204EB8204CBF8084059460A
S2140078F8384601F01DFC09F10109B4370BF10C0BF1
S2140079081BE579180AD0481E09FB00B0C07900EBC1
S214007918400004EB800409FB01B08460104609FBB4
S2140079280151039201F0C2F931781C48394409FB29
S214007938015101F0E5F8039A0137403207E5FD42A8
S21400794818BF11F8050C03911EBF00EB400004EBAE
S21400795880048C6003FB052000F0EAFF03990135DC
S2140079680C31FFE4F74218BF15F8053C29461CBF42
S21400797803EB430304EB830408FB07A018BFAC60C3
S21400798800F0ACFE01370C3500E513F8011D0029A0
S2140079987FF406AD3B2102F8011C01E5B41F002068
S2140079A807B5012121200DF1070200F01FFA18B9CA
S2140079B89DF80720024B1A7003B05DF804FB00BF61
S2140079C8026D002007B5064B8DF8070018700121D8
S2140079D80DF10702212000F019FA03B05DF804FB48
S2140079E8026D002007B5022101200DF1060200F005
S2140079F8FDF938B9044814F053FBBDF8060003B087
S214007A085DF804FB0020FAE7BE17040007B502215C
S214007A18ADF806000DF10602012000F0F7F9014660
S214007A2810B1034814F03CFB03B05DF804FB00BF3C
S214007A38DF17040010B5FFF7D5FF044601460748D0
S214007A4814F02EFB0121064814F02AFB24B9BDE8E1
S214007A5810400120FFF7DABF10BD00BF0F18040062
S214007A682118040008B5044814F01AFB00F0DEF9E3
S214007A782EF06BFD2EF065FD3718040038B5044669
S214007A88084D094B28462B6000F006FA002C18BF54
S214007A9821462846BDE8384008BF4FF496712EF0B8
S214007AA863BD00BF14270020496403002DE9F04396
S214007AB8394D93B008AC0746894690460FCD0FC49B
S214007AC80FCD00260FC495E803000323012584E89C
S214007AD80300324C3248CDE90366CDE905668DF8D9
S214007AE80E300796029539F076FA2E4839F073FA72
S214007AF832462D4920468DF8176004F0D3FE3346EB
S214007B0832462A498DF81900009020468DF82390B1
S214007B18CDF82C808DF8216004F0DEFE0A90204611
S214007B288DF8097004F03EFE204608AA05A904F060
S214007B38F9FE02AA204603A92FF09FFD4FF4007213
S214007B481B4B5A62194BE560626A920510D46BB9F2
S214007B584FF40072164B11485A6204F023FE11487F
S214007B6839F03CFA002013B0BDE8F083013BEBE7A0
S214007B78002BEDD0094908A82FF0B2FD4FF400728B
S214007B880B4B06485A6204F00DFE064839F026FAF2
S214007B98BDF82000E7E700BF88AE04000040005AA2
S214007BA8D8B00400D4B0040080841E0040420F0001
S214007BB80060005A0122034B1870034B1980034BD0
S214007BC81A707047DC5C0020BC6C0020DB5C002070
S214007BD8F8B5454B1B780BB90020F8BD434B1B780E
S214007BE8012B03D1BDE8F8402EF02DBC404B1C8875
S214007BF84FF6FF739C42EFD03E4839F0ECF900236D
S214007C08260AE4B21A462146304604F08BFD012EB9
S214007C18354604F0010335D015D9B51E012DDBD83D
S214007C28002B0BBF4FF480754FF080754FF47061D2
S214007C384FF070610BBF01274FF480370F204FF4C9
S214007C4870202D4B11E0002B0BBF4FF480754FF0C2
S214007C5880754FF470614FF070610BBF01274FF4C9
S214007C6880370F204FF47020244B1A6802401CD02F
S214007C78BA421AD01A680A4032D11A6822EA0102B1
S214007C882A4316E0002B0BBF4FF480754FF0807523
S214007C984FF470614FF070610BBF01274FF48037C7
S214007CA80F204FF47020164BDFE71A6822EA00020E
S214007CB83A431A602EF0C7FB054600288CD00836D3
S214007CC844EA06102A460321C0B2FFF7EFFE40F644
S214007CD8FF73684300F2FF70B0FBF3F080B27CE7F6
S214007CE895427FF479AFC8E7DB5C0020DC5C0020B7
S214007CF8BC6C0020D8B0040028C3035020C303502F
S214007D0824C3035010B5044C237823B9034839F02C
S214007D1862F90123237010BDDE5C0020D8B0040091
S214007D282DE9F0431F4C85B0074688469146FFF775
S214007D38E9FF23781BB901F09BFF012323707BBA68
S214007D48ADF80C3030220023174E02FB03F4315DE9
S214007D58A51901BB012333554FF0FF3304F110007A
S214007D6812493044AB606F80C5F80480C5F80C90A3
S214007D7809F092FA04F10801042231440C4B0095EC
S214007D8803A802F04BF8A96802460A4814F088F9D6
S214007D9805B0BDE8F0830133102BD6D1064814F0A1
S214007DA87FF9F5E7DD5C00203C27002073640300BC
S214007DB885640300441804007218040080B1027831
S214007DC8A2F14103032B0BD840783038C0B20828FC
S214007DD806D8054B134413F8413C40EA0320704785
S214007DE84FF6FF70704700BFB0AE040008B50B46EC
S214007DF842B101460448006803F058F9BDE8084057
S214007E082EF098BB022008BD8467002008B50B46F4
S214007E1842B101460448006803F0D0FABDE80840BD
S214007E282EF088BB022008BD84670020F0B5002627
S214007E38124F8DB0FF2300930A223346386802A9F2
S214007E482FF0C0F9C0B102AB1D4603EB800404E076
S214007E5855F8043BB34228BF5E1CAC423868E9D9E3
S214007E68296803F031FC0028F2D02D28F0D00DB098
S214007E78BDE8F0402EF05EBB0DB0F0BD8467002074
S214007E8828B1034B0360034B4360002383607047AD
S214007E98190000032C670020FF2307B50021044AB9
S214007EA80093083009F07CF903B05DF804FB00BFC6
S214007EB86B6503000B4604490246086803490978BF
S214007EC808B12EF061BB70474C2A0020E05C002009
S214007ED8F7B50C4618B12C21194839F0E2F8246891
S214007EE823685E795F8830463946FFF7E3FFF0B1CE
S214007EF88568E5B1A089227D3946904291BF002069
S214007F08801AA36880B294BF03469B18E27C009050
S214007F183046A8470138032803D8DFE800F0080FE2
S214007F280B0D0024204632F000FB204600E081209E
S214007F3803B0F0BD8024F5E79324F3E78724F1E740
S214007F489A180400F8B515460D4A044610680D4AF6
S214007F580B46117850B122462EF016FB034628B180
S214007F6800210C27C678B14201DB0020F8BD07FBCC
S214007F7801F45A681019125BAA42F7D00131F2E7E9
S214007F884C2A0020E05C002008B5034B1B6803B1B0
S214007F989847002008BD00BF482A0020514B2DE90D
S214007FA8F74F1860504B0446197000230D46C21D43
S214007FB819460C209D4208DC20290CDD20224B485F
S214007FC803B0BDE8F04F14F06BB800FB03F6965DFF
S214007FD801333144EEE70026454F33010021F85CB3
S214007FE801360FF033FF0C2EF7D10C2D28BF0C25C9
S214007FF84FF0000901953E4EDFF800A13D4DDFF831
S2140080080081019B4B4502DC03B0BDE8F08F237866
S2140080184FF0000B337063887380A388B380A3790E
S214008028C6F80880B371E379C8F8005088F80430B9
S2140080384FF00003A768A8F80630E3795B450ADC2A
S214008048012116F8100B0FF001FF08F1080809F1D6
S21400805801090C34D5E74FF0000338886B81288077
S214008068FB784FF0000C2B81BA78C5F804A0002ADC
S21400807800920CBF802240222A7379680AF10C020B
S214008088634513DC03EB43030AEB830ABB6843B17F
S214008098009A4FF6FF71B2FA82F2174B520932F085
S2140080A8D4F914350BF1010B0C37C6E7B1F800E02C
S2140080B80CF1010C22F80CEC91F802E00C3202F8F4
S2140080C816EC91F804E00C3102F815EC11F809ECFE
S2140080D8BEF1010F14BF4FF0100E4FF0110E02F84C
S2140080E814ECCDE74C2A0020E05C0020F1180400D0
S2140080F83441002050300020D97E0000502A00204D
S214008108D0320020014B1860704700BF402A00207C
S21400811870B51688044632460D46FFF713FF38B981
S21400812833462A462146094813F0BAFF862070BD12
S2140081380279BDF814309A4205D88168049815F07B
S2140081481FF90020F3E78920F1E700BF1D19040096
S21400815870B5128805460E46FFF7F4FE044670B161
S21400816802790499806815F00BF9064B1B680BB961
S214008178002070BD3146284622889847F8E78620B2
S214008188F7E700BF402A002008B50EF0FBFE0228DD
S21400819806D0012806D0044B18784000C0B208BDA7
S2140081A80120FCE70220FAE7DF5C0020054B10B54B
S2140081B81C682CB1FFF7E8FF2346BDE810401847B7
S2140081C810BD00BF3C2A0020014B1860704700BF56
S2140081D83C2A002070B538F05DFF0B4D04462B781E
S2140081E88BB90A4E336823B147F23052C31A93420A
S2140081F809D9074813F054FF012334602B70BDE8F3
S21400820870400AF0C5BE70BDDF5C0020442A00201E
S2140082184E190400152808B509D100220A4B0B4848
S2140082281A7013F03DFFBDE80840FFF7BFBF1628D9
S214008238F9D1FFF7A9FF0028F5D1054813F030FF5C
S214008248FFF7C8FFEFE700BFDF5C002075190400E2
S214008258A01904000022024B1A70FFF7A7BF00BF40
S214008268DF5C002037B50446002832D00EF08AFEC0
S214008278022830D1608932F0D5FCE079237A0038BC
S21400828818BF0120012B637A08BF40F008000BB125
S21400829840F0100063890BB140F00400257CA188EB
S2140082A8A2790DB1E36873B90C4B10F0ABF92178DD
S2140082B8084610F023FA31F0C1FF002814BF032047
S2140082C8002003B030BDCDE90035054B10F09AF913
S2140082D8EDE70220F5E70120F3E700BFE8650400B4
S2140082E83C35040008B50CF0B1FF014630B104482F
S2140082F813F0D6FEBDE808400DF04CBB08BD00BF25
S214008308D2190400034B044A5B7C01210320137036
S214008318FFF77CBD18670020E15C002010B5044616
S214008328FFF7F0FFB4F57F4F0BD100240F4B1A88E8
S21400833813449C70FEF7A8FE2046BDE81040FFF7E1
S2140083489DBB4FF601739C4204D1BDE81040084817
S2140083582DF0FFBF4FF602739C4205D1BDE81040D2
S214008368044B1878FFF72EBB10BD00BF68550020D9
S21400837818670020026D002010B5074C0121224620
S2140083880320FFF733FD28B92378044A003B18BFBB
S2140083980123537410BD00BFE15C0020186700205D
S2140083A8F8B5574B574C1A884FF6FF739A4218BFC2
S2140083B803234FF0080218BF2370534B32251A7058
S2140083C830229A705A7134229A713122DA71332225
S2140083D85D70DD7036251A724FF400121D714B4D14
S2140083E84264C5644A4D012205654A4D861885656E
S2140083F8494DC667C565494D494E4566494D80F89D
S21400840848208566484D80F854200567474D80F813
S21400841860204567202580F8785080F8845000F161
S2140084282105C0F88850424D80F86C20C0F88C5062
S214008438C0F8806080F89020C0F89440C0F8B83043
S2140084483C4B3D4CC0F8BC300223C0F898403B4C2F
S21400845880F8C030C0F8A4400F24394B80F8A840F4
S214008468C0F8C430374B384CC0F8C8308223C0F840
S214008478AC40364C80F8CC30C0F8B0400924344BB9
S214008488344DC0F8D030344B80F8B440C0F8D430FF
S2140084982C7C324B80F89C20C0F8A00080F8D820AE
S2140084A8C0F8DC3044B12E4B80F8E420C0F8E03049
S2140084B805F11103C0F8E8304FF0000CCA798E6851
S2140084C802EB42039F00443006EB830326F807C0FE
S2140084D8586001200D349870DC701318CB71FFF7C4
S2140084E85FFAFFF749FFFFF74FFE012806D12B7CFE
S2140084F823B1BDE8F84017482DF02BBFF8BD00BFE4
S214008508B46C0020036D0020E25C0020C9AE0400B5
S21400851801002000C8AE040002002000C7AE040018
S2140085280500420003002000C6AE04000400420016
S21400853807003000FDFF2100120010010040420035
S214008548C4AE040000FF4401B4AE040006004200B6
S214008558685500201867002002FF2001026D0020E1
S21400856801FF100113B504460D482DF059FE64228C
S214008578C0F30F43637083B2B3FBF2F3A0782370A3
S214008588202201212EF022F8A078212201212EF0A7
S2140085981DF80449201D02B0BDE810402DF0E4BFC8
S2140085A8B46C0020E09304000B7870B583704CF62A
S2140085B81E0303804FF02013C362012380F8303077
S2140085C880F83C30C3180364124B04464364022305
S2140085D8114A80F84830114B8263C3644063CA79F5
S2140085E88D6802EB420305EB830004F12C06466017
S2140085F80B4E45F8236000238360531CCB71094B50
S214008608201DC4E90134FFF747FC2046BDE870404A
S214008618FFF7A8BFFDFF210021002000CAAE040016
S214008628010001036D850000437B044A0121137095
S21400863800781130C0B2FFF7E9BB00BFEC5C002041
S21400864838B504460078054D11302A460121C0B2D7
S214008658FFF7CCFB08B92B78637338BDEC5C0020B9
S214008668024B53F820002EF067B800BF30330020C6
S214008678012908B506D0022907D049B92EF053F8C3
S214008688002008BD2EF052F8FAE72EF052F8F7E769
S214008698024813F005FD0120F3E700BFFF190400A8
S2140086A810B4054C114654F820001A46BDF804309C
S2140086B85DF8044BFFF7DCBF30330020002310B50D
S2140086C8044683810364A0F844304830FFF7E4FB8F
S2140086D8014BC4E9123410BD2767030038B50446B9
S2140086E80B781A4A43700D4642F82300FFF7E6FF58
S2140086F82046FFF7A5FF4FF4401323610123144AD1
S2140087082375A261134A84F82030E261124A84F87D
S2140087182C306262114A84F83830A26204F10C02E6
S21400872822630F4A04F10D036263E363EA79A868DB
S21400873802EB420300EB830110344C60094C40F80E
S2140087482340094B8B60531CEB7138BD3033002037
S214008758EB5C002008002000046D002000FF3000BD
S21400876801FF100102010104A986000010B470245C
S214008778427B0D48013A012904FB020006D0022973
S21400878808D059B95DF8044B2DF0CDBF5DF8044B01
S2140087982DF0CCBF5DF8044B2DF0CBBF03485DF839
S2140087A8044B13F07DBC00BFD81800201B1A040029
S2140087B8B0F85C302DE9F0418B4204460E4638D0BE
S2140087C8437B077C8BB31C4A12789A422DD37025BC
S2140087D81A4A013B05FB032390F80F801B7B424691
S2140087E82DF0B8FFB845054601D1FF281FD13A46F7
S2140087F83146204694F890302DF0ACFF2F460546BB
S214008808552212216078A4F85C602DF0DFFEFF2F59
S21400881803D039462046FFF7A9FFFF2D09D0294681
S2140088282046BDE8F0412DF0D5BFFF25DFE7074617
S214008838E6E7BDE8F08100BFD45C0020D818002029
S21400884841688268C978D27849B112B10321FFF726
S214008858AFBF837B002B0CBF01210221F7E72AB1AB
S214008868837B002B0CBF02210121F0E7014813F09F
S21400887817BC00BF2C1A0400037BD3B14368DA7810
S21400888812B18268D278A2B91B7933B1837B002BE8
S2140088980CBF04210521FFF78BBF83681B792BB11A
S2140088A8837B002B0CBF05210421F4E7014813F055
S2140088B8F7BB70475E1A0400084A437B052113700D
S2140088C8837B5370C37B9370037CD370037B1371D5
S2140088D800780E30C0B2FFF799BA00BFED5C0020F2
S2140088E838B5044600780C4D0E302A460521C0B22D
S2140088F8FFF77CFA20B1BDE83840084813F0D0BB33
S2140089082B7863736B78A373AB78E373EB78237475
S2140089182B79237338BD00BFED5C00209A1A04003B
S214008928024B53F820002DF09FBF00BF583300209D
S214008938F8B504460B78424A43700D4642F82300C1
S214008948404E2DF0AFFFFFF7CBFF6268A3683E48A6
S2140089583E49D6641165D4655065C3E91410DE64D3
S214008968DC654FF0987302266361012304F10C015D
S214008978E16137491032216204F10D01A1623549DF
S2140089882376E16204F10E016163334984F82430EA
S214008998A16304F10F012164304984F83030616422
S2140089A804F11001E1642E4984F83C3084F848301C
S2140089B8216584F85460A265E879A96800EB40024E
S2140089C801EB820704F1140CC7F804C04FF4817C4D
S2140089D8244F41F82270C218D2B202EB420241F884
S2140089E822C001EB820700227A601F4A84F87030A2
S2140089F822661E4A84F88830A2661D4A1D4BE26627
S214008A081D4AC4F88C3062671C4A8319A26704F1B1
S214008A185C02C4F88020DBB2194A03EB4303C4F8AF
S214008A28842084F8646084F87C6001EB83026034F8
S214008A385460144A033041F82320E871F8BD00BF9B
S214008A4858330020498800003368030081880000F6
S214008A58010020010200100103003001040030016B
S214008A680500210101FC01064A002100CCAE0400E5
S214008A7851001000CEAE0400CFAE04005500210011
S214008A886F0018001200010470B50D46064614461D
S214008A9813460A460146164813F002FB25B9204637
S214008AA8BDE87040FFF73ABC072D05D12146304691
S214008AB8BDE8704000F000BB4FF601439D4205D16B
S214008AC821463046BDE87040FFF72ABF062D05D17F
S214008AD821463046BDE8704000F0A2B8B5F5817F63
S214008AE805D121463046BDE87040FFF7B9BD70BDD8
S214008AF8C91A04000148FFF705BB00BF918A0000A9
S214008B084FF4C01330B5036001230371074B8C681C
S214008B188360CA7902EB420304EB83056860044865
S214008B2844F82300531CCB7130BD00BFD0AE040000
S214008B380400010138B50024044D55F8040B08B1AB
S214008B482DF0C0FE01340A2CF7D138BD8033002042
S214008B58042908B50AD172B16BB113781BB92DF088
S214008B68DCFE002008BD2DF0CEFEFAE7034813F021
S214008B7897FA0120F6E70320F4E700BFFC1A040082
S214008B8810B4054C114654F820001A46BDF80430B7
S214008B985DF8044BFFF7DCBF80330020022902464D
S214008BA808B50ED004D839B910462DF0B6FE06E042
S214008BB84029F9D0412907D110462DF0A4FE0020FF
S214008BC808BD2DF0B4FEFAE7024813F069FA012052
S214008BD8F6E700BF1C1B040010B4054C114654F8F9
S214008BE820001A46BDF804305DF8044BFFF7D6BFE0
S214008BF880330020426B094B52791A7082785A707B
S214008C08C2789A70826B12B190F83C20DA700078BD
S214008C1804210930014AC0B2FFF7F8B8F25C002018
S214008C28024B53F820002DF09EBE00BF8033002074
S214008C3838B504460078084D09302A460421C0B2E3
S214008C48FFF7D4F830B96B78A370AB78E370EB789D
S214008C5884F83C3038BD00BFF25C002038B50446C6
S214008C680078114D09302A460421C0B2FFF7BEF835
S214008C78C8B9A3782A78022B0CD004D863B9204642
S214008C882DF04BFE01E0FF2B0AD02046BDE8384009
S214008C982DF018BE002AF2D120462DF034FEF4E757
S214008CA8002AF9D1EBE738BDF25C0020F8B5044697
S214008CB80B78284A0D4642F823004370FFF7B8FFA2
S214008CC8636B254A5C631A632046FFF7C7FF204696
S214008CD82DF0F8FD4FF4801363600123626BA66BDA
S214008CE80532E2601D4A23722261A21C2375A26126
S214008CF866B11B4A84F82030E261E21C6262194AB7
S214008D0884F82C3004F13C03A26223630627EA7930
S214008D18A96802EB4203002E21F8237001EB8300BA
S214008D280CBF02230423C370012383700E4B043444
S214008D388360531C4460DBB20C4C03EB430341F8DE
S214008D48234001EB830000234360094B0232836013
S214008D58EA71F8BD803300204B69030003403001F8
S214008D6801FF300102FF1001E18B0000080001003E
S214008D78898B000028B1034B1B78834234BF002040
S214008D8801207047D65C002070B500250A4C0B4EB3
S214008D983378AB4200DC70BDD4F8A42042B1237906
S214008DA81BB16079FFF7E6FF10B910462DF0C2FA3E
S214008DB80135B434ECE700BFE41C0020D75C002083
S214008DC808B5427901461046FFF7D4FFA8B1CB781C
S214008DD80A48013A042B00EB82100ED8012B08D85B
S214008DE81BB9BDE808402DF08EBDBDE808402DF043
S214008DF894BDBDE808402DF09ABD08BDE41B0020D0
S214008E0808B5427901461046FFF7B4FFA8B1CB78FB
S214008E180A48013A042B00EB82100ED8012B08D81A
S214008E281BB9BDE808402DF078BDBDE808402DF018
S214008E386ABDBDE808402DF07ABD08BDE41B0020D9
S214008E4810B586B00446FFF79FF9012830D1E278BE
S214008E58042A2DD8DFE802F01332340303006179C0
S214008E680846FFF787FF58B31648032A00EB811019
S214008E7850F80C3C58791DD1003818BF012063788B
S214008E884FF480728DF804304FF48273ADF80630D4
S214008E980623ADF8083001238DF80B3000238DF833
S214008EA80A0001A8CDE903238DF81430FFF7DAF994
S214008EB806B010BDB0FA80F04009E0E70020DEE713
S214008EC80220DCE7E41B002010B586B00446FFF756
S214008ED85BF9012830D1E278042A2DD8DFE802F0C1
S214008EE813133203030061790846FFF743FF48B3BC
S214008EF81548032A00EB811050F80C3C5B791DD10D
S214008F081A1E18BF012263788DF80A208DF80430DF
S214008F184FF48273ADF806300623ADF80830012307
S214008F284FF480728DF80B30002301A8CDE9032397
S214008F388DF81430FFF796F906B010BDB3FA83F231
S214008F485209E0E70222DEE7E41B002010B586B0EF
S214008F580446FFF719F9012812D16378094A8DF8F3
S214008F6804304FF48273ADF806304FF48073CDE9C1
S214008F780223002301A804938DF81430FFF772F932
S214008F8806B010BD0800070110B586B00446FFF706
S214008F98FBF8012820D16278104B8DF804204FF496
S214008FA8827294F8A01094F8A10059701870ADF861
S214008FB8062004934FF480720223094901A88DF80D
S214008FC81430CDE90212FFF74DF994F8A130013BB1
S214008FD818BF012384F8A13006B010BDF65C002047
S214008FE80800050110B58378044603B30379022BFD
S214008FF80AD142791046FFF7BDFE28B10C48013A5F
S21400900800EB82102DF093FCA379022B02D12046A8
S214009018FFF716FF2046FFF7B7FF02236078A4F88D
S2140090286C305522BDE8104012212DF0CFBA10BD85
S214009038E41B00204388094A08211380838853804C
S21400904883681B8A938090F8A03093718379D371D4
S21400905800780430C0B2FEF7D9BE00BFEA5500203B
S21400906838B50D4604460178114813F019F84FF63E
S21400907802739D420ED10F4B1B782BB963712046A5
S214009088BDE83840FFF7D6BF62790AB19342F6D2F8
S2140090980123F3E7B5F57F4FF1D120462DF0E0FC2C
S2140090A8A378022B0CBF01220022A3689A70E6E779
S2140090B8381B0400D65C0020024B53F82000FFF74C
S2140090C8CFBF00BFA833002038B504460078144D3B
S2140090D804302A460821C0B2FEF788FE20B1BDE853
S2140090E83840104812F0DCBF2B8863806B88E9781C
S2140090F8A380AA88A3681A82AB7984F8A030EB7993
S214009108A371094B1B780BB9637138BD09B1994235
S214009118FBD9064812F0C4FF23780133F4E700BFF2
S214009128EA550020521B0400D65C00207B1B040076
S214009138F8B504460B78524A0D4642F823004370A9
S214009148FFF7C2FFA3684F4ADC65DA644E4A022678
S2140091585A654E4AA11C1A654FF44012E260012275
S2140091686161E1624A49103321632365211D494B39
S214009178A16349484949636504F1A003A061E16316
S214009188E365E01C611D464B20626164454846491C
S2140091982366A31D22742277606284F8282084F848
S2140091A8342084F8402084F84C6084F8582084F8EA
S2140091B86420A164A366E979AB6801EB410003EB80
S2140091C8800704F10C0CC7F804C0384F04F1A80C4B
S2140091D843F820704FF48010C4F8A800344884F888
S2140091E8AC20C4F8B0008818C0B200EB400003EB0F
S2140091F88007C7F804C04FF0060C2E4F43F82070BF
S2140092088819C0B200EB400043F820C003EB800783
S21400921800207860284F84F880202767274F84F836
S2140092289820A767264F274AE767274F84F8746071
S21400923884F88C60C4F89C2004F16C06CA1CC4F838
S2140092488470C4F89060214F214ED2B202EB4202DD
S214009258C4F89460C4F8887003EB820670347460AF
S21400926808261C4C43F822400A1DD2B202EB4202E2
S21400927803EB8204053143F822606060E971F8BDAB
S214009288A8330020BF690300096A0300ED8F0000B9
S21400929801FF300104FF20011000300102FF200109
S2140092A805FF300100FF300103FF21010700010818
S2140092B8F85C0020060001014A002100D2AE040036
S2140092C851001000D4AE0400D5AE040055002100AD
S2140092D86F0018001200010400239B6AB3F5C04F04
S2140092E803D21968064A914203D0002303708360AC
S2140092F87047012202709A689B694260F7E700BFD0
S21400930807B0CD5E024B034A1A602EF0F9BD00BFC7
S2140093180000002002020FF073B5534B04461A787B
S2140093281AB102221A7002B070BDCDE900220028D8
S214009338F9D001261E7037F02DFE4C4D4C4B1860A8
S21400934817F0B0F82B785BB902F062FA40B94948D2
S2140093580823494A4949006801F0A8FE00B92E705A
S214009368474B5A6E62619B6E464AA3614FF40043B0
S214009378936603F188435968E16143499960196E19
S2140093882160596E6160D3F87011A160196CE160B4
S214009398596C21613D49086C1864496C596401216F
S2140093A851664FF4005191661A6E560436D5384900
S2140093B8CA68D407FCD45B6E5A0434D5354AD36BD6
S2140093C813F0430FFBD1344B1A68531C31D04FF4BB
S2140093D800139340314A13660423304C68462366CC
S2140093E84FF480632366102323664FF400532366E6
S2140093F84FF0804323664FF4804301A963662DF03F
S21400940847FB009B2366019B63662B78002B8AD05C
S214009418194B1A6822665B68636684E72049CA683F
S214009428D007FCD4C7E71F4AD36B13F0430FFBD112
S214009438C9E71D4B1B78002BCED14FF48072114B19
S2140094485A661A4A52681AB94FF40011134A116636
S2140094584FF400725A66164B5B68002BBCD14FF46B
S21400946880020E4B1A66B7E7FA5C0020FB5C002009
S214009478F033002084670020F433002000710800D1
S214009488008000500090005055CEAC0000C000543C
S214009498000004400000024C506700200090004482
S2140094A8000004500000025CF95C002000C0055073
S2140094B80000065070B52C4D04462E78012E02D0BA
S2140094C801232B7070BD0028FCD02DF006FB013060
S2140094D80BD02DF002FB40F20113984205D0234B27
S2140094E8234A5E66D368DE07FCD4224B22491B6EED
S2140094F813F0040F4FF4005314BF1C4A1F4A936618
S214009508CA6B12F04302FBD121681A4B19666168D0
S2140095185966A168C3F87011E1681964216959642D
S214009528E169C80748BF9A60154B1A6801320DD121
S214009538144A127852B914494968C90748BF1A60CC
S214009548124A5268D20744BF01221A606269104B59
S2140095585A66A2699A6616F0ADFF0E4B186837F081
S21400956814FD0023ADE700BFFA5C00200090004021
S21400957800000440008000440000024C00900050A8
S21400958850670020F95C002000C005500000065017
S21400959800800050F033002070B50024A36AB3F5AD
S2140095A8C04F23D21A68134B9A421FD1124E3378F3
S2140095B813F0FD0518D14FF480341048FFF7ACFEC1
S2140095C8032004F0B9FC0E4B0320DC6004F098FC82
S2140095D80C4B1C61AB6ADB69984704460748FFF7E3
S2140095E869FF0CB901233370204670BD4FF48174AF
S2140095F8FAE700BF07B0CD5EF95C0020D033002044
S21400960800A000440090004413B5204B1B7803B913
S214009618FEE700231E4CCDE900336A4608231D49A1
S214009628206801F043FDF8B91B4AD2F84031D2F859
S21400963840211F2B4FF0010311D9203A9340019A7D
S2140096481A43019208236A461249206801F0B6FEBA
S214009658124B134A1A602EF053FC02B010BD93400A
S214009668009A1A430092EDE72D28F1D10A4AD2F85B
S2140096784031D2F840211F2B4FF0010385BF203A16
S21400968893409340019398BF0093DBE7FA5C002071
S2140096988467002000710800008000440000002055
S2140096A80B020FF038B50025AB6A0446B3F5C04F79
S2140096B810D21B6BB3F5C04F0CD20748FFF72CFE31
S2140096C8AB6A20461B6B5B689847BDE83840024883
S2140096D8FFF7F0BE38BD00BFFC33002013B50024EA
S2140096E8A36A0190B3F5C04F13D21B6BB3F5C04FF6
S2140096F80FD20948FFF710FEA36A01211B6B01A8C9
S2140097089B69984704460448FFF7D4FE204602B0F3
S21400971810BD4FF48174F9E7FC33002070B50026BD
S214009728B36A0446B3F5C04F0D4612D21B6BB3F5A9
S214009738C04F0ED20848FFF7EFFDB36A20461B6BF2
S21400974829469B69984704460348FFF7B3FE204618
S21400975870BD4FF48174FAE7FC33002070B500261C
S214009768B36A0446B3F5C04F0D4612D21B6BB3F569
S214009778C04F0ED20848FFF7CFFDB36A20461B6BD2
S2140097882946DB69984704460348FFF793FE2046B8
S21400979870BD4FF48174FAE7FC330020F8B5002753
S2140097A8BB6A0446B3F5C04F0D46164611D21B6B6E
S2140097B87BB10948FFF7B0FDBB6A20461B6B3246F3
S2140097C829465B6A984704460348FFF773FE204617
S2140097D8F8BD4FF40174FAE7FC33002070B5002694
S2140097E8B36A0446B3F5C04F0D4612D21B6BB3F5E9
S2140097F8C04F0ED20848FFF78FFDB36A20461B6B92
S21400980829469B6A984704460348FFF753FE2046B6
S21400981870BD4FF40174FAE7FC330020F0B500275A
S214009828BB6A0446B3F5C04F0D461646ADF5177D20
S21400983820D21B6BB3F5C04F1CD21048FFF76CFD47
S214009848BB6A20461B6B40F251225B6A01A9984707
S214009858044630B10948FFF72DFE20460DF5177D62
S214009868F0BD836A32461B6B2946DB6A01A8984717
S2140098780446EFE74FF40174EFE700BFFC3300201F
S21400988810B50024A36AB3F5C04F10D21B6BB3F50E
S214009898C04F0CD20748FFF73FFDA36A1B6B1B6B34
S2140098A8984704460348FFF705FE204610BD0124E6
S2140098B8FBE700BFFC330020F0B58FB0044601A8D4
S2140098C80E461546FFF7EEFE9DF80C30012B12D11A
S2140098D8B5F5002F27D8B4F5002F24D86319B3F5AB
S2140098E8002F20D821462A46304613F087FE00244B
S2140098F820460FB0F0BD0027BB6AB3F5C04F15D29F
S2140099081B6BB3F5C04F11D20A48FFF705FDBB6ABB
S2140099182A461B6B314620465B6B9847044605482B
S214009928FFF7C8FDE4E740F20244E1E740F201141D
S214009938DEE700BFFC330020F0B58FB0044601A870
S2140099480E461546FFF7AEFE9DF80C30012B1FD1CC
S214009958B5F5002F06D8B4F5002F03D86319B3F56C
S214009968002F13D940F2024420460FB0F0BDE2584B
S214009978013225D104339D42F9D82A46314620467D
S21400998800F082F80028EDD00024EDE70023F2E787
S2140099980027BB6AB3F5C04F15D21B6BB3F5C04F93
S2140099A811D20A48FFF7B8FCBB6A2A461B6B314639
S2140099B820469B6B984704460448FFF77BFDD3E791
S2140099C840F20344D0E740F20114CDE7FC33002010
S2140099D870B58EB0044601A80D46FFF763FE9DF8E5
S2140099E80C30012B22D144EA0503C3F30C03002BE9
S2140099F833D1B5F5002F04D940F2024420460EB004
S214009A0870BDB4F5002FF7D82544B5F5002FF3D868
S214009A18204604F5005400F029F8AC4202D000288D
S214009A28F6D1E9E70028E7D00024E7E70026B36A7E
S214009A38B3F5C04F14D21B6BB3F5C04F10D20A480B
S214009A48FFF76AFCB36A29461B6B2046DB6B984710
S214009A5804460548FFF72EFDD0E740F20444CDE75C
S214009A6840F20114CAE700BFFC3300204FF400326E
S214009A7808B5044B9A6637F03BFDB0FA80F040090B
S214009A8808BD00BF00900050134610B562B10343EE
S214009A989B070BD14FF40034054B9C6637F02CFD22
S214009AA8B0FA80F0400910BD0120FCE70020FAE774
S214009AB800900050BFF34F8F0549064BCA6802F462
S214009AC8E0621343CB60BFF34F8F00BFFDE700BFD4
S214009AD800ED00E00400FA0570B5D0B1C9B10E4E2D
S214009AE8431E013913F8014F2046325D02F0030287
S214009AF8012A11F8012F08BF04F12000B55C05F013
S214009B080305012D08BF2032801A01D1002CE9D1A7
S214009B1870BD0120FCE700BFF1D504000348044AE5
S214009B280449121A92102DF03DB800BF406100009B
S214009B38186300004464002008B5154B83F30A88B0
S214009B4800F030F8FFF7EAFF124B13498B4212D3A6
S214009B580020124B12498B4218D3FDF7E3F8186819
S214009B6850F82240586840F82240013298688242ED
S214009B78F5D30C33EAE70022F8E71C6844F822001D
S214009B8801325C68A242F8D30833E4E70022F8E71B
S214009B98080000203C12050048120500481205007F
S214009BA8481205004FF40041134B144A70B59A60EA
S214009BB8D3F88820124D42F47002C3F88820114A60
S214009BC805F5005491664FF0FF3222664FF6DF72B5
S214009BD862660222C3F8D020BFF34F8FBFF36F8FA1
S214009BE84FF44036032004F0A7F90320E66004F09B
S214009BF887F92E6170BD00BF00ED00E00060000030
S214009C080080004400900050054B1860054B1B6F01
S214009C1803F00703032B01D135F050BA704700BF95
S214009C2860670020008000502DE9F04104464FF0A0
S214009C3801080C250D4E0CB9BDE8F08194FAA4F085
S214009C48B0FA80F00F2808FA00F2C8BF103824EAE5
S214009C580204CABF05FB006205FB0062B4325768FF
S214009C68002FE8D09168C0B2B847E4E71C3400205B
S214009C7808B50C4837F0AFF9192004F04FF928B1A9
S214009C88192004F059F9192004F03AF91A2004F0BA
S214009C9845F928B11A2004F04FF91A2004F030F9D3
S214009CA8002008BDD8B004002DE9F0410E4617463E
S214009CB8054618B30F2923D80378DBB1013BDBB27E
S214009CC8022B19D8104AD35C6A78D340DB0717D51D
S214009CD80E4BD3F81043ACB937F05CF980463A46D9
S214009CE82846314603F064F8404637F04EF92046D9
S214009CF8BDE8F0817F23E7E70023E5E72224F6E7BF
S214009D082124F4E70224F2E728AF040000C0035039
S214009D1810B5044610B30378E3B1013BDBB2022B5F
S214009D281AD8104AD35C6278D340DB0718D537F0C8
S214009D3831F90122617823788A4030214B4341F279
S214009D48100103F1A04303F570335A5037F01DF99C
S214009D58002010BD7F23E6E70023E4E72220F8E78B
S214009D682120F6E728AF040010B5044610B30378A0
S214009D78E3B1013BDBB2022B1AD8104AD35C6278F7
S214009D88D340DB0718D537F005F901226178237828
S214009D988A4030214B4342F2100103F1A04303F5F9
S214009DA870335A5037F0F1F8002010BD7F23E6E7ED
S214009DB80023E4E72220F8E72120F6E728AF04008E
S214009DC838B50D46044618B311B30378E3B1013B22
S214009DD8DBB2022B1AD8104AD35C6278D340DB0772
S214009DE818D537F0D7F830222378534303F1A04329
S214009DF803F570335B696278D34003F001032B7078
S214009E0837F0C3F8002038BD7F23E6E70023E4E7F1
S214009E182220F8E72120F6E728AF04002DE9F041D4
S214009E280D4616469846044600284FD000294DD0C1
S214009E380178002940D04B1EDBB2022B3ED8254ABB
S214009E48D25C6378DA40D20701D4FF2940D1022ECB
S214009E5801D9042E3CD137F09DF823780746FF2B0E
S214009E6805D032462046296802F0E8FF28602B68AD
S214009E78013309D12378FF2B06D1174B6078D3F826
S214009E8824142DF060FC286029684B1C18D00C237D
S214009E98124A03FB0122069BC2F8048093602378CB
S214009EA8FF2B04D001230E4A8B40C2F824343846D0
S214009EB837F06BF8002007E07F22C2E70022C0E7F1
S214009EC8384637F062F82D20BDE8F0812220FBE7FF
S214009ED82120F9E728AF040000C003501C340020F6
S214009EE800D0035008B502F059FF054B00F0553076
S214009EF820F05020C3F82004BDE80840FFF794BEC1
S214009F0800E0035008B502F049FF054B00F0AA3000
S214009F1820F0A020C3F82004BDE80840FFF784BE60
S214009F2800E003502DE9F04F144605460E469B46C2
S214009F38C36B87B001225B6902A960689847EB6B20
S214009F4801225B6903A93046984702A82DF029FA32
S214009F58074648B10023A37563754FF0FF33A36027
S214009F68002007B0BDE8F08F03A82DF027FA0123DC
S214009F78A375237E04EBC303DE611F846368B342C4
S214009F880ED1206003A82DF03BFA4FF0FF33207562
S214009F98A360237D043B022B26D80023A375DFE7A6
S214009FA823681A1A53425341A37503A82DF028FABA
S214009FB8237D834218BFA77503A82DF003FA07462A
S214009FC802A82DF0FFF9874218BF002303A818BF80
S214009FD8A3752DF0FFF9074602A82DF0FBF9874276
S214009FE81CBF0023A375D4E703A82DF0EBF980B1B6
S214009FF8EB6B022230465B6904A9984704A82DF04B
S21400A008F0F90346207D032839D8DFE800F0383811
S21400A018040903A8F3E7CC22237E04EBC3031A84BF
S21400A02801F06EFC109B187003A8277E2DF0BEF971
S21400A03804EBC70787F82200237E03A804EBC303B4
S21400A048B3F8209093F822702DF0BCF9804603A848
S21400A0582DF0C0F98246B8F1000F15D0EB6B02223E
S21400A06830465B6904A9984704A82DF07FF9607507
S21400A078637D6BB90023A3754FF0000838E0227E95
S21400A08804EBC2021384CBE703A82DF05AF9EEE7D7
S21400A09894F81680B8F1000FEED0B9F1000F09D188
S21400A0A8DFB10123E375637E002B4FD1012F42D128
S21400A0B8677614E06B6C06EB0A015A4286EA0100E2
S21400A0C810421CBF0022A2755A1E0A409B1A9945C8
S21400A0D8D0D8A37D002BE3D1CEE7E37D43B94FF07C
S21400A0E800084B465246314628462CF0A5FEA0608E
S21400A0F8A27D12B123694B4423611A49237E09784D
S21400A10899422AD901332376BBF1000F27D032B300
S21400A118E37D23B3B8F1000F21D1032F1FD0A16828
S21400A1284B1C1CD0109B2246009328460123FFF7A1
S21400A138F9FEA07513E095F8343063B9EB6A01337D
S21400A148CFD1032FCDD10123A376C8E7012FCFD0D7
S21400A158032FC4D1F7E79846C3E70023A375A07D6D
S21400A168FFE600BF4CAF04002DE9F04F0E469846B8
S21400A17800238BB004464FF0FF31104617468DF883
S21400A188133001F0A7FBB6F5801F20D2314605AA8A
S21400A19804F108002DF057F8451C014603D1237C2E
S21400A1A8BBB92D2010E0384601F094FB0122394651
S21400A1B820460DF113032CF091FE0028EFD09DF8F1
S21400A1C8133088F8003000200BB0BDE8F08FB01CC4
S21400A1D8E5D1E56A691C36D12046616A2CF072FD25
S21400A1E80546B31C18BF0123DFF8CC900193636AB9
S21400A1F8626C0293236805A902FB053AE36B052205
S21400A2085B695046984705A82DF066F92DF089F940
S21400A21850462DF091F94FF0000B824601464B1C34
S21400A22805D0636C81EA0A025B42134211D02946C4
S21400A23820462CF047FD029BAB422CD0BBF1000F0A
S21400A2482CD10546D3E72368ED1A636CB5FBF3F506
S21400A258C7E7484601F03EFB0DF113034946204682
S21400A268019A2CF03BFE034690B1B21C03D0D9F8F5
S21400A2780020B2420CD19DF8132003930D4B88F8AA
S21400A288002049461A68384613F0B8F9039B9B46DF
S21400A298D9F80810C3E7BBF1000F82D0B6F5801FC7
S21400A2A891D2314698F800307A6804F1080001F037
S21400A2B83FFA88E748AF0400F83B00202DE9F34151
S21400A2C80446174698460E46184D816AE36A8B423E
S21400A2D801D04B1C02D102B0BDE8F081284601F03F
S21400A2E8F9FA0122294620460DF107032CF0F6FD5F
S21400A2F838B14346294620469DF80720B847002827
S21400A308E9D0A9684A1C04D1696820462CF067FD84
S21400A3180146012EDAD16B6881EA0302636C5B4260
S21400A3281A4218BF4FF0FF31D0E700BFCC3B0020E1
S21400A3382DE9F04F4FF0FF334FF6FF720025044625
S21400A34800F10806C0E909238BB0C36205620563FD
S21400A358304688462CF048FF20462CF083FC60BB2D
S21400A368204641462CF0FEFC20462CF07BFC60BBC9
S21400A3785E200BB0BDE8F08F2368E26B606C57690F
S21400A38800FB0530052205A9B84705A82DF0A4F856
S21400A398012807460CD1294620462CF0B4FC012F8C
S21400A3A8024600D10132294620462CF07AFC03E00A
S21400A3B82DF0BCF80028EED10135E3699D42DBD3C9
S21400A3C820462CF04FFC0028CAD000254FF0FF3955
S21400A3D84FF6FF73CA46A846C4E90853E36998458A
S21400A3E80AD3A5EB0905012D2CD84FF6FF72636A30
S21400A3F893423CD16720BCE72368E26B606C5769E0
S21400A40800FB0830052205A9B84705A82DF064F812
S21400A418834605A82DF037F8074658462DF081F8EC
S21400A42868B1574538BFC4F82480B94528BFB9462F
S21400A438BD4238BF3D46BA46236A0133236208F157
S21400A4480108CBE74FF6FF7300256362E3699D4278
S21400A458CBD2676C2068E36B052207FB05005B69B7
S21400A46805A9984705A82DF00EF80135EEE7E26B2A
S21400A478676C2068694607FB030055690522A847EC
S21400A48868462DF000F8626A2368606C4B4D00FB46
S21400A49802302DF051F84FF0FF33A062E3622A46EF
S21400A4A86FF00101204605ABFFF75EFE002846D197
S21400A4B8AD6829462046E5622CF0B0FB206320B93B
S21400A4C82046E16A2CF08BFCE062294620462CF0F8
S21400A4D886FC0546A36A9D4233D120462CF071FBC4
S21400A4E800278046B946E36999453CD3B84559D90B
S21400A4F82046616A2CF0E6FB0026054604F1400A71
S21400A508B74212D8626C2368694602FB0539E36BCA
S21400A51805225B694846984768462CF0B4FF5346C0
S21400A52802464946E06B2DF009F8294620462CF0ED
S21400A538C9FB0136B0450546E2D1642019E7A56A8D
S21400A548B7E7294620462CF069FB236B29460344C7
S21400A5580746236320462CF042FC0546002FB9D157
S21400A568C4E90B07B6E7636C2568052203FB0955A3
S21400A578E36B05A95B692846984705A82CF0ACFF4D
S21400A5882CF0CFFF58B128462CF0D6FF01462046BF
S21400A5982CF044FB636C143B984208BF013709F162
S21400A5A80109A0E730462CF01FFE00232046194676
S21400A5B8034AFFF783FE0020DBE600BF243C0020AA
S21400A5C8D36E03002DE9F041036B9046826B076853
S21400A5D89A4288BF8363426C436A90B002FB037753
S21400A5E8C36B0E46052201A95B69044638469847A0
S21400A5F801A82CF071FF01280146307057D0656C11
S21400A608E26B2368606AD2F814C005FB00300522A6
S21400A61806A9E04706A82CF05FFF01284FF00005C2
S21400A62823D0D4E90A3201219342CDE90B458DF8AF
S21400A63834800E958DF83C102AD1194620462CF009
S21400A648CEFB236B626C14339B1AE06223630C9B6D
S21400A65853B99DF83C303BB1626A616C2368E06B85
S21400A66801FB02312CF0F0FE0C9DE36B05225B69C2
S21400A67801A93846984701A82CF02EFF30702846C6
S21400A688236BA26B9A4288BFA36310B0BDE8F08123
S21400A698237C33B91C490BAA04F1080001F096F88C
S21400A6A8D5E72046194A0BABFFF708FECFE7237C11
S21400A6B823BB2246164904F1080001F087F8616AB0
S21400A6C820462CF020FB616A421C20462CF0E9FA52
S21400A6D8054620B9236B626C1344143B236320465B
S21400A6E8A16A2CF07CFB2368A062C01A636CB0FBDE
S21400A6F8F3F0606220462CF0B5FBB6E70023204650
S21400A708044AFFF7DBFDDAE771AE0000EDAD0000A6
S21400A7186D6F0300096F030073B50D46D11E4A42DC
S21400A7281C461B7E4A419A4226D1296823689942CC
S21400A73822D3636899421FD8114E0DF1070332469B
S21400A748FFF712FDC0B972686B689A4214D19DF87B
S21400A7580730DA1E53425341227E93420CD1636976
S21400A76801336361D4E90323934205D22968A268BA
S21400A77842F8231001332361012002B070BD00BFE8
S21400A788243C00202DE9F04F9B4689B09DF84830C0
S21400A7989046514A0193136907465B450D46C0F03B
S21400A7A89580D94653680093B9F1000F7BD0FB6BB0
S21400A7B801225B6905A90098984705A82CF0FEFDBC
S21400A7C8454B1B68984240F0848005A82CF002FE92
S21400A7D80428064615D105A82CF003FE009B04465F
S21400A7E81E44019B002B3ED1804512D91C46A8EB7F
S21400A7F80008384600992CF0F2FAA9EB04090090F4
S21400A808D2E7FB6B02225B69009806A9984706A860
S21400A818E2E7A0EB08045C4528BF5C46032C4644E8
S21400A828ABEB040B1DD9FB6B294630465B69A208C7
S21400A838984724F0030304F0030A1E441D44DDF879
S21400A8480480BAF1000FD4D0FB6B012206A930466B
S21400A8585B6998475246284606A912F0CFFE55442B
S21400A868C7E7A246EBE7824600F0030302932B18DD
S21400A87803930644039BA6EB0A00A3EB0A05029B78
S21400A8889A4514D1BAF1000FB3D0FB6B012206A982
S21400A8985B6998475246284606A913F06BF80028C5
S21400A8A8DDD04FF03609484609B0BDE8F08FFB6B9F
S21400A8B8012206A95B6998470422284606A913F0D0
S21400A8C859F80028EDD1AAF1040AD3E74FF0630936
S21400A8D8E9E74FF06F09E6E7503C00202DE9F04124
S21400A8E80F4616469846044688B060B390F834502B
S21400A8F8FDB101212CF0ABF900210E9BCDE9051125
S21400A908CDE902379DF83C30CDF804808DF81C3030
S21400A918237C04968BB90D4901AA04F1080000F0BF
S21400A92855FFDDE90553E06B002E08BF1D462CF0E9
S21400A93827FB284608B0BDE8F0812046044A01AB4C
S21400A948FFF7BCFCEDE70546F3E700BF376F0300EB
S21400A95821A700007FB590F84260044601920DF1E9
S21400A9680B030A46304611492CF012FB012E054609
S21400A978E36B17D132465B6903A998479DF80B101D
S21400A988039B019A59B19BB243EA02430122284627
S21400A9980393E36B03A99B69984704B070BD62F301
S21400A9A80F03F3E701229B6901A9F5E7503C002055
S21400A9B82DE9F04F99B00E460D920A69416C0B933B
S21400A9C81439D31DB3FBF1F3013302EBC302036B57
S21400A9D804469342C0F001820023DFF804940893EB
S21400A9E8E36A48461946059300F074FFD6E903372C
S21400A9F807930B9B022B4DD1CC2F40F0D7810D9B94
S21400AA083BB1314620462CF019FB656C14900120AA
S21400AA1844E00120079B656C1B68149300F0010056
S21400AA2800280CBF04230823782F0E9349D8059ACC
S21400AA386B1E1340ED1A3B1D9D423CD2002F3DD0A5
S21400AA48082D3ED80023042506934FF0040A3368E1
S21400AA5806990B98C9F80030C9F810702CF0D4FC89
S21400AA684FEA9A030F93059B89F814000393002373
S21400AA7809930C9304930A93616C039B4A1E1A402D
S21400AA888B1A27B35544AB4223D8236B5B1A13445F
S21400AA9823632FE1782F656CB9D8F07D0D9B002BCA
S21400AAA8BCD0E36B01225B69706816A9984716A8A4
S21400AAB82CF088FCB4E700250695C6E7042506971B
S21400AAC8C3E7012300254FF0080A0693BFE753455E
S21400AAD8DBD3A3EB0A029742039BB84628BF9046EF
S21400AAE89742534428D90122D9F8101089F817201C
S21400AAF88F4226D10399C9F80410049299F81720B2
S21400AB080AB399F818100398CA1C09EBC2025060D9
S21400AB1804980131A2F80880907289F81810B8F1E4
S21400AB28000F07D00B9A022A40F08180099A72B16A
S21400AB38012209929B46ABE0049A002A18BF03221A
S21400AB48DBE70222D9E7039AC9F80420E7E70C9A5C
S21400AB584244032AEED9E26B1846956914A90122E5
S21400AB680993A847099B05460028E1D03D2D40F0EB
S21400AB781E8104F1080303932368059A606CA2EB10
S21400AB88030ABAFBF0FA00FB0A302CF0D5FCE16A9F
S21400AB98804620462CF023F9A26A824200F00F81F4
S21400ABA8626CD9F80830511E0B40216B2768891A49
S21400ABB80B442363089BE062DF1BB7FBF2F7BA453A
S21400ABC840F0FA80059BB3EB080A12D0E36B4FEA15
S21400ABD89A0241469B6998478346E36A059A534416
S21400ABE8E362236B03989B1A434423632CF0FCFA16
S21400ABF8DA462368616CE06B01FB07312CF011FC28
S21400AC0820462CF02FF820462CF02CF92063BAF1B9
S21400AC18000F00F0D4803269616CD31D1439B3FB81
S21400AC28F1F3013302EBC3029042A5D2BFE00D9ABE
S21400AC38002A77D1B8F1030F4FEA98026ED9E16B74
S21400AC4818468D6907991093A847109B0546C0B902
S21400AC5818F0030515D0079A28F0030B02EB0B0132
S21400AC689B444FF0FF3215A815922A46109312F00F
S21400AC78C5FCE26B5846956915A90122A847054602
S21400AC88109B9B46079A42440792002D40F08B8003
S21400AC98049B16A80193069B009399F81420434634
S21400ACA8316800F0CDFDE36B0F9A9B69039816A9EF
S21400ACB89847039A051E089B18BF134608934346F1
S21400ACC85246204603992CF0B7F8236B08F1030286
S21400ACD8A3EB0A0322F003029B1AC9F808002363B1
S21400ACE8002D7FF443AF0C9BA7EB080743440C9357
S21400ACF8CDF80CB0204603992CF071F80025039087
S21400AD08002F7FF4B9AE364A3168936804F108001C
S21400AD18E36252680B9B00F00BFD49E09B464546F4
S21400AD2807999EE79B4606F120021092F27D70680E
S21400AD38A2B1002296F818C00A99D5B2AC4511D926
S21400AD48109D02F1010E35F832508D4228D90E9822
S21400AD5806EBC2020144D069084403E00E9A0A9939
S21400AD680A441044E26B15A9556901221193A847B5
S21400AD78159A0A9B1392E26B04339569584601228A
S21400AD8813A90A93A847119B054603EB0802A2EBF2
S21400AD980B02042A7FF679AF28B90BF1040BC5E736
S21400ADA87246491BC9E7CDF820B088E770252F46BC
S21400ADB8384619B0BDE8F08F4FF0000A19E7326937
S21400ADC8616CD31D1439B3FBF1F3013302EBC302F4
S21400ADD8236B9342BFF404AEE9E71C27E8E700BFFD
S21400ADE8F83B0020032A2DE9F34106460D46174690
S21400ADF81C4606D1237A012B23D0012002B0BDE8D9
S21400AE08F081DFF86080096842460DF10703FFF716
S21400AE18ABF960600028EDD19DF80720237A032A55
S21400AE28E8D0D8F804106A689142E3D1012B296962
S21400AE38D4F80CC007D172690CEB0103934202D90F
S21400AE482074207CDAE708316144E1603B46012241
S21400AE5829463046FFF7ACFD60600028CAD00020BF
S21400AE68CCE700BF243C00202DE9F341089C032AC8
S21400AE781746266806D1237A012B24D0012002B073
S21400AE88BDE8F081DFF89080304642460DF10703B2
S21400AE98FFF76AF960600028EDD12568D8F8040045
S21400AEA8A96AD5F844C04840CCF100031840227A75
S21400AEB8E1D1012A09D1E268D8F810301344726942
S21400AEC8934202D92074207CD9E72868EB6A1B1ABB
S21400AED8081AB3FBFCF3B0FBFCF083420BD1706C92
S21400AEE8F36A421E1340326B121A13442846336321
S21400AEF82BF075FFE862D8F81020E3680832134490
S21400AF08E36001223B4604492068FFF751FD606074
S21400AF180028B0D00020B2E7243C00202DE9F041FC
S21400AF280025604B0E46D3F8008004461D6018B90D
S21400AF3821252846BDE8F08190F8347007B30A68E2
S21400AF4803689A4240F0A3804A6843689A4240F0F1
S21400AF589E808A6883689A4240F09980CA68C36867
S21400AF689A4240F094800A6943699A4240F08F807A
S21400AF788A69C36B9A4240F08A804B698361D8E736
S21400AF8868223946856B12F0A9F9D6E902123368A9
S21400AF9804F1080023607368A5636360336963611E
S21400AFA87369A3612CF032F9B36904F14000E363D6
S21400AFB89B68984720B9676C17B16368B3FBF7F7C7
S21400AFC894F84330E761002BB2D00023656C236603
S21400AFD8002D64D0002F62D02368B3FBF5F205FB82
S21400AFE81233002B55D16668B6FBF5F305FB1363E1
S21400AFF8002B4ED120462BF001FEA36904330344F0
S21400B0089E4248D340F634726369CC3B934244D898
S21400B018B5F5805F43D3032120462BF018FED4E90C
S21400B0280001E36B1B6898470546E36B0220DB6864
S21400B0389847CDB941462046FFF77AF96428054671
S21400B04804D141462046FFF773F90546666C5DB99C
S21400B058236A2046143E5E432BF0D0FDA3690433D2
S21400B06803449E4238BF5A25002D0CBF01230023F7
S21400B07884F8343007D1D4E900010B4A1368013349
S21400B08813602CF05DF9E06B2BF07AFF51E75D2535
S21400B0984FE759254DE75A254BE75F2549E75B25D6
S21400B0A847E700BF88350020843500202DE9FF419A
S21400B0B80C4616461F46054680B390F834307BB3D8
S21400B0C8B1F5801F2ED2DFF8608001212BF0BFFD7E
S21400B0D82146424628460DF10F03FFF745F8044679
S21400B0E870B99DF80F30012B11D1D8F81030BB423B
S21400B0F812D10246009031462846FFF743FB044625
S21400B108E86B2BF03DFF204604B0BDE8F081022B2B
S21400B11814BF2D246024F3E76324F1E72124F2E723
S21400B1281124F0E72924EEE7503C00202DE9F043EF
S21400B13885B00C4617461E460546DDF8308098B39F
S21400B14890F8343093B3B1F5801F31D2DFF86490AD
S21400B15801212BF07CFD21464A4628460DF10F03B7
S21400B168FFF702F8044688B99DF80F30012B14D172
S21400B178D9F8102006EB08039A4213D300904346EA
S21400B188324639462846FFF7FDFA0446E86B2BF0A8
S21400B198F7FE204605B0BDE8F083022B14BF2D2429
S21400B1A86024F3E76324F1E72124F2E71124F0E7AB
S21400B1B82924EEE7503C002073B50C461646054693
S21400B1C830B390F834302BB3B1F5801F24D2012168
S21400B1D82BF03DFD21462846104A0DF10703FEF7E1
S21400B1E8C3FF044680B99DF80730032B0CD0022B0A
S21400B1F80CD1284609492BF021FF3060E86B2BF06C
S21400B208BFFE204602B070BD2D24F7E76124F5E79F
S21400B2182124F6E71124F4E72924F2E7503C00201D
S21400B2282DE9F3411E4600230C46174605463360B3
S21400B23850B390F834304BB3B1F5801F28D2DFF8FE
S21400B248548001212BF003FD2146424628460DF185
S21400B2580703FEF789FF0446A0B99DF80730032BBD
S21400B26810D0022B03BF01233B600423D8F810300C
S21400B27818BF38603360E86B2BF082FE204602B0B9
S21400B288BDE8F0812D24F6E72124F7E71124F5E739
S21400B2982924F3E7503C002073B50446056B2BF0D1
S21400B2A8ADFC636E03449D422CBF002301238542F8
S21400B2B894BF00252D1A207C84F85030656584F8E4
S21400B2C85800A8B100230C4E1A4619462046009688
S21400B2D82BF078FF002305461A46194620460096A6
S21400B2E82BF079FFE3682844984294BF0020C01AE0
S21400B2F8E06502B070BD00BFFFFF0F002DE9F34701
S21400B3081E4643690446B342884617469DF8289069
S21400B3184ED300258DF8075020462BF06FFCD4F846
S21400B32830A082450AD2236AB5EB430F06D2002224
S21400B33820460DF10701FFF745F9B8B39DF8073029
S21400B348012B05D1002220460DF10701FFF73AF937
S21400B358B9F1030F06D0314620462BF03FFC256B8B
S21400B368854227D3144D4FF0FF31284600F0B2FA35
S21400B3784B46294600222046C5E90376C5F80080D4
S21400B388FFF716FB236E054663B12046FFF784FFDA
S21400B39894F8503013B994F858301BB1236E04F162
S21400B3A850009847284602B0BDE8F0870135B3E755
S21400B3B86225F7E71C25F5E7243C00202DE9FF4128
S21400B3C80F4690461E46054698B390F8343093B319
S21400B3D8B1F5801F31D21A4C02212BF038FC2246D8
S21400B3E8394628460DF10F03FEF7BEFE024678B131
S21400B3F8012342460093394633462846FFF77EFF28
S21400B4080446E86B2BF0BCFD204604B0BDE8F0818E
S21400B4189DF80F30012BEBD12169B142E8D100939A
S21400B428414633462846FFF7ADF904460028DFD1E3
S21400B438E7E72124E8E71124E6E72924E4E700BF44
S21400B448503C00202DE9F04790F8423086B0012B9A
S21400B45805460391A1EB020740F0AA80FF2F03D808
S21400B4681E464FF0640807E00226012B14BF4FF073
S21400B47832084FF06408013600244FF6FF79DFF8EB
S21400B48844A195F84230012B14BF322364239C4212
S21400B49802D35FFA88F40DE005AB224651462846EB
S21400B4A82BF0AAFD95F84230012B059B34D14B456D
S21400B4B82DD1E4B295F84230012B14BF3222642213
S21400B4C8121BB24217D3012E39D10022012B059741
S21400B4D88DF8132027D1082205A90DF113002CF0AA
S21400B4E847F89DF81330059A42EA03222146284673
S21400B4F8FFF730FA40B10223324900932846CC239E
S21400B508096803AAFFF7FAFE06B0BDE8F087DBB2C3
S21400B51803B902340134B4E7591CCAD09BB2002BD5
S21400B528F8D10134F6E7102205A90DF113002CF026
S21400B5381FF89DF81330059A42EA0342D6E7039AA5
S21400B548012B059223D10823202205A90DF113000B
S21400B5588DF813302CF00CF89DF8132012022146B3
S21400B5682846FFF7F7F995F84230611C012BC9B257
S21400B5781AD10028BFD12846BDF81420FFF7EAF9EB
S21400B5880028B8D10234BDF81620E1B2AFE7102380
S21400B598202205A90DF113008DF813302BF0E8FFD3
S21400B5A89DF813201204DAE70028A4D1059A9EE72E
S21400B5B8B7F5803F4FF00106BFF457AF4FF032089B
S21400B5C85AE700BF503C002070B586B00E460546C8
S21400B5D80392A0B390F834309BB3B1F5801F32D2F3
S21400B5E802212BF034FB31462846184A0DF1170382
S21400B5F8FEF7BAFD044618B99DF81730032B0ED18E
S21400B6080223314600932846CC2303AAFFF776FE8A
S21400B6180446E86B2BF0B4FC204606B070BD022B3F
S21400B6280BD10A4928462BF009FD039902468142A8
S21400B638EFD02846FFF706FFEAE76124E9E721246A
S21400B648EAE71124E8E72924E6E700BF503C002093
S21400B658F7B50C461646054668B390F8343063B31B
S21400B668B1F5801F2BD202212BF0F1FA214628468D
S21400B678144A0DF10703FEF777FDC0B99DF80730A9
S21400B688032B14D0022B14D10E4928462BF0D6FCD7
S21400B698471C024639462846FFF7D4FE044606B13C
S21400B6A83760E86B2BF06CFC204603B0F0BD2D2409
S21400B6B8F7E76124F5E72124F6E71124F4E72924BF
S21400B6C8F2E700BF503C002030B50C46054685B072
S21400B6D828B390F8343023B3B1F5801F23D2022163
S21400B6E82BF0B5FA0DF10F03214628460F4AFEF750
S21400B6F83BFD034688B99DF80F20032A0DD0032288
S21400B7082146009202462846FFF7F8FD0446E86BF5
S21400B7182BF036FC204605B030BD2D24F7E7212453
S21400B728F8E71124F6E72924F4E700BF503C002088
S21400B7382DE9F043466886B3056898464FF0000C36
S21400B748A946AE4655F83C400CF1010CC4F3130765
S21400B758013401D0B94217D0B4450EF1080EF1D124
S21400B7682F46002403E0B44207F1080712D055F824
S21400B778343001340133F6D1C1F3130141EA0851DC
S21400B788C7E90012BDE8F08341EA0851CEE9001285
S21400B798BDE8F083B8F1030F03D101230372BDE8B7
S21400B7A8F083002303E0B34209F10809F5D055F801
S21400B7B833400133C4F30754032CF4D1C1F3130305
S21400B7C843EA0853C9E90032BDE8F0832DE9F041A1
S21400B7D80646406882B0B8B10F46904600243368E3
S21400B7E853F8345003EBC403C5F30752C5F31301EB
S21400B7F8013506D05B683046CDF80080B84718B1EA
S21400B808706801348442EAD302B0BDE8F08100BF14
S21400B818024B1968024B1868FFF780BB6467002064
S21400B8288467002008B535F0A8FB014B186008BDF2
S21400B8387C3C0020014B186835F09ABB7C3C002005
S21400B84873B504462248012A00EAC1119DF818502B
S21400B85823F07C4007D9961E012E28D9073303F01B
S21400B8687F03194308E09DF81C300A43DB0603F003
S21400B878C053134343F060410023C4E900108DF819
S21400B8880730B5B1202221460DF107002BF070FED7
S21400B8981A220DF10700211D2BF06AFE08206368A6
S21400B8A89DF8072043EA8263636002B070BD1143C7
S21400B8B8E2E71B220DF1070021462BF059FE23680C
