S01B00006275696C642F72656C656173652F7A69676265652E73333714
S21400400008100020D57D000069C50000F7070300F2
S214004010F707030071C5000079C50000F707030025
S214004020F7070300F7070300F7070300F707030087
S2140040307DC50000AC4A0400F7070300F70703003D
S214004040F7070300F7070300F7070300ED78000003
S214004050F7070300F7070300F7070300F707030057
S214004060F7070300F7070300B5CA0000F7070300C9
S214004070F7070300F7070300F7070300F707030037
S214004080F7070300F7070300F7070300F707030027
S214004090F7070300F7070300F7070300F707030017
S2140040A0F70703009D81000081810000F7070300E9
S2140040B0F7070300F7070300F70703009D1E02003B
S2140040C00963030005630300011602001F63030073
S2140040D00D6303005D1E02001163030091020200DF
S2140040E0DD1E0200F7070300F7070300F7070300CB
S2140040F0F7070300F7070300F7070300F7070300B7
S214004100F7070300F7070300F7070300F7070300A6
S214004110F7070300F7070300F7070300F707030096
S214004120F7070300F7070300F7070300F707030086
S208004130F707030085
S214004134F0B5114A114C124E00F00105E3695F0711
S21400414413D40DB9334213D103EA00078F4207D1C3
S2140041540B4A1A40002A14BF6FF001000020F0BD7D
S214004164013AEBD16FF00200F9E74FF0FF30F6E7C3
S2140041746FF00100F3E700BF80969800000003503C
S214004184020001000B4B70B5D96911F480310DD1D2
S21400419401244FF48072084E084DF46020462C64C7
S2140041A41A61FFF7C5FF3464EC6070BD6FF0010060
S2140041B4FBE700BF0000035000100350002003502C
S2140041C438B541F6713301220C4C0021E569E363EE
S2140041D40B4B05F48035DA600223606121202361ED
S2140041E4FFF7A6FF10B92120FFF7A2FF0122054B17
S2140041F4DA600DB10023E36338BD00BF000003504E
S214004204001003500020035070B5134C6061E3693E
S2140042145B071ED40E4656F8043B8D18A361AE42C7
S2140042240BD10423002121202361FFF781FF58B915
S214004234BDE870402120FFF77BBF08210846FFF742
S21400424477FF10B10423236170BD56F8043BA361C5
S214004254E5E74FF0FF30F7E7000003502DE9F84399
S214004264154641F67132164B8946DF69DA63012238
S214004274064603F58053DFF8508007F48037DA608B
S21400428455B9284601220F4BDA601FB10022A3F568
S2140042940053DA63BDE8F88306F5005404EA08041C
S2140042A4A41BAC4228BF2C46494622463046FFF79C
S2140042B4ABFF0028E6D12644A1442D1BE0E700BF4F
S2100042C4000003500020035000E0FFFF45
S2140042D02DE9F04F4FF0FD0BC9B09A460DF11B09C2
S2140042E09DF8503108AFCDF80C90CDF808B0019786
S2140042F0059303890446009383790E4690464188C9
S2140043008288407812F016FB054650B10090A388CC
S214004310002062883A4912F051FE284649B0BDE8AE
S214004320F08F99F800002FF041FB38B12846A3889B
S2140043306288344912F042FE8D25EEE75A46394629
S21400434099F800002FF0DAFA8346002851D0529BE5
S2140043501BB1BDF84C3198424BD8002399F8009019
S2140043600793A9F14102012A5FFA8BF123D8384658
S2140043700139254ADFF898C05FFA81FE734513DBE2
S214004380059B04210792C3B907AF18221F489FED6B
S2140043901A7B02FB060420460A460830394684ED9E
S2140043A0027B17F033FB11E010F8011F0133514078
S2140043B00CFB01F2E2E7059B33B123464A4638463A
S2140043C0009610F039FAA8E70829DED9B8F1000FF0
S2140043D001D088F80090BAF1000F01D0AAF800B01A
S2140043E0529B002B99D05A46184608A917F00EFB88
S2140043F093E7012591E700BF0000000000000000E1
S214004400EAF303001FF40300C59D1C818010002002
S21400441093010001000000002DE9F04F93B0CDE9B4
S2140044200A32DDE91C530E9353EC102BCDE908013C
S214004430104619468DED060B1E9E16F071FD80B1D6
S214004440DDE906014FF0FF32C54B16F091FD40B98D
S214004450DDE906014FF0FF326FF4801316F06AFDB7
S21400446070B1DDE908019DED060B0E9B1E96CDE9A9
S2140044701C53DDE90A3213B0BDE8F04F00F088B9EE
S2140044800022DDE90601002316F054FD002800F0A6
S2140044903381DDE906A303F1004BCBF30A5016F493
S2140044A08063A0F2FF3008BF06250F9316F066FA69
S2140044B09BA3D3E9002316F0CBFA9BA3D3E90023F2
S2140044C016F010F9CBF31304894644F07F5180466A
S2140044D00022A44B504641F4401116F001F994A373
S2140044E0D3E9002316F0B4FA02460B464046494686
S2140044F016F0F8F816F046FD044616F03FFA8EA3BE
S214004500D3E900238046894616F0A2FA0022964B8D
S21400451016F0E8F816F036FD89A3D3E9002307461F
S2140045204946404616F094FA80463846894616F0C4
S21400453025FA85A3D3E9002316F08AFA02460B462D
S2140045404046494616F0CCF802460B46CDE90C2309
S21400455016F07EFADDE90C23804689461046194699
S21400456016F0C0F80022CDE91001804B40464946BF
S21400457016F098FB00227E4B16F0B4F802460B4667
S2140045804046494616F08EFB00227A4B16F0AAF8F3
S21400459002460B464046494616F084FBDDE90C23EE
S2140045A08046894600204FF0804116F099F8024672
S2140045B00B464046494616F095F802460B46DDE99E
S2140045C0100116F06FFB07F2FF3700226A4B16F059
S2140045D089F800223B0516F03BFA52465B468046B9
S2140045E0894616F0C5FC002840F08980CDE90C8984
S2140045F004F16303C62B8CBF0527042731051BD5A2
S21400460053A3D3E900235046594616F0A7FC0028CA
S2140046107FD051A3D3E900235046594616F08AFCB2
S214004620002876D00027A542C6BF2C1B04F1FF3514
S21400463000253C4646F480660E9B9F422CBF4FF0FA
S2140046400008A3EB070816F0020903D0002F18BFD6
S2140046504FF000083CB1DDE90C235046594616F0F1
S21400466021FB82468B46DDE906010022002316F078
S21400467061FC10B10BF100439B46DDE9080126F40E
S2140046800063CDE90183DDE90A324BEC10AB0095FF
S21400469000F07EF802465FB3DDE9091316F0200F3E
S2140046A000F10105089E0CBF65204520B047DDE9F6
S2140046B008010523002205930A23002CCDE90232C7
S2140046C007F1FF374FEAD473B8BF64422A46019316
S2140046D004970A9B009430F085FF0246B9F1000F5C
S2140046E006D00B9BC41A0B9B1A190E9BA34245D8E7
S2140046F0104613B0BDE8F08FDDE906ABCDE600222C
S214004700404649461A4B16F0CDFA013CCDE90C015D
S2140047106EE7002D90D00F9B002B8DD0013D8BE7D0
S214004720FB799F501344D33FB3C8608B288AC63F9B
S21400473061436F63A787D23F71A379094F930A40FD
S2140047401655B5BBB16B0240EF39FAFE422EE63F76
S2140047502D431CEBE2361A3F0000000080842E41F9
S214004760FFFFEF7F0000F83F0000E03F00002C4016
S21400477000002440000018400000F03F2020DDE943
S2140047800913089DA8470134ADE700BF00000000EC
S2140047902DE9F04F5BEC10AB97B0CDE90501DDE9F4
S2140047A02058CDE90723504652465B465946229F7D
S2140047B016F0B6FB70B90323CDE902870193AA4B26
S2140047C00093DDE90501DDE9072330F03DFE17B073
S2140047D0BDE8F08F4FF0FF326FF480135046594615
S2140047E016F0A8FB28B10423CDE9028701939F4B5E
S2140047F0E6E74FF0FF32504659469D4B16F0B8FBA1
S21400480068B19C4A07F00403002B08BF03229A4BAA
S2140048101CBF13460422CDE902870192D0E750461A
S2140048208DA3D3E90023594616F0A2FB38B98CA312
S214004830D3E900235046594616F07CFB68B1DDE903
S2140048400723DDE905014BEC10ABCDE92187209568
S21400485017B0BDE8F04FFFF7DFBD0022002350463B
S214004860594616F067FB002800F091805B465246DA
S2140048700020002115F034FF012382468B46099361
S21400488017F4806400F08580092D40F285800024AE
S21400489030210EABA5F109020134202C03F8011BD0
S2140048A0A5EB040901D09442F6D15946504616F0BD
S2140048B069FB724B054603EBC90393ED007B8DED58
S2140048C00A7B16F05BF802460B465046594615F032
S2140048D007FFDDE90A2316F0BBF802460B46CDE9D2
S2140048E00C2316F077FB064616F038F802460B4601
S2140048F0DDE90C0115F0F4FE02460B46CDE90C236B
S21400490000225F4B16F034FB002848D001363046B4
S21400491016F024F802460B46DDE90A0116F014FBF1
S21400492008B100260135B9F1000F45D1284616F02A
S21400493025F802460B465046594615F0D1FE002291
S2140049404F4B16F0F7FA10B9E90700D501350A21E2
S2140049500EAB1A19202C0AD095FBF1F001FB10556E
S214004960303502F8015B013405460028F2D107F025
S2140049700302012A55D1B8F1000F52D0099A12B994
S21400498017F00C0F01D008F1FF38302240E00990F4
S21400499076E74FF0060988E7A946002485E7002257
S2140049A0DDE90C01364B16F0C5FA0028BBD10EB176
S2140049B0F007B8D50136B6E70A210EAB1A19202C37
S2140049C00DD0B6FBF1F001FB1063092E03F13003A6
S2140049D009F1FF3904F1010402F8013B11D8302136
S2140049E0A1440EAA202CB2D04C4504F101030AD1F2
S2140049F004F158020DEB02042E2204F8202C1C466B
S214004A00A5E70646DBE7A1541C46EBE71A5501343A
S214004A10444506D2202CF9D1CDE9028701940EAB8D
S214004A20CEE6202CF8D0099B3BB12D2204F158038A
S214004A306B4403F8202C0134EEE77A0704D504F122
S214004A4058032B226B44F4E73B07E5D504F15803E3
S214004A5020226B44EDE700BF0000000065CDCD418D
S214004A600000000065CDCDC1A1100400A510040013
S214004A70FFFFEF7F981004009D100400E05904002B
S214004A800000E03F0000000070B58EB02C22002130
S214004A9003A816F02BFE64234FF002320893CDE9EC
S214004AA005230B2301218DF834305B4B8DF8101055
S214004AB01D880D4040F0A980084634F001FE0A2209
S214004AC0564B574C1A704FF42873ADF812304FF00F
S214004AD0FF332360534B54491B8820460B82534BAD
S214004AE0534A1B68CD828B61524B0D621B884B82EA
S214004AF0514B1B68CB611DF067FA20B14FF41B7158
S214004B004E4835F078FE0521206830F05EFF20B173
S214004B1040F27D21494835F06EFE206815F09CFD78
S214004B20474B2068196831F013F80C2535F030FA39
S214004B306843099035F02CFA68430DEB05010790A1
S214004B40206817F095FC20B140F295213B4835F0DF
S214004B5052FE25681FF070FC00220146284631F000
S214004B606FF820B140F29721344835F044FE40F209
S214004B700353344D344E2B80052396F90000AB705A
S214004B807F2801D11DF016FB3378EB7035F000FA64
S214004B9000EB80008000A88035F0FAF90023C00002
S214004BA04FF0FF31E880AB604FF0FF3018A3D3E939
S214004BB0002334F0D7FE2549206830F0FAFF20683D
S214004BC002A931F016FC20B14FF434711B4835F0C1
S214004BD012FE042220680DEB020130F08EFF04283E
S214004BE004D040F2D721154835F005FE01A9012072
S214004BF030F08FFB07F0FCFC01201DF05FFF2CF06F
S214004C00F2FB1DF085FF1DF06DFA0EB070BD00BF03
S214004C100A0020FF42030000325A00206061002094
S214004C20585400208E730400146800209473040007
S214004C30E99603008C730400907304006A4904002C
S214004C405C6500204C540020EA6A00205D97030053
S214004C500348044B834202D0034B03B11847704706
S214004C60186B0020186B002000000000064B074958
S214004C70C91A891048BF0131491003D0044B0BB143
S214004C8001481847704700BF186B0020186B0020BB
S214004C900000000010B5064C237843B9FFF7D8FF94
S214004CA0044B13B10448AFF300800123237010BDFA
S214004CB0B0150020000000001497040008B5044B4F
S214004CC01BB104490448AFF30080BDE80840CDE7B7
S214004CD000000000B415002014970400A3F5803AE5
S214004CE0704700BF154B002B08BF114B9D46FFF7C2
S214004CF0F5FF00218B460F461148124A121A16F08D
S214004D00F5FC0C4B002B00D098470B4B002B00D02B
S214004D1098470020002104000D000B4817F02CF8DF
S214004D2016F0BCFC200029002BF07CFA17F012F8D5
S214004D30000008000000000000000000081000202E
S214004D4008100020B4610020E1BD010007B5012174
S214004D5020200DF1070201F039F858B10223012195
S214004D6020200DF107028DF8073001F03FF803B060
S214004D705DF804FB9DF807100229F8D002220948C6
S214004D8015F0A2FB022301210DF1070220208DF869
S214004D90073001F02BF82BF0B0F94FF4FA6000F072
S214004DA05FFEE4E728AC030038B502F051F801F0E6
S214004DB0E1F9012805D001F0DDF9022801D001F063
S214004DC0FFF9064D2B783BB901F0D4F901280446CB
S214004DD002D12BF00AFA2C7038BD00BF105B002001
S214004DE010B5044600882BF05BF9A37884F84400DD
S214004DF0834202BF0123E3702371074B04F11C00BA
S214004E00C4E9073401F038F8224620880349BDE893
S214004E10104000F075BF00BF37FE020001FE020022
S214004E2070B5C37804460D461646002B34D1D1B172
S214004E30214815F049FB0123E370E36CA6600BB133
S214004E40E06D9847E368F61A63699E4221D2217E98
S214004E501A480131C9B2217615F036FBA36D13B19D
S214004E60217EE06D9847E5702BF05FF915B3237946
S214004E7003BBA268238A801A83421BD801231048EA
S214004E80237115F021FB236DA3B1E06DBDE87040E2
S214004E90184701232376E6E70029E4D1094815F0F0
S214004EA013FB636DE660E5702571002BDBD0E06DCB
S214004EB09847D8E770BD00BF50AC030061AC030054
S214004EC08FAC03007CAC030070B51E468388044696
S214004ED00D46C18002810BB1868070BD8178008846
S214004EE02AF0CAFF0123E370064BA680C4E9033408
S214004EF00C34204600F0C0FF29462046BDE870402E
S214004F002BF00AB983FE020010B501790446B1FA07
S214004F1081F1008849092BF026F821796088B1FADA
S214004F2081F149092BF01FF8034B1A68A24204BF0F
S214004F3000221A6010BD00BFCC15002070B5437962
S214004F400446A3B100880E4E04F10805336813B179
S214004F500C4B1B786BB121792BF005F864210A4BBA
S214004F603460A3602846BDE870402BF0D5B8408872
S214004F70E9E7064815F0A8FA054B3221A360F1E7E9
S214004F80CC150020115B0020094F0000A5AC0300E3
S214004F903D4F000010B50446E0B10F4815F094FAF6
S214004FA001236371A37953B9217920882AF0DBFFA6
S214004FB0236B7BB1606B0121BDE81040184720468B
S214004FC0FFF7A2FF04F108002BF0ABF82046FFF72E
S214004FD0B5FFEDE710BD00BFDBAC030010B504461F
S214004FE0F8B1104815F070FA00236371A3796BB915
S214004FF021792088B1FA81F149092AF0B4FF236BA0
S2140050007BB1606B0021BDE8104018472046FFF7D3
S2140050107BFF04F108002BF084F82046FFF78EFF94
S214005020EDE710BDE6AC030010B5044668B10748CE
S21400503015F04AFA637920461BB1BDE81040FFF729
S214005040CDBFBDE81040FFF7A5BF10BDF2AC030012
S21400505010B50E4C0E48214615F036FA82210D4842
S21400506015F032FA82210220A21E00F0BFFE014691
S21400507030B134F8022C0848BDE8104015F024BAC8
S2140050800648BDE8104015F01FBA00BF9E55002028
S21400509001AD03001CAD030027AD03006BAD03009C
S2140050A038B5124C82212246022000F08FFEA51C45
S2140050B0014698B122880E4815F006FA2A460D4B8E
S2140050C003F12C0153F8040B8B4242F8040BF9D180
S2140050D019889B78118093702E23238035F8021C44
S2140050E0054A0648BDE8384015F0EEB99C55002044
S2140050F076AD0300F6AD03009E550020D4AD030048
S214005100034B1B781BB18B4201D82AF0F6BF7047C1
S214005110906A002010B5044601460E4815F0D4F9F2
S214005120012C11D10C4B0D481A884FF6FF739A428A
S2140051301EBF0022094B5A742AF0FBFE01F0DEFF68
S214005140BDE8104001F0B0BE0448BDE810402AF0AB
S214005150F2BE00BF25AE0300446A0020E8640020CB
S21400516070B500241A4D1B4E3378A3421BDC002476
S214005170194D1A4E3378A3421BDC0024184D194EE5
S2140051803378A3421BDC00F0F5FF012816481CD13B
S2140051902AF0CFFE01F0B2FF01F086FEBDE87040B7
S2140051A0124801F007B82846FFF71AFE01346035AA
S2140051B0DAE728462AF0A3FE01343435DAE7284633
S2140051C02AF0D6FE01343835DAE72AF0B4FEE5E7F1
S2140051D0A8210020175B0020C8250020185B0020AF
S2140051E0781F0020165B0020E864002015510000A0
S2140051F02DE9F04F87B0FFF753FFB94B05A805938D
S2140052002AF0DAFE054616F06DF9B64CC2B21F2A31
S214005210627004D9B44815F057F900F015FC294619
S214005220A01C16F0F3FB05A82AF0C6FE054616F0ED
S21400523059F9C2B21F2A84F8212001D9AB48EAE7FF
S214005240294604F1220016F0E1FB05A82AF0B4FE78
S2140052503226044600272578002D40F09F80A44C77
S214005260FFF77EFF2378DFF8C8A2DFF8C882A14FD9
S21400527000939AF8003098F8002039789E4815F088
S21400528023F93A7898F800109AF800005318034467
S214005290DFF894B220782C4603445846DBB2AA4284
S2140052A000F3E482012B38BF0123944E029332466A
S2140052B0002335464FF482714FF6FF74029801338F
S2140052C0984213705180948002F10C02F6DC8C4BED
S2140052D08A498448AB6001F059F8E879AB68DFF892
S2140052E0449200EB400003EB800000F0B9FDEB7940
S2140052F0B9F800200133A242EB7103D07F49814800
S21400530001F048F94FF6FF73B9F800207B49D21A2E
S21400531018BF01227C4801F007FD4FF00009784CC9
S2140053203A784A4500F3CA8200264FF00C09774ABD
S214005330DFF8C8B198F800003978B04200F3D2829E
S21400534046180C21002501FB06B19AF800009423AC
S214005350A8426F4A00F3E4820C253E7898F80030A5
S21400536000274FF070081E44064405FB06B5DFF81C
S214005370C8A15F4B1B78BB4200F3E58202995F48E9
S21400538000F0FCFD059B56491A468B4240F0EE8223
S214005390604807B0BDE8F04F15F096B8532D0FD112
S2140053A063784C2B40F04881A378502B40F0448122
S2140053B00122594B1A7005A82AF0FEFD04464AE75A
S2140053C0442D13D16378303B092BF4D8601C2AF0A7
S2140053D000FE524B524A1978002386B2994202F1D7
S2140053E06002E8DD22F8466C0133F7E7422D0BD168
S2140053F06378542B54D1A01C00F0D0FC494B188085
S21400540018462AF0DAFCD6E7582D33D8412DD2D9E3
S214005410433D152DCFD801A353F825F0DB570000E8
S214005420B7530000B7530000B7530000B75300004F
S214005430B75300008B550000B7530000B753000069
S2140054403D55000087540000B7530000B7530000D6
S214005450B7530000B7530000BD5600003956000091
S214005460B7530000B7530000B7530000B75300000F
S21400547033570000692D9ED1601C2AF0AAFD80B229
S2140054802AF036FE97E71B4B012019780023264AA0
S214005490994202F1B4028EDD02F8B20C0133F7E74E
S2140054A0601C00F07BFC0546E01C2AF00AFE012189
S2140054B0024628462AF0C1FD60211848184C037899
S2140054C05943621865524FF4FA6111824FF44871DD
S2140054D05161164956831165013303706BE700BFAF
S2140054E09E550020FC63002044AE03005BAE030024
S2140054F0125B0020155B00206BAE030098160020A0
S2140055001017002048160020D01500209C1B0020F5
S214005510E0190020BBAE0300115B0020175B0020E3
S214005520A8210020446A00209C1C0020A3FF020043
S214005530135B0020145B002090180020601C00F015
S2140055402DFC00224FF034088146CC4F11462AF03D
S21400555074FD3878CA4D08FB00F325F80390EA1866
S214005560E3781046693B18BF012393702AF0C7FC06
S2140055700021C44A3B785160012103FB08550B44C7
S2140055803B7015600F46117415E7601C00F006FCB2
S2140055900022114681462AF050FD3422B74DDFF82E
S2140055A0E082287802FB00F328F8039008EB03015A
S2140055B0E3780846693B18BF01238B702AF09FFCEE
S2140055C0B14A00231046916B31BB00EB83103423A5
S2140055D02A7802FB03838363AC4A00231046D2F882
S2140055E0A410F9B9B42202FB030034232A7802FB84
S2140055F00383C0F8A4305FB9A24A3B46114652F86E
S214005600040BA8B93422287800FB028241F8232034
S2140056102B7801332B70CEE60133042B02F14002C7
S214005620D1D1D9E70133042B02F1B402D7D1E2E796
S2140056300133042BE3D1EBE7601C00F0AFFB8046A0
S214005640E01C2AF03EFD0121024640462AF0F5FC09
S21400565060218F488F4D0278DFF854C251436B1893
S21400566025F801804FF44871198259618A495E8392
S2140056709965E178B424642904BF012199709CF8E7
S2140056800030DFF808E25C430EEB04010EF804304D
S2140056904FF400744C8003240C718C7102EB4204AE
S2140056A005EB441532240133DBB201324B718D60B9
S2140056B081F8A04002708CF800307CE6601C00F098
S2140056C06DFB00224FF0380A8146DFF8DC81114678
S2140056D02AF0B3FC98F80030704D0AFB03F325F867
S2140056E003904FF00109EA1882F80490E37873B14A
S2140056F0E01C00F053FB0022044611462AF09DFCF5
S21400570098F800300AFB03535C8083F806906448E0
S2140057105D4A03789901535498F8001002EB8314FD
S214005720C1EBC10205EBC2054A1C656388F8002080
S214005730D2E6601C00F032FB8046E01C00F02EFB38
S2140057400546601D2AF0BDFC04460246012140467F
S2140057502AF073FC2246284601212AF06EFC6020BF
S2140057604FF4487CDFF828E14A4A9EF8003000FBF8
S21400577003F422F80480DFF820811119A1F810C084
S214005780C1F814C04E83C1F85880591CC9B24843AA
S2140057901418A4F810C0C4F814C06683C4F858805F
S2140057A0942415523F4D981C8EF800002878DFF898
S2140057B004C1444303EB430301EB41010CEB040E2D
S2140057C002EB431302EB41120CF80400CEF804304F
S2140057D0CEF8082001302870EDE5601C00F0DEFAF7
S2140057E08046E01C00F0DAFA0022054611464046E4
S2140057F02AF023FC00223824114628462AF01DFCF5
S2140058002948264A03784FF0000E04FB03FC22F8D2
S2140058100C804FF0010802EB0C0181F806E081F8DD
S214005820048003EB0801C9B24C4302EB040C155389
S2140058309C1C047070241D4D8CF806E028788CF8AB
S21400584004804443DFF870C0C3EBC303C1EBC1015F
S2140058500CEB040E02EBC30302EBC1020CF80400CF
S214005860CEF80430CEF808204044B4E74679013537
S2140058708E4284BF04714471B43010E5185B00207A
S214005880C8250020E86400209C1B00209C1C0020EB
S214005890175B0020A821002001510000781F00207F
S2140058A0145B0020135B0020165B0020125B0020B8
S2140058B0155B0020E019002090180020B9F1000FB9
S2140058C006D016F8052C02EB420204EB8204B46004
S2140058D03146584601F0E6FD09F101090BF1B40B1B
S2140058E00C361DE571180AD0481E09FB00B0C079B9
S2140058F000EB400004EB800409FB01B08460104616
S21400590009FB0151039201F08BFB39781C483144A6
S21400591009FB015101F0F2F8039A0136403209E51D
S214005920F54218BF11F8050C03911EBF00EB4000AE
S21400593004EB80048C6003FB052000F0EFFF039966
S21400594001350C3101E5F74218BF15F8053C29462C
S2140059501CBF03EB430304EB830408FB07A018BF3C
S214005960AC6000F0B1FE01370C3502E513F8011DFE
S21400597000297FF408AD3B2102F8011C03E500BFB7
S2140059806C1F002007B5012121200DF1070200F051
S2140059901DFA18B99DF80720024B1A7003B05DF87F
S2140059A004FB00BF906A002007B5064B8DF8070081
S2140059B0187001210DF10702212000F017FA03B03C
S2140059C05DF804FB906A002007B5022101200DF166
S2140059D0060200F0FBF938B9044814F075FDBDF86E
S2140059E0060003B05DF804FB0020FAE7D8AE03001B
S2140059F007B50221ADF806000DF10602012000F001
S214005A00F5F9014610B1034814F05EFD03B05DF8E9
S214005A1004FB00BFF9AE030010B5FFF7D5FF044640
S214005A200146074814F050FD0121064814F04CFDCD
S214005A3024B9BDE810400120FFF7DABF10BD00BF53
S214005A4029AF03003BAF030008B5044814F03CFD43
S214005A5000F0DCF92AF051FB2AF04BFB51AF0300B3
S214005A6038B50446084D094B28462B6000F004FA6A
S214005A70002C18BF21462846BDE8384008BF4FF422
S214005A8096712AF049BB00BFCC260020F1FF020029
S214005A902DE9F043384D91B008AC0746894690464C
S214005AA00FCD0FC495E80F00002684E80F000125EF
S214005AB00323324C3248CDE90366CDE905668DF8FE
S214005AC00E300796029534F03FFE2E4834F03CFE2A
S214005AD032462D4920468DF8176004F025FE3346E1
S214005AE032462A498DF81900009020468DF82390FA
S214005AF0CDF82C808DF8216004F030FE0A90204608
S214005B008DF8097004F092FD204608AA05A904F055
S214005B104BFE02AA204603A92BF0C1FB4FF40072ED
S214005B201B4B5A62194BE560626A920510D46BB93A
S214005B304FF40072164B11485A6204F077FD114874
S214005B4034F005FE002011B0BDE8F083013BEBE722
S214005B50002BEDD0094908A82BF0D4FB4FF40072B7
S214005B600B4B06485A6204F061FD064834F0EFFD20
S214005B70BDF82000E7E700BF644A04000040005A72
S214005B800C4D0400084D040080841E0040420F00A7
S214005B900060005A0122034B1870034B1980034B18
S214005BA01A7070471A5B00204C6A0020195B0020B0
S214005BB0F8B5454B1B780BB90020F8BD434B1B7856
S214005BC0012B03D1BDE8F8402AF015BA404B1C88DB
S214005BD04FF6FF739C42EFD03E4834F0B5FD0023ED
S214005BE0260AE4B21A462146304604F0DFFC012EAF
S214005BF0354604F0010335D015D9B51E012DDBD886
S214005C00002B0BBF4FF480754FF080754FF470611A
S214005C104FF070610BBF01274FF480370F204FF411
S214005C2070202D4B11E0002B0BBF4FF480754FF00A
S214005C3080754FF470614FF070610BBF01274FF411
S214005C4080370F204FF47020244B1A6802401CD077
S214005C50BA421AD01A680A4032D11A6822EA0102F9
S214005C602A4316E0002B0BBF4FF480754FF080756B
S214005C704FF470614FF070610BBF01274FF480370F
S214005C800F204FF47020164BDFE71A6822EA000256
S214005C903A431A602AF0AFF9054600288CD0083639
S214005CA044EA06102A460321C0B2FFF7F1FE40F68A
S214005CB0FF73684300F2FF70B0FBF3F080B27CE73E
S214005CC095427FF479AFC8E7195B00201A5B002085
S214005CD04C6A00200C4D040028C3035020C3035018
S214005CE024C3035010B5044C237823B9034834F07A
S214005CF02BFD0123237010BD1C5B00200C4D0400FF
S214005D002DE9F0431F4C85B0074688469146FFF7BD
S214005D10E9FF23781BB902F0F9F8012323707BBA58
S214005D20ADF80C3030220023174E02FB03F4315D31
S214005D30A51901BB012333554FF0FF3304F11000C2
S214005D4012493044AB606F80C5F80480C5F80C90EB
S214005D5009F08AFB04F10801042231440C4B00953B
S214005D6003A802F0A9F9A96802460A4814F0ACFB99
S214005D7005B0BDE8F0830133102BD6D1064814F0E9
S214005D80A3FBF5E71B5B0020F42600201B000300A6
S214005D902D0003005EAF03008CAF030080B10278D5
S214005DA0A2F14103032B0BD840783038C0B2082844
S214005DB006D8054B134413F8413C40EA03207047CD
S214005DC04FF6FF70704700BF844A040008B50B46C4
S214005DD042B101460448006803F0B2FABDE8084044
S214005DE02AF080B9022008BD5465002008B50B468D
S214005DF042B101460448006803F02AFCBDE80840AA
S214005E002AF070B9022008BD54650020F0B50026BF
S214005E10124F8DB0FF2300930A223346386802A93A
S214005E202AF0FAFFC0B102AB1D4603EB800404E083
S214005E3055F8043BB34228BF5E1CAC423868E9D92B
S214005E40296803F08BFD0028F2D02D28F0D00DB085
S214005E50BDE8F0402AF046B90DB0F0BD546500200C
S214005E6028B1034B0360034B4360002383607047F5
S214005E7019000003FC640020FF2307B50021044A34
S214005E800093083009F074FA03B05DF804FB00BF15
S214005E90130103000B4604490246086803490978C3
S214005EA008B12AF05DB97047042A00201E5B002066
S214005EB0F7B50C4618B12C21194834F09CFC246820
S214005EC023685E795F8830463946FFF7E3FFF0B116
S214005ED08568E5B1A089227D3946904291BF0020B1
S214005EE0801AA36880B294BF03469B18E27C009099
S214005EF03046A8470138032803D8DFE800F0080F2B
S214005F000B0D002420462EF0B9FA204600E0812032
S214005F1003B0F0BD8024F5E79324F3E78724F1E788
S214005F20B4AF0300F8B515460D4A044610680D4A8E
S214005F300B46117850B122462AF012F9034628B1D2
S214005F4000210C27C678B14201DB0020F8BD07FB14
S214005F5001F45A681019125BAA42F7D00131F2E731
S214005F60042A00201E5B002008B5034B1B6803B103
S214005F709847002008BD00BF002A0020514B2DE99D
S214005F80F74F1860504B0446197000230D46C21D8B
S214005F9019460C209D4208DC20290CDD20224B48A7
S214005FA003B0BDE8F04F14F08FBA00FB03F6965D21
S214005FB001333144EEE70026454F33010021F85CFB
S214005FC0013610F0A5FA0C2EF7D10C2D28BF0C25A3
S214005FD04FF0000901953E4EDFF800A13D4DDFF879
S214005FE00081019B4B4502DC03B0BDE8F08F2378AF
S214005FF04FF0000B337063887380A388B380A37957
S214006000C6F80880B371E379C8F8005088F8043001
S2140060104FF00003A768A8F80630E3795B450ADC72
S214006020012116F8100B10F073FA08F1080809F1B0
S21400603001090C34D5E74FF0000338886B812880BF
S214006040FB784FF0000C2B81BA78C5F804A0002A24
S21400605000920CBF802240222A7379680AF10C0253
S214006060634513DC03EB43030AEB830ABB6843B1C7
S214006070009A4FF6FF71B2FA82F2174B52092EF0D1
S2140060808DF914350BF1010B0C37C6E7B1F800E0BB
S2140060900CF1010C22F80CEC91F802E00C3202F83C
S2140060A016EC91F804E00C3102F815EC11F809EC46
S2140060B0BEF1010F14BF4FF0100E4FF0110E02F894
S2140060C014ECCDE7042A00201E5B00200BB0030072
S2140060D03C41002008300020B15E0000082A002065
S2140060E088320020014B1860704700BFF829002056
S2140060F0014B1860704700BF002A002070B5168854
S214006100044632460D46FFF70DFF38B933462A4699
S2140061102146094814F0D8F9862070BD0279BDF8EA
S21400612014309A4205D88168049815F031FB002097
S214006130F3E78920F1E700BF37B0030070B5128897
S21400614005460E46FFF7EEFE044670B10279049946
S214006150806815F01DFB064B1B680BB9002070BD50
S2140061603146284622889847F8E78620F7E700BF9A
S214006170F829002008B50FF067FA022806D0012893
S21400618006D0044B18784000C0B208BD0120FCE7DA
S2140061900220FAE71D5B0020054B10B51C682CB1E9
S2140061A0FFF7E8FF2346BDE81040184710BD00BFC4
S2140061B0F4290020014B1860704700BFF429002026
S2140061C070B534F011FB0B4D04462B788BB90A4E94
S2140061D0336823B147F23052C31A934209D90748AD
S2140061E014F072F9012334602B70BDE870400BF098
S2140061F08BBA70BD1D5B0020FC29002068B0030030
S214006200152808B509D100220A4B0B481A7014F05D
S2140062105BF9BDE80840FFF7BFBF1628F9D1FFF7C6
S214006220A9FF0028F5D1054814F04EF9FFF7C8FF7E
S214006230EFE700BF1D5B00208FB00300BAB003007D
S2140062400022024B1A70FFF7A7BF00BF1D5B00209D
S21400625037B50446002832D00FF0F6F9022830D1C0
S21400626060892EF06DFCE079237A003818BF012093
S214006270012B637A08BF40F008000BB140F0100015
S21400628063890BB140F00400257CA188A2790DB18A
S214006290E36873B90C4B10F017FD2178084610F030
S2140062A08FFD2DF076FF002814BF0320002003B0DA
S2140062B030BDCDE90035054B10F006FDEDE70220B8
S2140062C0F5E70120F3E700BF3700040051D00300D4
S2140062D008B50DF077FB014630B1044814F0F4F829
S2140062E0BDE808400DF012BF08BD00BFECB00300CB
S2140062F0034B044A5B7C012103201370FFF776BD35
S214006300E86400201F5B002010B50446FFF7F0FF8E
S214006310B4F57F4F0BD100240F4B1A8813449C70A2
S214006320FEF796FE2046BDE81040FFF799BB4FF6F5
S21400633001739C4204D1BDE81040084829F0E1BD35
S2140063404FF602739C4205D1BDE81040044B187806
S214006350FFF72ABB10BD00BF9C550020E864002054
S214006360906A002010B5074C012122460320FFF753
S2140063702DFD28B92378044A003B18BF0123537427
S21400638010BD00BF1F5B0020E8640020F8B5574B27
S214006390574C1A884FF6FF739A4218BF03234FF0E4
S2140063A0080218BF2370534B32251A7030229A7099
S2140063B05A7134229A713122DA7133225D70DD709F
S2140063C036251A724FF400121D714B4D4264C56497
S2140063D04A4D012205654A4D86188565494DC667B2
S2140063E0C565494D494E4566494D80F84820856645
S2140063F0484D80F854200567474D80F86020456773
S214006400202580F8785080F8845000F12105C0F8E7
S2140064108850424D80F86C20C0F88C50C0F88060E0
S21400642080F89020C0F89440C0F8B8303C4B3D4C03
S214006430C0F8BC300223C0F898403B4C80F8C0300F
S214006440C0F8A4400F24394B80F8A840C0F8C430E8
S214006450374B384CC0F8C8308223C0F8AC40364CB6
S21400646080F8CC30C0F8B0400924344B344DC0F826
S214006470D030344B80F8B440C0F8D4302C7C324B4B
S21400648080F89C20C0F8A00080F8D820C0F8DC3047
S21400649044B12E4B80F8E420C0F8E03005F111033B
S2140064A0C0F8E8304FF0000CCA798E6802EB420361
S2140064B09F00443006EB830326F807C0586001208F
S2140064C00D349870DC701318CB71FFF75BFAFFF78A
S2140064D049FFFFF74FFE012806D12B7C23B1BDE80C
S2140064E0F840174829F00DBDF8BD00BF446A0020EB
S2140064F0916A0020205B00209D4A040001002000D5
S2140065009C4A0400020020009B4A0400050042004A
S214006510030020009A4A04000400420007003000EE
S214006520FDFF21001200100100404200984A0400BE
S21400653000FF4401884A0400060042009C550020E3
S214006540E864002002FF2001906A002001FF10018D
S21400655013B504460D4829F03BFC6422C0F30F43F4
S214006560637083B2B3FBF2F3A0782370202201217C
S21400657029F018FEA0782122012129F013FE0449F3
S214006580201D02B0BDE8104029F0C6BD446A0020B8
S214006590E09304000B7870B583704CF61E030380FE
S2140065A04FF02013C362012380F8303080F83C306F
S2140065B0C3180364124B044643640223114A80F84E
S2140065C04830114B8263C3644063CA798D6802EB1E
S2140065D0420305EB830004F12C0646600B4E45F89B
S2140065E0236000238360531CCB71094B201DC4E934
S2140065F00134FFF741FC2046BDE87040FFF7A8BF16
S214006600FDFF2100210020009E4A04000100010336
S21400661051650000437B044A012113700078113055
S214006620C0B2FFF7E3BB00BF2A5B002038B50446C4
S2140066300078054D11302A460121C0B2FFF7C6FB8F
S21400664008B92B78637338BD2A5B0020024B53F8D9
S214006650200029F071BE00BFE8320020012908B5ED
S21400666006D0022907D049B929F05DFE002008BDF2
S21400667029F05CFEFAE729F05CFEF7E7024813F023
S21400668023FF0120F3E700BF19B1030010B4054C47
S214006690114654F820001A46BDF804305DF8044B45
S2140066A0FFF7DCBFE8320020002310B504468381E4
S2140066B00364A0F844304830FFF7DEFB014BC4E922
S2140066C0123410BD1F03030038B504460B781A4A6F
S2140066D043700D4642F82300FFF7E6FF2046FFF71B
S2140066E0A5FF4FF4401323610123144A2375A261CA
S2140066F0134A84F82030E261124A84F82C30626231
S214006700114A84F83830A26204F10C0222630F4A60
S21400671004F10D036263E363EA79A86802EB4203BF
S21400672000EB830110344C60094C40F82340094BC1
S2140067308B60531CEB7138BDE8320020295B0020CB
S21400674008002000926A002000FF300001FF1001C0
S214006750020101048D66000010B47024427B0D48CF
S214006760013A012904FB020006D0022908D059B9D3
S2140067705DF8044B29F0D7BD5DF8044B29F0D6BD73
S2140067805DF8044B29F0D5BD03485DF8044B13F0C3
S2140067909BBE00BF9018002035B10300B0F85C30F7
S2140067A02DE9F0418B4204460E4638D0437B077CE9
S2140067B08BB31C4A12789A422DD370251A4A013B95
S2140067C005FB032390F80F801B7B424629F0C2FD91
S2140067D0B845054601D1FF281FD13A463146204626
S2140067E094F8903029F0B6FD2F4605465522122122
S2140067F06078A4F85C6029F0D5FCFF2F03D03946FA
S2140068002046FFF7A9FFFF2D09D029462046BDE800
S214006810F04129F0DFBDFF25DFE70746E6E7BDE8E4
S214006820F08100BF125B002090180020416882684B
S214006830C978D27849B112B10321FFF7AFBF837B85
S214006840002B0CBF01210221F7E72AB1837B002B26
S2140068500CBF02210121F0E7014813F035BE00BF4E
S21400686046B10300037BD3B14368DA7812B182687D
S214006870D278A2B91B7933B1837B002B0CBF0421DD
S2140068800521FFF78BBF83681B792BB1837B002B19
S2140068900CBF05210421F4E7014813F015BE70472C
S2140068A078B10300084A437B05211370837B53703D
S2140068B0C37B9370037CD370037B137100780E3018
S2140068C0C0B2FFF793BA00BF2B5B002038B5044672
S2140068D000780C4D0E302A460521C0B2FFF776FA36
S2140068E020B1BDE83840084813F0EEBD2B7863733E
S2140068F06B78A373AB78E373EB7823742B792373ED
S21400690038BD00BF2B5B0020B4B10300024B53F828
S214006910200029F0A9BD00BF10330020F8B50446BA
S2140069200B78424A43700D4642F82300404E29F049
S214006930B9FDFFF7CBFF6268A3683E483E49D664C0
S2140069401165D4655065C3E91410DE64DC654FF04C
S214006950987302266361012304F10C01E161374953
S2140069601032216204F10D01A16235492376E162FD
S21400697004F10E016163334984F82430A16304F105
S2140069800F012164304984F83030616404F110014D
S214006990E1642E4984F83C3084F84830216584F858
S2140069A05460A265E879A96800EB400201EB820713
S2140069B004F1140CC7F804C04FF4817C244F41F84E
S2140069C02270C218D2B202EB420241F822C001EB9A
S2140069D0820700227A601F4A84F8703022661E4AB8
S2140069E084F88830A2661D4A1D4BE2661D4AC4F82C
S2140069F08C3062671C4A8319A26704F15C02C4F8F3
S214006A008020DBB2194A03EB4303C4F8842084F8E1
S214006A10646084F87C6001EB830260345460144A3E
S214006A20033041F82320E871F8BD00BF1033002082
S214006A302D6800002B04030065680000010020019B
S214006A40020010010300300104003001050021019E
S214006A5001FC01064A002100A04A04005100100073
S214006A60A24A0400A34A0400550021006F00180043
S214006A701200010470B50D460646144613460A4633
S214006A8001461A4813F020FD25B92046BDE870409F
S214006A90FFF73ABC072D05D121463046BDE87040C9
S214006AA000F0C4BC4FF601439D4205D12146304656
S214006AB0BDE87040FFF72ABF062D05D121463046B7
S214006AC0BDE8704000F066BAB5F5817F05D1214675
S214006AD03046BDE87040FFF7B9BD202D04D12046F2
S214006AE0BDE8704000F0ECB870BD00BFE3B1030035
S214006AF00148FFF7F7BA00BF756A00004FF4C013ED
S214006B0030B5036001230371074B8C688360CA7934
S214006B1002EB420304EB83056860044844F8230054
S214006B20531CCB7130BD00BFA44A04000400010111
S214006B300368064A0C211360436853600389138177
S214006B40438922205381FFF751B900BF3833002014
S214006B5010B50368044686B0FBB1114813F0B4FCC8
S214006B60A37B104A8DF804304FF48273ADF80630DC
S214006B700123CDE90223002301A804938DF81430E5
S214006B80FFF766FB2046618929F09CFC2046FA2127
S214006B9050F8143B594329F0BFFA06B010BD00BFA9
S214006BA016B203002000000110B5064C236843B15E
S214006BB0054813F089FC2068BDE81040418929F09B
S214006BC081BC10BD4433002037B2030070B536498F
S214006BD010460C68BDF81020002C5ED003285CD848
S214006BE0DFE800F0021E2745002B5AD0022A58D9AB
S214006BF01D78B3F80160291E18BF012132462B48C4
S214006C0013F062FC2DB13146204629F05BFC0020D3
S214006C1070BDE573FA206368584329F0EEFAF6E78C
S214006C20234813F051FCE37B002B38D00023E3739A
S214006C30F0E7002B35D0032A33D91D681D482946B6
S214006C4013F042FC1C4B2A1F9A4201D90220DFE7B0
S214006C5023680BB19D42F9D823899D42F6D3E37B86
S214006C606560B3B9FA20684329F0C7FA11E0002B33
S214006C70CED0012ACCD91D881048294613F024FC12
S214006C80002DE3D063689D42E0D8E37B2581002B8E
S214006C90E8D12046FFF74CFFB9E70120B8E704200B
S214006CA0B6E70320B4E700BF443300205AB203001F
S214006CB091B20300B0B20300FCFF6D00DBB203002C
S214006CC038B5154B1C6834B3F0B92168134813F077
S214006CD0FBFB23683BB16268934204D2104813F072
S214006CE0F3FB6368236004F11405284629F019FABB
S214006CF0236823B1FA212846594329F00DFA204685
S214006D00BDE83840FFF714BF032804D16189054861
S214006D1013F0DAFBF3E738BD4433002006B3030074
S214006D2034B3030069B3030070B53E4B0D4604460A
S214006D3009781860002A6FD101231A46A173002132
S214006D40E1730121A1814FF46151C4E900132823A6
S214006D50354E22810C21324622206381FFF736F819
S214006D6060B9D6E900230AB19A4207D3318999421D
S214006D709FBFC4E900237389218163812B4B2C4A72
S214006D80E363042384F8403084F84C30E31823652A
S214006D90284BA2646365022304F10802E265264AD2
S214006DA084F85830226604F10A02A266234A84F860
S214006DB0643084F8703004F10C03E2666367646440
S214006DC0EA79A86802EB420300EB830104F13C0673
S214006DD04E601B4E40F82360FA261A4B1A488B600A
S214006DE0531CEB71FFF784F9208904F114057043F6
S214006DF029F003FA6189204629F064FB134B2846E4
S214006E00C4E90534FFF738F8216849B128467143CC
S214006E10BDE8704029F080B94FF4F07302228DE788
S214006E2070BD00BF4433002038330020000023012B
S214006E30010023000200210003002101FDFF2100C4
S214006E4020000105CD6B0000A96B0000516B00000F
S214006E50134B10B51C680CB3E37BEBB129F065F956
S214006E602369C01A002809DB0E4813F02DFB002307
S214006E70FA20E3736368584329F0BFF9E37B5BB1FC
S214006E802489FA235C4329F0C3F9A04206D02046A1
S214006E90BDE8104029F0B1B96468F2E710BD00BF44
S214006EA04433002096B3030038B50024044D55F84B
S214006EB0040B08B129F019FB01340A2CF7D138BDB0
S214006EC048330020042908B50AD172B16BB1137893
S214006ED01BB929F035FB002008BD29F027FBFAE78F
S214006EE0034813F0F1FA0120F6E70320F4E700BFA9
S214006EF0D0B3030010B4054C114654F820001A46CF
S214006F00BDF804305DF8044BFFF7DCBF48330020C3
S214006F100229024608B50ED004D839B9104629F021
S214006F200FFB06E04029F9D0412907D1104629F089
S214006F30FDFA002008BD29F00DFBFAE7024813F021
S214006F40C3FA0120F6E700BFF0B3030010B4054C07
S214006F50114654F820001A46BDF804305DF8044B7C
S214006F60FFF7D6BF48330020426B094B52791A70A0
S214006F7082785A70C2789A70826B12B190F83C2070
S214006F80DA70007804210930014AC0B2FEF72EBF3D
S214006F90305B0020024B53F8200029F0F7BA00BF00
S214006FA04833002038B504460078084D09302A4694
S214006FB00421C0B2FEF70AFF30B96B78A370AB7835
S214006FC0E370EB7884F83C3038BD00BF305B0020BF
S214006FD038B504460078114D09302A460421C0B25F
S214006FE0FEF7F4FEC8B9A3782A78022B0CD004D892
S214006FF063B9204629F0A4FA01E0FF2B0AD0204608
S214007000BDE8384029F071BA002AF2D1204629F0AE
S2140070108DFAF4E7002AF9D1EBE738BD305B0020A3
S214007020F8B504460B78284A0D4642F8230043700C
S214007030FFF7B8FF636B254A5C631A632046FFF7C9
S214007040C7FF204629F051FA4FF4801363600123EE
S214007050626BA66B0532E2601D4A23722261A21C97
S2140070602375A26166B11B4A84F82030E261E21CF7
S2140070706262194A84F82C3004F13C03A26223634E
S2140070800627EA79A96802EB4203002E21F823704E
S21400709001EB83000CBF02230423C370012383701B
S2140070A00E4B04348360531C4460DBB20C4C03EB81
S2140070B0430341F8234001EB830000234360094B60
S2140070C002328360EA71F8BD483300206905030088
S2140070D00340300101FF300102FF10014D6F000038
S2140070E008000100F56E000028B1034B1B788342B0
S2140070F034BF002001207047145B002070B50025C7
S2140071000A4C0B4E3378AB4200DC70BDD4F8A4209A
S21400711042B123791BB16079FFF7E6FF10B910463C
S21400712028F0E0FE0135B434ECE700BF9C1C0020DC
S214007130155B002008B5427901461046FFF7D4FFDC
S214007140A8B1CB780A48013A042B00EB82100ED87F
S214007150012B08D81BB9BDE8084029F0E7B9BDE8FF
S214007160084029F0EDB9BDE8084029F0F3B908BD9C
S2140071709C1B002008B5427901461046FFF7B4FF75
S214007180A8B1CB780A48013A042B00EB82100ED83F
S214007190012B08D81BB9BDE8084029F0D1B9BDE8D5
S2140071A0084029F0C3B9BDE8084029F0D3B908BDA6
S2140071B09C1B002010B586B00446FEF7DBFF0128B6
S2140071C030D1E278042A2DD8DFE802F013323403F7
S2140071D0030061790846FFF787FF58B31648032A6D
S2140071E000EB811050F80C3C58791DD1003818BFC0
S2140071F0012063784FF480728DF804304FF4827368
S214007200ADF806300623ADF8083001238DF80B30B4
S21400721000238DF80A0001A8CDE903238DF8143069
S214007220FFF716F806B010BDB0FA80F04009E0E7A8
S2140072300020DEE70220DCE79C1B002010B586B0AD
S2140072400446FEF797FF012830D1E278042A2DD8AD
S214007250DFE802F013133203030061790846FFF7F4
S21400726043FF48B31548032A00EB811050F80C3C46
S2140072705B791DD11A1E18BF012263788DF80A208B
S2140072808DF804304FF48273ADF806300623ADF85F
S214007290083001234FF480728DF80B30002301A8CC
S2140072A0CDE903238DF81430FEF7D2FF06B010BDEB
S2140072B0B3FA83F25209E0E70222DEE79C1B0020C5
S2140072C010B586B00446FEF755FF012812D1637844
S2140072D0094A8DF804304FF48273ADF806304FF447
S2140072E08073CDE90223002301A804938DF814309F
S2140072F0FEF7AEFF06B010BD0800070110B586B059
S2140073000446FEF737FF012820D16278104B8DF82F
S21400731004204FF4827294F8A01094F8A1005970DB
S2140073201870ADF8062004934FF4807202230949C2
S21400733001A88DF81430CDE90212FEF789FF94F803
S214007340A130013B18BF012384F8A13006B010BD60
S214007350345B00200800050110B58378044603B3AB
S2140073600379022B0AD142791046FFF7BDFE28B1F9
S2140073700C48013A00EB821029F0ECF8A379022BB6
S21400738002D12046FFF716FF2046FFF7B7FF02237D
S2140073906078A4F86C305522BDE81040122128F021
S2140073A001BF10BD9C1B00204388094A082113809A
S2140073B08388538083681B8A938090F8A0309371EB
S2140073C08379D37100780430C0B2FEF70FBD00BFDA
S2140073D01E56002038B50D4604460178114813F0B5
S2140073E073F84FF602739D420ED10F4B1B782BB9E4
S2140073F063712046BDE83840FFF7D6BF62790AB110
S2140074009342F6D20123F3E7B5F57F4FF1D120463C
S21400741029F039F9A378022B0CBF01220022A368B9
S2140074209A70E6E70CB40300145B0020024B53F896
S2140074302000FFF7CFBF00BF7033002038B50446EA
S2140074400078144D04302A460821C0B2FEF7BEFC70
S21400745020B1BDE83840104813F036B82B8863805A
S2140074606B88E978A380AA88A3681A82AB7984F827
S214007470A030EB79A371094B1B780BB9637138BD4B
S21400748009B19942FBD9064813F01EF82378013358
S214007490F4E700BF1E56002026B40300145B00204D
S2140074A04FB40300F8B504460B78524A0D4642F82E
S2140074B023004370FFF7C2FFA3684F4ADC65DA6417
S2140074C04E4A02265A654E4AA11C1A654FF44012CF
S2140074D0E26001226161E1624A491033216323655B
S2140074E0211D494BA16349484949636504F1A0033E
S2140074F0A061E163E365E01C611D464B20626164A8
S214007500454846492366A31D22742277606284F8A4
S214007510282084F8342084F8402084F84C6084F8CE
S214007520582084F86420A164A366E979AB6801EB6F
S214007530410003EB800704F10C0CC7F804C0384F79
S21400754004F1A80C43F820704FF48010C4F8A8008B
S214007550344884F8AC20C4F8B0008818C0B200EBF9
S214007560400003EB8007C7F804C04FF0060C2E4F10
S21400757043F820708819C0B200EB400043F820C0E2
S21400758003EB800700207860284F84F88020276768
S214007590274F84F89820A767264F274AE767274F84
S2140075A084F8746084F88C60C4F89C2004F16C063F
S2140075B0CA1CC4F88470C4F89060214F214ED2B221
S2140075C002EB4202C4F89460C4F8887003EB8206AB
S2140075D07034746008261C4C43F822400A1DD2B250
S2140075E002EB420203EB8204053143F8226060603E
S2140075F0E971F8BD70330020DD050300270603009F
S2140076005973000001FF300104FF20011000300113
S21400761002FF200105FF300100FF300103FF2101BA
S21400762007000108365B0020060001014A00210021
S214007630A64A040051001000A84A0400A94A040003
S214007640550021006F0018001200010400239B6AF9
S214007650B3F5804F03D21968064A914203D000233F
S214007660037083607047012202709A689B694260CB
S214007670F7E700BF07B0CD5E024B034A1A602AF058
S21400768026BC00BF0000002002020FF073B53F4B7F
S21400769004461A781AB102221A7002B070BDCDE9FB
S2140076A000220028F9D001261E7032F0AFFF384DB8
S2140076B0384B186017F0EAFC2B785BB902F0F2F949
S2140076C040B935480823354A3549006801F038FE88
S2140076D000B92E70334B5A68E260334A9A601A6ECD
S2140076E022605A6E6260D3F87021A2601B6E5C0442
S2140076F02CD52E4AD368D807FCD42D4B1A68531CB9
S21400770029D04FF4801393402A4A13660423294C49
S2140077104FF0804223664FF480632366102323666F
S2140077204FF400536846236601A92266636628F074
S214007730C2FF009B2366019B63662B78002BACD0B0
S214007740164B1A6822665B686366A6E71A4AD36811
S214007750D907FCD4D1E7194B1B78002BD6D1184B90
S2140077605A68144B12B94FF480121A66154A5268BA
S21400777012B94FF400121A66134B5B68002BC5D182
S2140077804FF480020B4B1A66C0E700BF385B002040
S214007790395B0020A833002054650020AC3300205D
S2140077A0007108000080004455CEAC000000044084
S2140077B0206500200090004400000450375B002045
S2140077C00080055000C005500000065038B5224D18
S2140077D004462B78012B02D001232B7038BD0028DD
S2140077E0FCD028F08DFF013009D028F089FF40F248
S2140077F00113984203D0194AD368DB07FCD42268E9
S214007800174B1A6662685A66A268C3F87021E26867
S214007810D40744BF00229A60124B1A68013213D173
S214007820114A127882B911494968C80748BF1A60D8
S2140078300F4A5268D10744BF01221A600D4A5268A7
S214007840D20744BF02221A6017F028FC0A4B1868B9
S21400785032F0D7FE0023C0E7385B0020000004406B
S2140078600080004420650020375B00200080055023
S21400787000C0055000000650A833002070B5002454
S214007880A36AB3F5804F23D21A68134B9A421FD1CE
S214007890124E337813F0FD0518D14FF4803410489B
S2140078A0FFF7F4FE032004F04FFC0E4B0320DC60D1
S2140078B004F02EFC0C4B1C61AB6ADB69984704464F
S2140078C00748FFF783FF0CB901233370204670BDCD
S2140078D04FF48174FAE700BF07B0CD5E375B002037
S2140078E09833002000A000440090004413B5204BBD
S2140078F01B7803B9FEE700231E4CCDE900336A4629
S21400790008231D49206801F01BFDF8B91B4AD2F870
S2140079104031D2F840211F2B4FF0010311D9203AF5
S2140079209340019A1A43019208236A461249206836
S21400793001F08EFE124B134A1A602AF0C8FA02B003
S21400794010BD9340009A1A430092EDE72D28F1D11E
S2140079500A4AD2F84031D2F840211F2B4FF00103DB
S21400796085BF203A93409340019398BF0093DBE78E
S214007970385B002054650020007108000080004439
S214007980000000200B020FF038B50025AB6A044655
S214007990B3F5804F10D21B6BB3F5804F0CD207485F
S2140079A0FFF774FEAB6A20461B6B5B689847BDE822
S2140079B038400248FFF70ABF38BD00BFB433002086
S2140079C013B50024A36A0190B3F5804F13D21B6B46
S2140079D0B3F5804F0FD20948FFF758FEA36A01217E
S2140079E01B6B01A89B69984704460448FFF7EEFE08
S2140079F0204602B010BD4FF48174F9E7B43300207E
S214007A0070B50026B36A0446B3F5804F0D4612D211
S214007A101B6BB3F5804F0ED20848FFF737FEB36AEC
S214007A2020461B6B29469B69984704460348FFF788
S214007A30CDFE204670BD4FF48174FAE7B4330020C3
S214007A4070B50026B36A0446B3F5804F0D4612D2D1
S214007A501B6BB3F5804F0ED20848FFF717FEB36ACC
S214007A6020461B6B2946DB69984704460348FFF708
S214007A70ADFE204670BD4FF48174FAE7B4330020A3
S214007A80F8B50027BB6A0446B3F5804F0D46164688
S214007A9011D21B6B7BB10948FFF7F8FDBB6A204685
S214007AA01B6B324629465B6A984704460348FFF735
S214007AB08DFE2046F8BD4FF40174FAE7B43300207B
S214007AC070B50026B36A0446B3F5804F0D4612D251
S214007AD01B6BB3F5804F0ED20848FFF7D7FDB36A8D
S214007AE020461B6B29469B6A984704460348FFF7C7
S214007AF06DFE204670BD4FF40174FAE7B4330020E3
S214007B00F0B50027BB6A0446B3F5804F0D4616460F
S214007B10ADF5337D20D21B6BB3F5804F1CD21048D9
S214007B20FFF7B4FDBB6A20461B6B40F2C1225B6ABE
S214007B3001A99847044630B10948FFF747FE20469A
S214007B400DF5337DF0BD836A32461B6B2946DB6A32
S214007B5001A898470446EFE74FF40174EFE700BF2B
S214007B60B433002010B50024A36AB3F5804F10D2BA
S214007B701B6BB3F5804F0CD20748FFF787FDA36A4F
S214007B801B6B1B6B984704460348FFF71FFE2046F7
S214007B9010BD0124FBE700BFB4330020F0B58FB062
S214007BA0044601A80E461546FFF7EEFE9DF80C307B
S214007BB0012B12D1B5F5402F27D8B4F5402F24D885
S214007BC06319B3F5402F20D821462A46304613F0D5
S214007BD01DFF002420460FB0F0BD0027BB6AB3F59A
S214007BE0804F15D21B6BB3F5804F11D20A48FFF7B2
S214007BF04DFDBB6A2A461B6B314620465B6B984799
S214007C0004460548FFF7E2FDE4E740F20244E1E7F8
S214007C1040F20114DEE700BFB4330020F0B58FB0A9
S214007C20044601A80E461546FFF7AEFE9DF80C303A
S214007C30012B1FD1B5F5402F06D8B4F5402F03D839
S214007C406319B3F5402F13D940F2024420460FB013
S214007C50F0BDE258013225D104339D42F9D82A46B8
S214007C603146204628F07CFD0028EDD00024EDE7C4
S214007C700023F2E70027BB6AB3F5804F15D21B6BD3
S214007C80B3F5804F11D20A48FFF700FDBB6A2A46BB
S214007C901B6B314620469B6B984704460448FFF70B
S214007CA095FDD3E740F20344D0E740F20114CDE758
S214007CB0B433002070B58EB0044601A80D46FFF719
S214007CC063FE9DF80C30012B22D144EA0503C3F372
S214007CD00C03002B33D1B5F5402F04D940F20244F3
S214007CE020460EB070BDB4F5402FF7D82544B5F544
S214007CF0402FF3D8204604F5005428F02AFDAC4265
S214007D0002D00028F6D1E9E70028E7D00024E7E70C
S214007D100026B36AB3F5804F14D21B6BB3F5804FC1
S214007D2010D20A48FFF7B2FCB36A29461B6B2046FE
S214007D30DB6B984704460548FFF748FDD0E740F25E
S214007D400444CDE740F20114CAE700BFB433002074
S214007D50BFF34F8F0549064BCA6802F4E06213432F
S214007D60CB60BFF34F8F00BFFDE700BF00ED00E024
S214007D700400FA0570B5D0B1C9B10E4E431E0139E4
S214007D8013F8014F2046325D02F00302012A11F873
S214007D90012F08BF04F12000B55C05F00305012D96
S214007DA008BF2032801A01D1002CE9D170BD012015
S214007DB0FCE700BF7D7204000348044A0449121A17
S214007DC0921028F019BD00BF34410000D0420000D8
S214007DD05062002008B5154B83F30A8800F030F88F
S214007DE0FFF7EAFF124B13498B4212D30020124BC7
S214007DF012498B4218D3FCF775FF186850F82240DA
S214007E00586840F82240013298688242F5D30C3315
S214007E10EAE70022F8E71C6844F8220001325C68B2
S214007E20A242F8D30833E4E70022F8E7080000206F
S214007E301C9704002897040028970400289704003D
S214007E40124B134A70B59A60D3F88820114D42F44D
S214007E507002C3F888206FF0010205F50054226610
S214007E6041F2FF7262660222C3F8D020BFF34F8F42
S214007E70BFF36F8F4FF44036032004F065F90320FC
S214007E80E66004F045F92E6170BD00BF00ED00E02D
S214007E900040000000800044014B1860704700BF9F
S214007EA028650020054B1860054B1B6F03F0070381
S214007EB0032B01D130F0F0BC704700BF30650020C6
S214007EC0008000502DE9F04104464FF001080C25D3
S214007ED00D4E0CB9BDE8F08194FAA4F0B0FA80F02B
S214007EE00F2808FA00F2C8BF103824EA0204CABFF6
S214007EF005FB006205FB0062B4325768002FE8D02D
S214007F009168C0B2B847E4E7C433002008B50C480F
S214007F1032F01AFC192004F009F928B1192004F0EF
S214007F2013F9192004F0F4F81A2004F0FFF828B129
S214007F301A2004F009F91A2004F0EAF8002008BD17
S214007F400C4D04002DE9F0410E461746054618B3C1
S214007F500F2923D80378DBB1013BDBB2022B19D8FB
S214007F60104AD35C6A78D340DB0717D50E4BD3F89C
S214007F701043ACB932F04AFB80463A4628463146B2
S214007F8002F042FE404632F03CFB2046BDE8F0815F
S214007F907F23E7E70023E5E72224F6E72124F4E73A
S214007FA00224F2E7FC4A040000C0035010B5044661
S214007FB010B30378E3B1013BDBB2022B1AD8104AA8
S214007FC0D35C6278D340DB0718D532F01FFB012262
S214007FD0617823788A4030214B4341F2100103F147
S214007FE0A04303F570335A5032F00BFB002010BD4F
S214007FF07F23E6E70023E4E72220F8E72120F6E7E0
S214008000FC4A040010B5044610B30378E3B1013B04
S214008010DBB2022B1AD8104AD35C6278D340DB0757
S21400802018D532F0F3FA0122617823788A4030219D
S2140080304B4342F2100103F1A04303F570335A504C
S21400804032F0DFFA002010BD7F23E6E70023E4E7E6
S2140080502220F8E72120F6E7FC4A040038B50D4652
S214008060044618B311B30378E3B1013BDBB2022B2D
S2140080701AD8104AD35C6278D340DB0718D532F0A2
S214008080C5FA30222378534303F1A04303F5703337
S2140080905B696278D34003F001032B7032F0B1FACB
S2140080A0002038BD7F23E6E70023E4E72220F8E738
S2140080B02120F6E7FC4A04002DE9F0410D4616465D
S2140080C09846044600284FD000294DD00178002954
S2140080D040D04B1EDBB2022B3ED8254AD25C6378DA
S2140080E0DA40D20701D4FF2940D1022E01D9042E4E
S2140080F03CD132F08BFA23780746FF2B05D0324668
S2140081002046296802F0C6FD28602B68013309D195
S2140081102378FF2B06D1174B6078D3F8241429F068
S21400812046F9286029684B1C18D00C23124A03FB1A
S2140081300122069BC2F8048093602378FF2B04D0AC
S21400814001230E4A8B40C2F82434384632F059FADE
S214008150002007E07F22C2E70022C0E7384632F060
S21400816050FA2D20BDE8F0812220FBE72120F9E718
S214008170FC4A040000C00350C433002000D0035063
S21400818008B502F037FD044B00F05530C3F8200464
S214008190BDE80840FFF796BE00E0035008B502F0C1
S2140081A029FD044B00F0AA30C3F82004BDE80840BF
S2140081B0FFF788BE00E003502DE9F04F1446054651
S2140081C00E469B46C36B87B001225B6902A96068B6
S2140081D09847EB6B01225B6903A93046984702A8D3
S2140081E028F009FF074648B10023A37563754FF0D2
S2140081F0FF33A360002007B0BDE8F08F03A828F087
S21400820007FF0123A375237E04EBC303DE611F84EF
S2140082106368B3420ED1206003A828F01BFF4FF01E
S214008220FF332075A360237D043B022B26D8002352
S214008230A375DFE723681A1A53425341A37503A8B0
S21400824028F008FF237D834218BFA77503A828F0EF
S214008250E3FE074602A828F0DFFE874218BF002389
S21400826003A818BFA37528F0DFFE074602A828F06B
S214008270DBFE87421CBF0023A375D4E703A828F0C3
S214008280CBFE80B1EB6B022230465B6904A99847AF
S21400829004A828F0D0FE0346207D032839D8DFE85E
S2140082A000F03838040903A8F3E7CC22237E04EB59
S2140082B0C3031A8401F06EFC109B187003A8277E77
S2140082C028F09EFE04EBC70787F82200237E03A84B
S2140082D004EBC303B3F8209093F8227028F09CFEBA
S2140082E0804603A828F0A0FE8246B8F1000F15D0FD
S2140082F0EB6B022230465B6904A9984704A828F075
S2140083005FFE6075637D6BB90023A3754FF00008B0
S21400831038E0227E04EBC2021384CBE703A828F0E1
S2140083203AFEEEE794F81680B8F1000FEED0B9F1F9
S214008330000F09D1DFB10123E375637E002B4FD117
S214008340012F42D1677614E06B6C06EB0A015A42A5
S21400835086EA010010421CBF0022A2755A1E0A407F
S2140083609B1A9945D0D8A37D002BE3D1CEE7E37DB9
S21400837043B94FF000084B4652463146284628F08F
S21400838085FBA060A27D12B123694B4423611A4984
S214008390237E097899422AD901332376BBF1000F50
S2140083A027D032B3E37D23B3B8F1000F21D1032FDA
S2140083B01FD0A1684B1C1CD0109B22460093284659
S2140083C00123FFF7F9FEA07513E095F8343063B982
S2140083D0EB6A0133CFD1032FCDD10123A376C8E7B3
S2140083E0012FCFD0032FC4D1F7E79846C3E7002369
S2140083F0A375A07DFFE600BF204B04002DE9F04FDB
S2140084000E46984600238BB004464FF0FF311046C8
S21400841017468DF8133001F0A7FBB6F5801F20D263
S214008420314605AA04F1080028F037FD451C014630
S21400843003D1237CBBB92D2010E0384601F094FB15
S2140084400122394620460DF1130328F071FB00285F
S214008450EFD09DF8133088F8003000200BB0BDE850
S214008460F08FB01CE5D1E56A691C36D12046616AFA
S21400847028F052FA0546B31C18BF0123DFF8CC904B
S2140084800193636A626C0293236805A902FB053AAE
S214008490E36B05225B695046984705A828F046FE20
S2140084A028F069FE504628F071FE4FF0000B824619
S2140084B001464B1C05D0636C81EA0A025B421342FC
S2140084C011D02946204628F027FA029BAB422CD032
S2140084D0BBF1000F2CD10546D3E72368ED1A636C79
S2140084E0B5FBF3F5C7E7484601F03EFB0DF1130375
S2140084F049462046019A28F01BFB034690B1B21C61
S21400850003D0D9F80020B2420CD19DF81320039373
S2140085100D4B88F8002049461A68384613F076FA5C
S214008520039B9B46D9F80810C3E7BBF1000F82D027
S214008530B6F5801F91D2314698F800307A6804F17B
S214008540080001F03FFA88E71C4B0400A03B00201F
S2140085502DE9F3410446174698460E46184D816AA3
S214008560E36A8B4201D04B1C02D102B0BDE8F08119
S214008570284601F0F9FA0122294620460DF10703A4
S21400858028F0D6FA38B14346294620469DF80720FB
S214008590B8470028E9D0A9684A1C04D16968204673
S2140085A028F047FA0146012EDAD16B6881EA030209
S2140085B0636C5B421A4218BF4FF0FF31D0E700BF32
S2140085C0743B00202DE9F04F4FF0FF334FF6FF725B
S2140085D00025044600F10806C0E909238BB0C362F3
S2140085E0056205633046884628F028FC204628F0B9
S2140085F063F960BB2046414628F0DEF9204628F0A5
S2140086005BF960BB5E200BB0BDE8F08F2368E26BC1
S214008610606C576900FB0530052205A9B84705A818
S21400862028F084FD012807460CD12946204628F06C
S21400863094F9012F024600D101322946204628F03F
S2140086405AF903E028F09CFD0028EED10135E369D5
S2140086509D42DBD3204628F02FF90028CAD00025FB
S2140086604FF0FF394FF6FF73CA46A846C4E90853D1
S214008670E36998450AD3A5EB0905012D2CD84FF6DA
S214008680FF72636A93423CD16720BCE72368E26BC3
S214008690606C576900FB0830052205A9B84705A895
S2140086A028F044FD834605A828F017FD07465846DF
S2140086B028F061FD68B1574538BFC4F82480B94535
S2140086C028BFB946BD4238BF3D46BA46236A013385
S2140086D0236208F10108CBE74FF6FF7300256362BB
S2140086E0E3699D42CBD2676C2068E36B052207FBEB
S2140086F005005B6905A9984705A828F0EEFC01353A
S214008700EEE7E26B676C2068694607FB0300556975
S2140087100522A847684628F0E0FC626A2368606C79
S2140087204B4D00FB023028F031FD4FF0FF33A062C6
S214008730E3622A466FF00101204605ABFFF75EFEB6
S214008740002846D1AD6829462046E56228F090F814
S214008750206320B92046E16A28F06BF9E0622946DA
S214008760204628F066F90546A36A9D4233D1204686
S21400877028F051F800278046B946E36999453CD36E
S214008780B84559D92046616A28F0C6F8002605463D
S21400879004F1400AB74212D8626C2368694602FBAD
S2140087A00539E36B05225B6948469847684628F01A
S2140087B094FC534602464946E06B28F0E9FC2946FD
S2140087C0204628F0A9F80136B0450546E2D16420D7
S2140087D019E7A56AB7E72946204628F049F8236B2B
S2140087E02946034407462363204628F022F9054617
S2140087F0002FB9D1C4E90B07B6E7636C25680522DC
S21400880003FB0955E36B05A95B692846984705A84D
S21400881028F08CFC28F0AFFC58B1284628F0B6FCAF
S2140088200146204628F024F8636C143B984208BFA3
S214008830013709F10109A0E7304628F0FFFA0023C6
S21400884020461946034AFFF783FE0020DBE600BFFA
S214008850CC3B00201F0B03002DE9F041036B904634
S214008860826B07689A4288BF8363426C436A90B003
S21400887002FB0377C36B0E46052201A95B6904461B
S2140088803846984701A828F051FC01280146307068
S21400889057D0656CE26B2368606AD2F814C005FB9B
S2140088A00030052206A9E04706A828F03FFC01286C
S2140088B04FF0000523D0D4E90A3201219342CDE9D6
S2140088C00B458DF834800E958DF83C102AD119464C
S2140088D0204628F0AEF8236B626C14339B1AE062D5
S2140088E023630C9B53B99DF83C303BB1626A616CC4
S2140088F02368E06B01FB023128F0D0FB0C9DE36B94
S21400890005225B6901A93846984701A828F00EFCA5
S21400891030702846236BA26B9A4288BFA36310B0C0
S214008920BDE8F081237C33B91C490BAA04F108008A
S21400893001F096F8D5E72046194A0BABFFF708FE7C
S214008940CFE7237C23BB2246164904F1080001F03A
S21400895087F8616A204628F000F8616A421C2046C3
S21400896027F0C9FF054620B9236B626C1344143BFD
S21400897023632046A16A28F05CF82368A062C01A28
S214008980636CB0FBF3F06062204628F095F8B6E71B
S21400899000232046044AFFF7DBFDDAE7FD900000DF
S2140089A079900000B90B0300550B030073B50D4614
S2140089B0D11E4A421C461B7E4A419A4226D129684D
S2140089C02368994222D3636899421FD8114E0DF14D
S2140089D007033246FFF712FDC0B972686B689A4209
S2140089E014D19DF80730DA1E53425341227E93423B
S2140089F00CD1636901336361D4E90323934205D242
S214008A002968A26842F8231001332361012002B0CE
S214008A1070BD00BFCC3B00202DE9F04F9B4689B0CF
S214008A209DF848309046514A0193136907465B45C6
S214008A300D46C0F09580D94653680093B9F1000FF3
S214008A407BD0FB6B01225B6905A90098984705A8B7
S214008A5028F0DEFA454B1B68984240F0848005A853
S214008A6028F0E2FA0428064615D105A828F0E3FA0D
S214008A70009B04461E44019B002B3ED1804512D924
S214008A801C46A8EB00083846009927F0D2FFA9EB51
S214008A9004090090D2E7FB6B02225B69009806A9E6
S214008AA0984706A8E2E7A0EB08045C4528BF5C46AA
S214008AB0032C4644ABEB040B1DD9FB6B2946304612
S214008AC05B69A208984724F0030304F0030A1E44D7
S214008AD01D44DDF80480BAF1000FD4D0FB6B0122F0
S214008AE006A930465B6998475246284606A912F002
S214008AF08DFF5544C7E7A246EBE7824600F0030326
S214008B0002932B1803930644039BA6EB0A00A3EBE1
S214008B100A05029B9A4514D1BAF1000FB3D0FB6B3D
S214008B20012206A95B6998475246284606A913F013
S214008B3029F90028DDD04FF03609484609B0BDE8CF
S214008B40F08FFB6B012206A95B6998470422284632
S214008B5006A913F017F90028EDD1AAF1040AD3E705
S214008B604FF06309E9E74FF06F09E6E7F83B0020AE
S214008B702DE9F0410F4616469846044688B060B385
S214008B8090F83450FDB1012127F08BFE00210E9B9A
S214008B90CDE90511CDE902379DF83C30CDF80480CB
S214008BA08DF81C30237C04968BB90D4901AA04F17C
S214008BB0080000F055FFDDE90553E06B002E08BF06
S214008BC01D4628F007F8284608B0BDE8F081204684
S214008BD0044A01ABFFF7BCFCEDE70546F3E700BF30
S214008BE0830B0300AD8900007FB590F84260044611
S214008BF001920DF10B030A463046114927F0F2FFA9
S214008C00012E0546E36B17D132465B6903A99847E8
S214008C109DF80B10039B019A59B19BB243EA02439D
S214008C20012228460393E36B03A99B69984704B087
S214008C3070BD62F30F03F3E701229B6901A9F5E714
S214008C40F83B00202DE9F04F99B00E460D920A69C8
S214008C50416C0B931439D31DB3FBF1F3013302EBD4
S214008C60C302036B04469342C0F001820023DFF880
S214008C7004940893E36A48461946059300F074FF87
S214008C80D6E9033707930B9B022B4DD1CC2F40F030
S214008C90D7810D9B3BB13146204627F0F9FF656C26
S214008CA01490012044E00120079B656C1B68149318
S214008CB000F0010000280CBF04230823782F0E9331
S214008CC049D8059A6B1E1340ED1A3B1D9D423CD2B7
S214008CD0002F3DD0082D3ED80023042506934FF0E4
S214008CE0040A336806990B98C9F80030C9F8107062
S214008CF028F0B4F94FEA9A030F93059B89F81400FD
S214008D000393002309930C9304930A93616C039BCB
S214008D104A1E1A408B1A27B35544AB4223D8236BFE
S214008D205B1A134423632FE1782F656CB9D8F07D66
S214008D300D9B002BBCD0E36B01225B69706816A903
S214008D40984716A828F068F9B4E700250695C6E700
S214008D5004250697C3E7012300254FF0080A06936B
S214008D60BFE75345DBD3A3EB0A029742039BB84603
S214008D7028BF90469742534428D90122D9F81010AC
S214008D8089F817208F4226D10399C9F80410049257
S214008D9099F817200AB399F818100398CA1C09EB1B
S214008DA0C202506004980131A2F80880907289F8D7
S214008DB01810B8F1000F07D00B9A022A40F08180F5
S214008DC0099A72B1012209929B46ABE0049A002AE6
S214008DD018BF0322DBE70222D9E7039AC9F804206A
S214008DE0E7E70C9A4244032AEED9E26B18469569E7
S214008DF014A901220993A847099B05460028E1D03B
S214008E003D2D40F01E8104F1080303932368059A64
S214008E10606CA2EB030ABAFBF0FA00FB0A3028F0FB
S214008E20B5F9E16A8046204627F003FEA26A824230
S214008E3000F00F81626CD9F80830511E0B40216B90
S214008E402768891A0B442363089BE062DF1BB7FB85
S214008E50F2F7BA4540F0FA80059BB3EB080A12D049
S214008E60E36B4FEA9A0241469B6998478346E36A5A
S214008E70059A5344E362236B03989B1A4344236387
S214008E8027F0DCFFDA462368616CE06B01FB0731F4
S214008E9028F0F1F8204627F00FFD204627F00CFEBC
S214008EA02063BAF1000F00F0D4803269616CD31DE4
S214008EB01439B3FBF1F3013302EBC3029042A5D29F
S214008EC0BFE00D9A002A77D1B8F1030F4FEA980257
S214008ED06ED9E16B18468D6907991093A847109BC9
S214008EE00546C0B918F0030515D0079A28F0030BFD
S214008EF002EB0B019B444FF0FF3215A815922A4651
S214008F00109312F083FDE26B5846956915A901226D
S214008F10A8470546109B9B46079A42440792002D99
S214008F2040F08B80049B16A80193069B009399F84B
S214008F3014204346316800F0CDFDE36B0F9A9B6921
S214008F40039816A99847039A051E089B18BF134650
S214008F500893434652462046039927F097FD236B15
S214008F6008F10302A3EB0A0322F003029B1AC9F8D6
S214008F7008002363002D7FF443AF0C9BA7EB080784
S214008F8043440C93CDF80CB02046039927F051FDCE
S214008F9000250390002F7FF4B9AE364A31689368F7
S214008FA004F10800E36252680B9B00F00BFD49E0F9
S214008FB09B46454607999EE79B4606F1200210927F
S214008FC0F27D7068A2B1002296F818C00A99D5B250
S214008FD0AC4511D9109D02F1010E35F832508D4284
S214008FE028D90E9806EBC2020144D069084403E073
S214008FF00E9A0A990A441044E26B15A95569012293
S2140090001193A847159A0A9B1392E26B043395694D
S2140090105846012213A90A93A847119B054603EB5D
S2140090200802A2EB0B02042A7FF679AF28B90BF1EF
S214009030040BC5E77246491BC9E7CDF820B088E7A0
S21400904070252F46384619B0BDE8F08F4FF0000A5D
S21400905019E73269616CD31D1439B3FBF1F30133A0
S21400906002EBC302236B9342BFF404AEE9E71C276E
S214009070E8E700BFA03B0020032A2DE9F34106469F
S2140090800D4617461C4606D1237A012B23D0012015
S21400909002B0BDE8F081DFF86080096842460DF155
S2140090A00703FFF7ABF960600028EDD19DF80720B5
S2140090B0237A032AE8D0D8F804106A689142E3D1EC
S2140090C0012B2969D4F80CC007D172690CEB010397
S2140090D0934202D92074207CDAE708316144E160CB
S2140090E03B46012229463046FFF7ACFD606000286B
S2140090F0CAD00020CCE700BFCC3B00202DE9F341CE
S214009100089C032A1746266806D1237A012B24D00A
S214009110012002B0BDE8F081DFF89080304642467C
S2140091200DF10703FFF76AF960600028EDD12568A6
S214009130D8F80400A96AD5F844C04840CCF100032A
S2140091401840227AE1D1012A09D1E268D8F8103015
S21400915013447269934202D92074207CD9E72868A8
S214009160EB6A1B1A081AB3FBFCF3B0FBFCF0834255
S2140091700BD1706CF36A421E1340326B121A134402
S2140091802846336327F055FCE862D8F81020E368D9
S21400919008321344E36001223B4604492068FFF787
S2140091A051FD60600028B0D00020B2E7CC3B002024
S2140091B02DE9F0410025604B0E46D3F800800446AA
S2140091C01D6018B921252846BDE8F08190F8347056
S2140091D007B30A6803689A4240F0A3804A68436867
S2140091E09A4240F09E808A6883689A4240F099804E
S2140091F0CA68C3689A4240F094800A6943699A42F2
S21400920040F08F808A69C36B9A4240F08A804B692F
S2140092108361D8E768223946856B12F067FAD6E98B
S2140092200212336804F1080023607368A563636064
S214009230336963617369A36127F012FEB36904F1B1
S2140092404000E3639B68984720B9676C17B1636872
S214009250B3FBF7F794F84330E761002BB2D0002356
S214009260656C2366002D64D0002F62D02368B3FBA4
S214009270F5F205FB1233002B55D16668B6FBF5F305
S21400928005FB1363002B4ED1204627F0E1FAA369B5
S214009290043303449E4248D340F634726369CC3BA1
S2140092A0934244D8B5F5805F43D30321204627F088
S2140092B0F8FAD4E90001E36B1B6898470546E36BB0
S2140092C00220DB689847CDB941462046FFF77AF979
S2140092D06428054604D141462046FFF773F9054643
S2140092E0666C5DB9236A2046143E5E4327F0B0FAEA
S2140092F0A369043303449E4238BF5A25002D0CBF91
S2140093000123002384F8343007D1D4E900010B4A46
S21400931013680133136027F03DFEE06B27F05AFC1C
S21400932051E75D254FE759254DE75A254BE75F2561
S21400933049E75B2547E700BF303500202C35002085
S2140093402DE9FF410C4616461F46054680B390F8A9
S21400935034307BB3B1F5801F2ED2DFF86080012158
S21400936027F09FFA2146424628460DF10F03FFF7E5
S21400937045F8044670B99DF80F30012B11D1D8F886
S2140093801030BB4212D10246009031462846FFF705
S21400939043FB0446E86B27F01DFC204604B0BDE8FE
S2140093A0F081022B14BF2D246024F3E76324F1E739
S2140093B02124F2E71124F0E72924EEE7F83B002009
S2140093C02DE9F04385B00C4617461E460546DDF8E7
S2140093D0308098B390F8343093B3B1F5801F31D213
S2140093E0DFF86490012127F05CFA21464A462846B9
S2140093F00DF10F03FFF702F8044688B99DF80F3009
S214009400012B14D1D9F8102006EB08039A4213D387
S21400941000904346324639462846FFF7FDFA044692
S214009420E86B27F0D7FB204605B0BDE8F083022B9B
S21400943014BF2D246024F3E76324F1E72124F2E728
S2140094401124F0E72924EEE7F83B002073B50C461C
S2140094501646054630B390F834302BB3B1F5801F6E
S21400946024D2012127F01DFA21462846104A0DF184
S2140094700703FEF7C3FF044680B99DF80730032BA9
S2140094800CD0022B0CD12846094927F001FC30608D
S214009490E86B27F09FFB204602B070BD2D24F7E74F
S2140094A06124F5E72124F6E71124F4E72924F2E7FE
S2140094B0F83B00202DE9F3411E4600230C461746D4
S2140094C00546336050B390F834304BB3B1F5801F87
S2140094D028D2DFF85480012127F0E3F921464246DE
S2140094E028460DF10703FEF789FF0446A0B99DF84C
S2140094F00730032B10D0022B03BF01233B6004234D
S214009500D8F8103018BF38603360E86B27F062FB7D
S214009510204602B0BDE8F0812D24F6E72124F7E7C7
S2140095201124F5E72924F3E7F83B002073B5044639
S214009530056B27F08DF9636E03449D422CBF002314
S2140095400123854294BF00252D1A207C84F85030D4
S214009550656584F85800A8B100230C4E1A461946D3
S2140095602046009627F058FC002305461A46194662
S2140095702046009627F059FCE3682844984294BF9A
S2140095800020C01AE06502B070BD00BFFFFF0F00EC
S2140095902DE9F3471E4643690446B34288461746FC
S2140095A09DF828904ED300258DF80750204627F0CA
S2140095B04FF9D4F830A082450AD2236AB5EB430FA0
S2140095C006D2002220460DF10701FFF745F9B8B391
S2140095D09DF80730012B05D1002220460DF107012A
S2140095E0FFF73AF9B9F1030F06D03146204627F0C7
S2140095F01FF9256B854227D3144D4FF0FF312846BF
S21400960000F0B2FA4B46294600222046C5E903760A
S214009610C5F80080FFF716FB236E054663B12046AB
S214009620FFF784FF94F8503013B994F858301BB104
S214009630236E04F150009847284602B0BDE8F08734
S2140096400135B3E76225F7E71C25F5E7CC3B00209C
S2140096502DE9FF410F4690461E46054698B390F802
S214009660343093B3B1F5801F31D21A4C022127F063
S21400967018F92246394628460DF10F03FEF7BEFEBE
S214009680024678B1012342460093394633462846BF
S214009690FFF77EFF0446E86B27F09CFA204604B0EE
S2140096A0BDE8F0819DF80F30012BEBD12169B14266
S2140096B0E8D10093414633462846FFF7ADF9044605
S2140096C00028DFD1E7E72124E8E71124E6E729248C
S2140096D0E4E700BFF83B00202DE9F04790F8423061
S2140096E086B0012B05460391A1EB020740F0AA8045
S2140096F0FF2F03D81E464FF0640807E00226012B12
S21400970014BF4FF032084FF06408013600244FF6BD
S214009710FF79DFF844A195F84230012B14BF3223BD
S21400972064239C4202D35FFA88F40DE005AB224620
S2140097305146284627F08AFA95F84230012B059BB9
S21400974034D14B452DD1E4B295F84230012B14BFED
S21400975032226422121BB24217D3012E39D10022C4
S214009760012B05978DF8132027D1082205A90DF1A6
S214009770130027F027FD9DF81330059A42EA0322CE
S21400978021462846FFF730FA40B1022332490093BB
S2140097902846CC23096803AAFFF7FAFE06B0BDE800
S2140097A0F087DBB203B902340134B4E7591CCAD0DF
S2140097B09BB2002BF8D10134F6E7102205A90DF173
S2140097C0130027F0FFFC9DF81330059A42EA034287
S2140097D0D6E7039A012B059223D10823202205A958
S2140097E00DF113008DF8133027F0ECFC9DF81320D4
S2140097F0120221462846FFF7F7F995F84230611C19
S214009800012BC9B21AD10028BFD12846BDF81420B2
S214009810FFF7EAF90028B8D10234BDF81620E1B205
S214009820AFE71023202205A90DF113008DF81330A1
S21400983027F0C8FC9DF813201204DAE70028A4D10C
S214009840059A9EE7B7F5803F4FF00106BFF457AF85
S2140098504FF032085AE700BFF83B002070B586B0DC
S2140098600E4605460392A0B390F834309BB3B1F58C
S214009870801F32D2022127F014F831462846184AB3
S2140098800DF11703FEF7BAFD044618B99DF8173018
S214009890032B0ED10223314600932846CC2303AA7D
S2140098A0FFF776FE0446E86B27F094F9204606B0EC
S2140098B070BD022B0BD10A49284627F0E9F9039917
